{
  "contractName": "Approvals",
  "abi": [
    {
      "inputs": [
        {
          "internalType": "contract ShibaBEP20",
          "name": "_Nova",
          "type": "address"
        }
      ],
      "stateMutability": "nonpayable",
      "type": "constructor"
    },
    {
      "anonymous": false,
      "inputs": [
        {
          "indexed": true,
          "internalType": "address",
          "name": "previousOwner",
          "type": "address"
        },
        {
          "indexed": true,
          "internalType": "address",
          "name": "newOwner",
          "type": "address"
        }
      ],
      "name": "OwnershipTransferred",
      "type": "event"
    },
    {
      "inputs": [],
      "name": "Nova",
      "outputs": [
        {
          "internalType": "contract ShibaBEP20",
          "name": "",
          "type": "address"
        }
      ],
      "stateMutability": "view",
      "type": "function"
    },
    {
      "inputs": [
        {
          "internalType": "address",
          "name": "",
          "type": "address"
        }
      ],
      "name": "contractApproval",
      "outputs": [
        {
          "internalType": "bool",
          "name": "",
          "type": "bool"
        }
      ],
      "stateMutability": "view",
      "type": "function"
    },
    {
      "inputs": [],
      "name": "owner",
      "outputs": [
        {
          "internalType": "address",
          "name": "",
          "type": "address"
        }
      ],
      "stateMutability": "view",
      "type": "function"
    },
    {
      "inputs": [],
      "name": "renounceOwnership",
      "outputs": [],
      "stateMutability": "nonpayable",
      "type": "function"
    },
    {
      "inputs": [
        {
          "internalType": "address",
          "name": "newOwner",
          "type": "address"
        }
      ],
      "name": "transferOwnership",
      "outputs": [],
      "stateMutability": "nonpayable",
      "type": "function"
    },
    {
      "inputs": [
        {
          "internalType": "address",
          "name": "_contract",
          "type": "address"
        },
        {
          "internalType": "bool",
          "name": "_isActive",
          "type": "bool"
        }
      ],
      "name": "addContract",
      "outputs": [],
      "stateMutability": "nonpayable",
      "type": "function"
    },
    {
      "inputs": [
        {
          "internalType": "address",
          "name": "_contract",
          "type": "address"
        },
        {
          "internalType": "bool",
          "name": "_isActive",
          "type": "bool"
        }
      ],
      "name": "editContract",
      "outputs": [],
      "stateMutability": "nonpayable",
      "type": "function"
    },
    {
      "inputs": [
        {
          "internalType": "address",
          "name": "_sender",
          "type": "address"
        }
      ],
      "name": "approveAll",
      "outputs": [],
      "stateMutability": "nonpayable",
      "type": "function"
    }
  ],
  "bytecode": "0x60806040527fffffffffffffffffffffffffffffffffffffffffffffffffffffffffffffffff6004553480156200003557600080fd5b50604051620011083803806200110883398181016040528101906200005b9190620001a6565b6200007b6200006f620000c360201b60201c565b620000cb60201b60201c565b80600160006101000a81548173ffffffffffffffffffffffffffffffffffffffff021916908373ffffffffffffffffffffffffffffffffffffffff160217905550506200023f565b600033905090565b60008060009054906101000a900473ffffffffffffffffffffffffffffffffffffffff169050816000806101000a81548173ffffffffffffffffffffffffffffffffffffffff021916908373ffffffffffffffffffffffffffffffffffffffff1602179055508173ffffffffffffffffffffffffffffffffffffffff168173ffffffffffffffffffffffffffffffffffffffff167f8be0079c531659141344cd1fd0a4f28419497f9722a3daafe3b4186f6b6457e060405160405180910390a35050565b600081519050620001a08162000225565b92915050565b600060208284031215620001bf57620001be62000220565b5b6000620001cf848285016200018f565b91505092915050565b6000620001e58262000200565b9050919050565b6000620001f982620001d8565b9050919050565b600073ffffffffffffffffffffffffffffffffffffffff82169050919050565b600080fd5b6200023081620001ec565b81146200023c57600080fd5b50565b610eb9806200024f6000396000f3fe608060405234801561001057600080fd5b50600436106100885760003560e01c8063715018a61161005b578063715018a614610113578063868220f51461011d5780638da5cb5b14610139578063f2fde38b1461015757610088565b80630621472c1461008d57806312fb2654146100a95780631bb63d0c146100d95780633961bed4146100f7575b600080fd5b6100a760048036038101906100a291906109ce565b610173565b005b6100c360048036038101906100be91906109ce565b610322565b6040516100d09190610b74565b60405180910390f35b6100e1610342565b6040516100ee9190610b8f565b60405180910390f35b610111600480360381019061010c91906109fb565b610368565b005b61011b610573565b005b610137600480360381019061013291906109fb565b6105fb565b005b6101416107a2565b60405161014e9190610b30565b60405180910390f35b610171600480360381019061016c91906109ce565b6107cb565b005b60005b60038054905081101561031e5760011515600260006003848154811061019f5761019e610d31565b5b9060005260206000200160009054906101000a900473ffffffffffffffffffffffffffffffffffffffff1673ffffffffffffffffffffffffffffffffffffffff1673ffffffffffffffffffffffffffffffffffffffff16815260200190815260200160002060009054906101000a900460ff161515141561030b57600160009054906101000a900473ffffffffffffffffffffffffffffffffffffffff1673ffffffffffffffffffffffffffffffffffffffff1663095ea7b36003838154811061026c5761026b610d31565b5b9060005260206000200160009054906101000a900473ffffffffffffffffffffffffffffffffffffffff166004546040518363ffffffff1660e01b81526004016102b7929190610b4b565b602060405180830381600087803b1580156102d157600080fd5b505af11580156102e5573d6000803e3d6000fd5b505050506040513d601f19601f820116820180604052508101906103099190610a3b565b505b808061031690610cb9565b915050610176565b5050565b60026020528060005260406000206000915054906101000a900460ff1681565b600160009054906101000a900473ffffffffffffffffffffffffffffffffffffffff1681565b6103706108c3565b73ffffffffffffffffffffffffffffffffffffffff1661038e6107a2565b73ffffffffffffffffffffffffffffffffffffffff16146103e4576040517f08c379a00000000000000000000000000000000000000000000000000000000081526004016103db90610c0a565b60405180910390fd5b60005b6003805490508110156104b4578273ffffffffffffffffffffffffffffffffffffffff166003828154811061041f5761041e610d31565b5b9060005260206000200160009054906101000a900473ffffffffffffffffffffffffffffffffffffffff1673ffffffffffffffffffffffffffffffffffffffff1614156104a1576040517f08c379a000000000000000000000000000000000000000000000000000000000815260040161049890610bca565b60405180910390fd5b80806104ac90610cb9565b9150506103e7565b5080600260008473ffffffffffffffffffffffffffffffffffffffff1673ffffffffffffffffffffffffffffffffffffffff16815260200190815260200160002060006101000a81548160ff0219169083151502179055506003829080600181540180825580915050600190039060005260206000200160009091909190916101000a81548173ffffffffffffffffffffffffffffffffffffffff021916908373ffffffffffffffffffffffffffffffffffffffff1602179055505050565b61057b6108c3565b73ffffffffffffffffffffffffffffffffffffffff166105996107a2565b73ffffffffffffffffffffffffffffffffffffffff16146105ef576040517f08c379a00000000000000000000000000000000000000000000000000000000081526004016105e690610c0a565b60405180910390fd5b6105f960006108cb565b565b6106036108c3565b73ffffffffffffffffffffffffffffffffffffffff166106216107a2565b73ffffffffffffffffffffffffffffffffffffffff1614610677576040517f08c379a000000000000000000000000000000000000000000000000000000000815260040161066e90610c0a565b60405180910390fd5b60005b600380549050811015610746578273ffffffffffffffffffffffffffffffffffffffff16600382815481106106b2576106b1610d31565b5b9060005260206000200160009054906101000a900473ffffffffffffffffffffffffffffffffffffffff1673ffffffffffffffffffffffffffffffffffffffff1614610733576040517f08c379a000000000000000000000000000000000000000000000000000000000815260040161072a90610bea565b60405180910390fd5b808061073e90610cb9565b91505061067a565b5080600260008473ffffffffffffffffffffffffffffffffffffffff1673ffffffffffffffffffffffffffffffffffffffff16815260200190815260200160002060006101000a81548160ff0219169083151502179055505050565b60008060009054906101000a900473ffffffffffffffffffffffffffffffffffffffff16905090565b6107d36108c3565b73ffffffffffffffffffffffffffffffffffffffff166107f16107a2565b73ffffffffffffffffffffffffffffffffffffffff1614610847576040517f08c379a000000000000000000000000000000000000000000000000000000000815260040161083e90610c0a565b60405180910390fd5b600073ffffffffffffffffffffffffffffffffffffffff168173ffffffffffffffffffffffffffffffffffffffff1614156108b7576040517f08c379a00000000000000000000000000000000000000000000000000000000081526004016108ae90610baa565b60405180910390fd5b6108c0816108cb565b50565b600033905090565b60008060009054906101000a900473ffffffffffffffffffffffffffffffffffffffff169050816000806101000a81548173ffffffffffffffffffffffffffffffffffffffff021916908373ffffffffffffffffffffffffffffffffffffffff1602179055508173ffffffffffffffffffffffffffffffffffffffff168173ffffffffffffffffffffffffffffffffffffffff167f8be0079c531659141344cd1fd0a4f28419497f9722a3daafe3b4186f6b6457e060405160405180910390a35050565b60008135905061099e81610e55565b92915050565b6000813590506109b381610e6c565b92915050565b6000815190506109c881610e6c565b92915050565b6000602082840312156109e4576109e3610d60565b5b60006109f28482850161098f565b91505092915050565b60008060408385031215610a1257610a11610d60565b5b6000610a208582860161098f565b9250506020610a31858286016109a4565b9150509250929050565b600060208284031215610a5157610a50610d60565b5b6000610a5f848285016109b9565b91505092915050565b610a7181610c3b565b82525050565b610a8081610c4d565b82525050565b610a8f81610c83565b82525050565b6000610aa2602683610c2a565b9150610aad82610d65565b604082019050919050565b6000610ac5602183610c2a565b9150610ad082610db4565b604082019050919050565b6000610ae8601d83610c2a565b9150610af382610e03565b602082019050919050565b6000610b0b602083610c2a565b9150610b1682610e2c565b602082019050919050565b610b2a81610c79565b82525050565b6000602082019050610b456000830184610a68565b92915050565b6000604082019050610b606000830185610a68565b610b6d6020830184610b21565b9392505050565b6000602082019050610b896000830184610a77565b92915050565b6000602082019050610ba46000830184610a86565b92915050565b60006020820190508181036000830152610bc381610a95565b9050919050565b60006020820190508181036000830152610be381610ab8565b9050919050565b60006020820190508181036000830152610c0381610adb565b9050919050565b60006020820190508181036000830152610c2381610afe565b9050919050565b600082825260208201905092915050565b6000610c4682610c59565b9050919050565b60008115159050919050565b600073ffffffffffffffffffffffffffffffffffffffff82169050919050565b6000819050919050565b6000610c8e82610c95565b9050919050565b6000610ca082610ca7565b9050919050565b6000610cb282610c59565b9050919050565b6000610cc482610c79565b91507fffffffffffffffffffffffffffffffffffffffffffffffffffffffffffffffff821415610cf757610cf6610d02565b5b600182019050919050565b7f4e487b7100000000000000000000000000000000000000000000000000000000600052601160045260246000fd5b7f4e487b7100000000000000000000000000000000000000000000000000000000600052603260045260246000fd5b600080fd5b7f4f776e61626c653a206e6577206f776e657220697320746865207a65726f206160008201527f6464726573730000000000000000000000000000000000000000000000000000602082015250565b7f415050524f56414c533a20636f6e747261637420616c7265616479206164646560008201527f6400000000000000000000000000000000000000000000000000000000000000602082015250565b7f415050524f56414c533a20636f6e7472616374206e6f74206164646564000000600082015250565b7f4f776e61626c653a2063616c6c6572206973206e6f7420746865206f776e6572600082015250565b610e5e81610c3b565b8114610e6957600080fd5b50565b610e7581610c4d565b8114610e8057600080fd5b5056fea2646970667358221220cf053b47348bc52ecc49a7eafb85030167c891d265876e88f9893eb609aa58f764736f6c63430008070033",
  "immutableReferences": {},
  "source": "// SPDX-License-Identifier: MIT\r\n\r\npragma solidity ^0.8.7;\r\n\r\nimport \"@openzeppelin/contracts/access/Ownable.sol\";\r\nimport \"./libs/ShibaBEP20.sol\";\r\n\r\n// Contract to create a button for users to approve all NOVARIA contracts.\r\n// If there are multiple new contracts to replace, it may be better to just\r\n// redeploy this contract with only the necessary contracts to save gas.\r\ncontract Approvals is Ownable {\r\n\r\n    constructor(\r\n        ShibaBEP20 _Nova\r\n    ) {\r\n        Nova = _Nova;\r\n    }\r\n\r\n    ShibaBEP20 public Nova; // Nova token\r\n    mapping (address => bool) public contractApproval;\r\n    address[] addressList;\r\n    uint256 max = 0xffffffffffffffffffffffffffffffffffffffffffffffffffffffffffffffff;\r\n\r\n    function addContract(address _contract, bool _isActive) public onlyOwner {\r\n        for (uint i=0; i < addressList.length; i++) {\r\n            require(addressList[i] != _contract, \"APPROVALS: contract already added\");\r\n        }\r\n        contractApproval[_contract] = _isActive;\r\n        addressList.push(_contract);\r\n    }\r\n\r\n    function editContract(address _contract, bool _isActive) external onlyOwner {\r\n        for (uint i=0; i < addressList.length; i++) {\r\n            require(addressList[i] == _contract, \"APPROVALS: contract not added\");\r\n        }\r\n        contractApproval[_contract] = _isActive;\r\n    }\r\n\r\n    function approveAll(address _sender) external {\r\n        for (uint i=0; i < addressList.length; i++) {\r\n            if (contractApproval[addressList[i]] == true) {\r\n                Nova.approve(addressList[i], max);\r\n            }\r\n        }\r\n    }\r\n}",
  "sourcePath": "D:/Novaria/contracts/Approvals.sol",
  "compiler": {
    "name": "solc",
    "version": "0.8.7+commit.e28d00a7.Emscripten.clang"
  },
  "schemaVersion": "3.2.3",
  "updatedAt": "2022-01-19T22:12:38.507Z",
  "devdoc": {
    "kind": "dev",
    "methods": {
      "owner()": {
        "details": "Returns the address of the current owner."
      },
      "renounceOwnership()": {
        "details": "Leaves the contract without owner. It will not be possible to call `onlyOwner` functions anymore. Can only be called by the current owner. NOTE: Renouncing ownership will leave the contract without an owner, thereby removing any functionality that is only available to the owner."
      },
      "transferOwnership(address)": {
        "details": "Transfers ownership of the contract to a new account (`newOwner`). Can only be called by the current owner."
      }
    },
    "version": 1
  },
  "userdoc": {
    "kind": "user",
    "methods": {},
    "version": 1
  }
}