{
  "contractName": "Map",
  "abi": [
    {
      "inputs": [
        {
          "internalType": "contract ITreasury",
          "name": "_treasury",
          "type": "address"
        }
      ],
      "stateMutability": "nonpayable",
      "type": "constructor"
    },
    {
      "anonymous": false,
      "inputs": [
        {
          "indexed": false,
          "internalType": "uint256",
          "name": "xcoord",
          "type": "uint256"
        },
        {
          "indexed": false,
          "internalType": "uint256",
          "name": "ycoord",
          "type": "uint256"
        },
        {
          "indexed": false,
          "internalType": "string",
          "name": "placeType",
          "type": "string"
        },
        {
          "indexed": false,
          "internalType": "string",
          "name": "name",
          "type": "string"
        }
      ],
      "name": "NewPlace",
      "type": "event"
    },
    {
      "anonymous": false,
      "inputs": [
        {
          "indexed": false,
          "internalType": "uint256",
          "name": "xcoord",
          "type": "uint256"
        },
        {
          "indexed": false,
          "internalType": "uint256",
          "name": "ycoord",
          "type": "uint256"
        },
        {
          "indexed": false,
          "internalType": "string",
          "name": "message",
          "type": "string"
        }
      ],
      "name": "NoNewPlace",
      "type": "event"
    },
    {
      "anonymous": false,
      "inputs": [
        {
          "indexed": true,
          "internalType": "address",
          "name": "previousOwner",
          "type": "address"
        },
        {
          "indexed": true,
          "internalType": "address",
          "name": "newOwner",
          "type": "address"
        }
      ],
      "name": "OwnershipTransferred",
      "type": "event"
    },
    {
      "inputs": [],
      "name": "PlaceManager",
      "outputs": [
        {
          "internalType": "contract IPlaceManager",
          "name": "",
          "type": "address"
        }
      ],
      "stateMutability": "view",
      "type": "function",
      "constant": true
    },
    {
      "inputs": [],
      "name": "Treasury",
      "outputs": [
        {
          "internalType": "contract ITreasury",
          "name": "",
          "type": "address"
        }
      ],
      "stateMutability": "view",
      "type": "function",
      "constant": true
    },
    {
      "inputs": [],
      "name": "cooldownMod",
      "outputs": [
        {
          "internalType": "uint256",
          "name": "",
          "type": "uint256"
        }
      ],
      "stateMutability": "view",
      "type": "function",
      "constant": true
    },
    {
      "inputs": [
        {
          "internalType": "uint256",
          "name": "",
          "type": "uint256"
        },
        {
          "internalType": "uint256",
          "name": "",
          "type": "uint256"
        }
      ],
      "name": "coordinatePlaces",
      "outputs": [
        {
          "internalType": "string",
          "name": "name",
          "type": "string"
        },
        {
          "internalType": "string",
          "name": "placeType",
          "type": "string"
        },
        {
          "internalType": "bool",
          "name": "isDmz",
          "type": "bool"
        },
        {
          "internalType": "bool",
          "name": "isRefinery",
          "type": "bool"
        },
        {
          "internalType": "bool",
          "name": "isActive",
          "type": "bool"
        }
      ],
      "stateMutability": "view",
      "type": "function",
      "constant": true
    },
    {
      "inputs": [
        {
          "internalType": "address",
          "name": "_editor",
          "type": "address"
        }
      ],
      "name": "deactivateEditor",
      "outputs": [],
      "stateMutability": "nonpayable",
      "type": "function"
    },
    {
      "inputs": [
        {
          "internalType": "address",
          "name": "",
          "type": "address"
        }
      ],
      "name": "editor",
      "outputs": [
        {
          "internalType": "bool",
          "name": "",
          "type": "bool"
        }
      ],
      "stateMutability": "view",
      "type": "function",
      "constant": true
    },
    {
      "inputs": [],
      "name": "explorationOn",
      "outputs": [
        {
          "internalType": "bool",
          "name": "",
          "type": "bool"
        }
      ],
      "stateMutability": "view",
      "type": "function",
      "constant": true
    },
    {
      "inputs": [
        {
          "internalType": "address",
          "name": "_editor",
          "type": "address"
        }
      ],
      "name": "isEditor",
      "outputs": [
        {
          "internalType": "bool",
          "name": "",
          "type": "bool"
        }
      ],
      "stateMutability": "view",
      "type": "function",
      "constant": true
    },
    {
      "inputs": [],
      "name": "maxTravel",
      "outputs": [
        {
          "internalType": "uint256",
          "name": "",
          "type": "uint256"
        }
      ],
      "stateMutability": "view",
      "type": "function",
      "constant": true
    },
    {
      "inputs": [],
      "name": "owner",
      "outputs": [
        {
          "internalType": "address",
          "name": "",
          "type": "address"
        }
      ],
      "stateMutability": "view",
      "type": "function",
      "constant": true
    },
    {
      "inputs": [
        {
          "internalType": "uint256",
          "name": "",
          "type": "uint256"
        }
      ],
      "name": "placeTypes",
      "outputs": [
        {
          "internalType": "string",
          "name": "",
          "type": "string"
        }
      ],
      "stateMutability": "view",
      "type": "function",
      "constant": true
    },
    {
      "inputs": [],
      "name": "playerCount",
      "outputs": [
        {
          "internalType": "uint256",
          "name": "",
          "type": "uint256"
        }
      ],
      "stateMutability": "view",
      "type": "function",
      "constant": true
    },
    {
      "inputs": [
        {
          "internalType": "uint256",
          "name": "",
          "type": "uint256"
        }
      ],
      "name": "playerList",
      "outputs": [
        {
          "internalType": "address",
          "name": "",
          "type": "address"
        }
      ],
      "stateMutability": "view",
      "type": "function",
      "constant": true
    },
    {
      "inputs": [],
      "name": "renounceOwnership",
      "outputs": [],
      "stateMutability": "nonpayable",
      "type": "function"
    },
    {
      "inputs": [
        {
          "internalType": "address[]",
          "name": "_editor",
          "type": "address[]"
        }
      ],
      "name": "setEditor",
      "outputs": [],
      "stateMutability": "nonpayable",
      "type": "function"
    },
    {
      "inputs": [
        {
          "internalType": "address",
          "name": "newOwner",
          "type": "address"
        }
      ],
      "name": "transferOwnership",
      "outputs": [],
      "stateMutability": "nonpayable",
      "type": "function"
    },
    {
      "inputs": [],
      "name": "travelCost",
      "outputs": [
        {
          "internalType": "uint256",
          "name": "",
          "type": "uint256"
        }
      ],
      "stateMutability": "view",
      "type": "function",
      "constant": true
    },
    {
      "inputs": [
        {
          "internalType": "uint256",
          "name": "_x",
          "type": "uint256"
        },
        {
          "internalType": "uint256",
          "name": "_y",
          "type": "uint256"
        },
        {
          "internalType": "string",
          "name": "_name",
          "type": "string"
        },
        {
          "internalType": "string",
          "name": "_placeType",
          "type": "string"
        },
        {
          "internalType": "bool",
          "name": "_isDmz",
          "type": "bool"
        },
        {
          "internalType": "bool",
          "name": "_isRefinery",
          "type": "bool"
        },
        {
          "internalType": "bool",
          "name": "_isActive",
          "type": "bool"
        }
      ],
      "name": "setPlace",
      "outputs": [],
      "stateMutability": "nonpayable",
      "type": "function"
    },
    {
      "inputs": [
        {
          "internalType": "uint256",
          "name": "_lx",
          "type": "uint256"
        },
        {
          "internalType": "uint256",
          "name": "_ly",
          "type": "uint256"
        },
        {
          "internalType": "uint256",
          "name": "_rx",
          "type": "uint256"
        },
        {
          "internalType": "uint256",
          "name": "_ry",
          "type": "uint256"
        }
      ],
      "name": "getCoordinatePlaces",
      "outputs": [
        {
          "components": [
            {
              "internalType": "string",
              "name": "name",
              "type": "string"
            },
            {
              "internalType": "string",
              "name": "placeType",
              "type": "string"
            },
            {
              "internalType": "bool",
              "name": "isDmz",
              "type": "bool"
            },
            {
              "internalType": "bool",
              "name": "isRefinery",
              "type": "bool"
            },
            {
              "internalType": "bool",
              "name": "isActive",
              "type": "bool"
            }
          ],
          "internalType": "struct Map.Place[]",
          "name": "",
          "type": "tuple[]"
        }
      ],
      "stateMutability": "view",
      "type": "function",
      "constant": true
    },
    {
      "inputs": [
        {
          "internalType": "uint256",
          "name": "_x",
          "type": "uint256"
        },
        {
          "internalType": "uint256",
          "name": "_y",
          "type": "uint256"
        }
      ],
      "name": "getPlace",
      "outputs": [
        {
          "internalType": "string",
          "name": "name",
          "type": "string"
        },
        {
          "internalType": "string",
          "name": "placeType",
          "type": "string"
        },
        {
          "internalType": "bool",
          "name": "isDmz",
          "type": "bool"
        },
        {
          "internalType": "bool",
          "name": "isRefinery",
          "type": "bool"
        },
        {
          "internalType": "bool",
          "name": "isActive",
          "type": "bool"
        }
      ],
      "stateMutability": "view",
      "type": "function",
      "constant": true
    },
    {
      "inputs": [
        {
          "internalType": "uint256",
          "name": "_x",
          "type": "uint256"
        },
        {
          "internalType": "uint256",
          "name": "_y",
          "type": "uint256"
        }
      ],
      "name": "isRefinery",
      "outputs": [
        {
          "internalType": "bool",
          "name": "",
          "type": "bool"
        }
      ],
      "stateMutability": "view",
      "type": "function",
      "constant": true
    },
    {
      "inputs": [
        {
          "internalType": "address",
          "name": "_sender",
          "type": "address"
        }
      ],
      "name": "setInitialLocation",
      "outputs": [],
      "stateMutability": "nonpayable",
      "type": "function"
    },
    {
      "inputs": [
        {
          "internalType": "address",
          "name": "_player",
          "type": "address"
        },
        {
          "internalType": "uint256",
          "name": "_x",
          "type": "uint256"
        },
        {
          "internalType": "uint256",
          "name": "_y",
          "type": "uint256"
        }
      ],
      "name": "_setPlayerLocation",
      "outputs": [],
      "stateMutability": "nonpayable",
      "type": "function"
    },
    {
      "inputs": [
        {
          "internalType": "address",
          "name": "_player",
          "type": "address"
        }
      ],
      "name": "getPlayerLocation",
      "outputs": [
        {
          "internalType": "uint256",
          "name": "x",
          "type": "uint256"
        },
        {
          "internalType": "uint256",
          "name": "y",
          "type": "uint256"
        }
      ],
      "stateMutability": "view",
      "type": "function",
      "constant": true
    },
    {
      "inputs": [
        {
          "internalType": "uint256",
          "name": "_x",
          "type": "uint256"
        },
        {
          "internalType": "uint256",
          "name": "_y",
          "type": "uint256"
        }
      ],
      "name": "getPlayersAtLocation",
      "outputs": [
        {
          "internalType": "address[]",
          "name": "",
          "type": "address[]"
        }
      ],
      "stateMutability": "view",
      "type": "function",
      "constant": true
    },
    {
      "inputs": [
        {
          "internalType": "uint256",
          "name": "_x",
          "type": "uint256"
        },
        {
          "internalType": "uint256",
          "name": "_y",
          "type": "uint256"
        }
      ],
      "name": "travel",
      "outputs": [],
      "stateMutability": "nonpayable",
      "type": "function"
    },
    {
      "inputs": [
        {
          "internalType": "address",
          "name": "_player",
          "type": "address"
        },
        {
          "internalType": "uint256",
          "name": "_x",
          "type": "uint256"
        },
        {
          "internalType": "uint256",
          "name": "_y",
          "type": "uint256"
        }
      ],
      "name": "getDistanceFromPlayer",
      "outputs": [
        {
          "internalType": "uint256",
          "name": "",
          "type": "uint256"
        }
      ],
      "stateMutability": "view",
      "type": "function",
      "constant": true
    },
    {
      "inputs": [
        {
          "internalType": "uint256",
          "name": "_new",
          "type": "uint256"
        }
      ],
      "name": "setMaxTravel",
      "outputs": [],
      "stateMutability": "nonpayable",
      "type": "function"
    },
    {
      "inputs": [
        {
          "internalType": "uint256",
          "name": "_new",
          "type": "uint256"
        }
      ],
      "name": "setCooldownMod",
      "outputs": [],
      "stateMutability": "nonpayable",
      "type": "function"
    },
    {
      "inputs": [
        {
          "internalType": "uint256",
          "name": "_x",
          "type": "uint256"
        },
        {
          "internalType": "uint256",
          "name": "_y",
          "type": "uint256"
        },
        {
          "internalType": "string",
          "name": "_name",
          "type": "string"
        }
      ],
      "name": "explore",
      "outputs": [],
      "stateMutability": "nonpayable",
      "type": "function"
    },
    {
      "inputs": [
        {
          "internalType": "bool",
          "name": "_isActive",
          "type": "bool"
        }
      ],
      "name": "setExplorationOn",
      "outputs": [],
      "stateMutability": "nonpayable",
      "type": "function"
    },
    {
      "inputs": [
        {
          "internalType": "string",
          "name": "_name",
          "type": "string"
        }
      ],
      "name": "addPlaceType",
      "outputs": [],
      "stateMutability": "nonpayable",
      "type": "function"
    },
    {
      "inputs": [
        {
          "internalType": "address",
          "name": "_new",
          "type": "address"
        }
      ],
      "name": "setPlaceManager",
      "outputs": [],
      "stateMutability": "nonpayable",
      "type": "function"
    }
  ],
  "bytecode": "0x6080604052662386f26fc100006004553480156200001c57600080fd5b5060405162004d3438038062004d3483398181016040528101906200004291906200039e565b62000062620000566200020b60201b60201c565b6200021360201b60201c565b80600360006101000a81548173ffffffffffffffffffffffffffffffffffffffff021916908373ffffffffffffffffffffffffffffffffffffffff1602179055506003600781905550610258600981905550600a80600181540180825580915050600190039060005260206000200160006040518060400160405280600481526020017f53746172000000000000000000000000000000000000000000000000000000008152509091909150908051906020019062000123929190620002d7565b50600a80600181540180825580915050600190039060005260206000200160006040518060400160405280600781526020017f4a61636b706f74000000000000000000000000000000000000000000000000008152509091909150908051906020019062000193929190620002d7565b50600a80600181540180825580915050600190039060005260206000200160006040518060400160405280600881526020017f53686970796172640000000000000000000000000000000000000000000000008152509091909150908051906020019062000203929190620002d7565b50506200049c565b600033905090565b60008060009054906101000a900473ffffffffffffffffffffffffffffffffffffffff169050816000806101000a81548173ffffffffffffffffffffffffffffffffffffffff021916908373ffffffffffffffffffffffffffffffffffffffff1602179055508173ffffffffffffffffffffffffffffffffffffffff168173ffffffffffffffffffffffffffffffffffffffff167f8be0079c531659141344cd1fd0a4f28419497f9722a3daafe3b4186f6b6457e060405160405180910390a35050565b828054620002e59062000418565b90600052602060002090601f01602090048101928262000309576000855562000355565b82601f106200032457805160ff191683800117855562000355565b8280016001018555821562000355579182015b828111156200035457825182559160200191906001019062000337565b5b50905062000364919062000368565b5090565b5b808211156200038357600081600090555060010162000369565b5090565b600081519050620003988162000482565b92915050565b600060208284031215620003b757620003b66200047d565b5b6000620003c78482850162000387565b91505092915050565b6000620003dd82620003f8565b9050919050565b6000620003f182620003d0565b9050919050565b600073ffffffffffffffffffffffffffffffffffffffff82169050919050565b600060028204905060018216806200043157607f821691505b602082108114156200044857620004476200044e565b5b50919050565b7f4e487b7100000000000000000000000000000000000000000000000000000000600052602260045260246000fd5b600080fd5b6200048d81620003e4565b81146200049957600080fd5b50565b61488880620004ac6000396000f3fe608060405234801561001057600080fd5b50600436106101fb5760003560e01c806381a2bd501161011a578063a87f4da5116100ad578063c50c87041161007c578063c50c8704146105c6578063cb7869fd146105e4578063e01ae68614610615578063f2fde38b14610645578063fe7e3db114610661576101fb565b8063a87f4da51461052c578063a9679a5114610548578063ad2e27bc14610566578063ae6d907314610596576101fb565b80638da5cb5b116100e95780638da5cb5b1461048c57806393f99d5a146104aa57806395e8996b146104de578063a0748154146104fc576101fb565b806381a2bd501461040857806387adb8cc1461043857806389efec43146104545780638a4318a714610470576101fb565b80633ecd299511610192578063563df32f11610161578063563df32f146103a85780636497bba9146103c657806364e51a8d146103e2578063715018a6146103fe576101fb565b80633ecd2995146103245780633f3ee8da146103405780634d7a0c771461035c578063502241bf1461038c576101fb565b8063233daaf7116101ce578063233daaf71461028a578063302bcc57146102ba57806335d67602146102d8578063375a43bc14610308576101fb565b8063045d7c881461020057806305bc2a3d14610234578063129a40e31461025057806318bcf0921461026e575b600080fd5b61021a60048036038101906102159190613455565b61067f565b60405161022b959493929190613c3a565b60405180910390f35b61024e600480360381019061024991906132bc565b6108a0565b005b61025861099a565b6040516102659190613dfb565b60405180910390f35b61028860048036038101906102839190613455565b6109a0565b005b6102a4600480360381019061029f91906132bc565b610c34565b6040516102b19190613bc7565b60405180910390f35b6102c2610c54565b6040516102cf9190613dfb565b60405180910390f35b6102f260048036038101906102ed91906135de565b610c5a565b6040516102ff9190613ba5565b60405180910390f35b610322600480360381019061031d9190613495565b610f6e565b005b61033e600480360381019061033991906132e9565b611b73565b005b61035a600480360381019061035591906132bc565b611bdb565b005b610376600480360381019061037191906132e9565b611db0565b6040516103839190613dfb565b60405180910390f35b6103a660048036038101906103a1919061333c565b611e89565b005b6103b0612046565b6040516103bd9190613bfd565b60405180910390f35b6103e060048036038101906103db91906133fb565b61206c565b005b6103fc60048036038101906103f791906132bc565b6120f2565b005b61040661225c565b005b610422600480360381019061041d91906133fb565b6122e4565b60405161042f9190613c18565b60405180910390f35b610452600480360381019061044d91906133b2565b612390565b005b61046e60048036038101906104699190613504565b61244b565b005b61048a600480360381019061048591906133fb565b612542565b005b6104946125c8565b6040516104a19190613b3f565b60405180910390f35b6104c460048036038101906104bf9190613455565b6125f1565b6040516104d5959493929190613c3a565b60405180910390f35b6104e661276b565b6040516104f39190613dfb565b60405180910390f35b610516600480360381019061051191906132bc565b612771565b6040516105239190613bc7565b60405180910390f35b61054660048036038101906105419190613385565b6127dc565b005b610550612875565b60405161055d9190613bc7565b60405180910390f35b610580600480360381019061057b9190613455565b612888565b60405161058d9190613b83565b60405180910390f35b6105b060048036038101906105ab91906133fb565b612afe565b6040516105bd9190613b3f565b60405180910390f35b6105ce612b3d565b6040516105db9190613be2565b60405180910390f35b6105fe60048036038101906105f991906132bc565b612b63565b60405161060c929190613e16565b60405180910390f35b61062f600480360381019061062a9190613455565b612c29565b60405161063c9190613bc7565b60405180910390f35b61065f600480360381019061065a91906132bc565b612c68565b005b610669612d60565b6040516106769190613dfb565b60405180910390f35b6060806000806000600d60008881526020019081526020016000206000878152602001908152602001600020600001600d60008981526020019081526020016000206000888152602001908152602001600020600101600d60008a8152602001908152602001600020600089815260200190815260200160002060020160009054906101000a900460ff16600d60008b815260200190815260200160002060008a815260200190815260200160002060020160019054906101000a900460ff16600d60008c815260200190815260200160002060008b815260200190815260200160002060020160029054906101000a900460ff1684805461078090614379565b80601f01602080910402602001604051908101604052809291908181526020018280546107ac90614379565b80156107f95780601f106107ce576101008083540402835291602001916107f9565b820191906000526020600020905b8154815290600101906020018083116107dc57829003601f168201915b5050505050945083805461080c90614379565b80601f016020809104026020016040519081016040528092919081815260200182805461083890614379565b80156108855780601f1061085a57610100808354040283529160200191610885565b820191906000526020600020905b81548152906001019060200180831161086857829003601f168201915b50505050509350945094509450945094509295509295909350565b6108a8612d66565b73ffffffffffffffffffffffffffffffffffffffff166108c66125c8565b73ffffffffffffffffffffffffffffffffffffffff161461091c576040517f08c379a000000000000000000000000000000000000000000000000000000000815260040161091390613d7b565b60405180910390fd5b600073ffffffffffffffffffffffffffffffffffffffff168173ffffffffffffffffffffffffffffffffffffffff16141561095657600080fd5b80600260006101000a81548173ffffffffffffffffffffffffffffffffffffffff021916908373ffffffffffffffffffffffffffffffffffffffff16021790555050565b60095481565b600033905060006109b2828585611db0565b9050600860008373ffffffffffffffffffffffffffffffffffffffff1673ffffffffffffffffffffffffffffffffffffffff16815260200190815260200160002054421015610a36576040517f08c379a0000000000000000000000000000000000000000000000000000000008152600401610a2d90613dbb565b60405180910390fd5b600754811115610a7b576040517f08c379a0000000000000000000000000000000000000000000000000000000008152600401610a7290613cbb565b60405180910390fd5b60095481610a899190614202565b42610a94919061400a565b600860008473ffffffffffffffffffffffffffffffffffffffff1673ffffffffffffffffffffffffffffffffffffffff168152602001908152602001600020819055506000600360009054906101000a900473ffffffffffffffffffffffffffffffffffffffff1673ffffffffffffffffffffffffffffffffffffffff1663e532a8bf6040518163ffffffff1660e01b815260040160206040518083038186803b158015610b4157600080fd5b505afa158015610b55573d6000803e3d6000fd5b505050506040513d601f19601f82011682018060405250810190610b799190613428565b60045483610b879190614202565b610b919190614202565b9050600360009054906101000a900473ffffffffffffffffffffffffffffffffffffffff1673ffffffffffffffffffffffffffffffffffffffff1663c407687684836040518363ffffffff1660e01b8152600401610bf0929190613b5a565b600060405180830381600087803b158015610c0a57600080fd5b505af1158015610c1e573d6000803e3d6000fd5b50505050610c2d838686611b73565b5050505050565b60016020528060005260406000206000915054906101000a900460ff1681565b60065481565b6060600060018685610c6c919061425c565b610c76919061400a565b9050600060018685610c88919061425c565b610c92919061400a565b905060008183610ca29190614202565b90506101008284610cb39190614202565b10610cf3576040517f08c379a0000000000000000000000000000000000000000000000000000000008152600401610cea90613d5b565b60405180910390fd5b60008167ffffffffffffffff811115610d0f57610d0e614526565b5b604051908082528060200260200182016040528015610d4857816020015b610d35612fe3565b815260200190600190039081610d2d5790505b5090506000808a90505b888111610f5d5760008a90505b888111610f4957600d600083815260200190815260200160002060008281526020019081526020016000206040518060a0016040529081600082018054610da590614379565b80601f0160208091040260200160405190810160405280929190818152602001828054610dd190614379565b8015610e1e5780601f10610df357610100808354040283529160200191610e1e565b820191906000526020600020905b815481529060010190602001808311610e0157829003601f168201915b50505050508152602001600182018054610e3790614379565b80601f0160208091040260200160405190810160405280929190818152602001828054610e6390614379565b8015610eb05780601f10610e8557610100808354040283529160200191610eb0565b820191906000526020600020905b815481529060010190602001808311610e9357829003601f168201915b505050505081526020016002820160009054906101000a900460ff161515151581526020016002820160019054906101000a900460ff161515151581526020016002820160029054906101000a900460ff161515151581525050848481518110610f1d57610f1c6144f7565b5b60200260200101819052508280610f33906143dc565b9350508080610f41906143dc565b915050610d5f565b508080610f55906143dc565b915050610d52565b508195505050505050949350505050565b60011515600b60009054906101000a900460ff16151514610fc4576040517f08c379a0000000000000000000000000000000000000000000000000000000008152600401610fbb90613d9b565b60405180910390fd5b60011515600c6000858152602001908152602001600020600084815260200190815260200160002060009054906101000a900460ff161515141561103d576040517f08c379a000000000000000000000000000000000000000000000000000000000815260040161103490613ddb565b60405180910390fd5b60058311611080576040517f08c379a000000000000000000000000000000000000000000000000000000000815260040161107790613c9b565b60405180910390fd5b600582116110c3576040517f08c379a00000000000000000000000000000000000000000000000000000000081526004016110ba90613c9b565b60405180910390fd5b6001600c6000858152602001908152602001600020600084815260200190815260200160002060006101000a81548160ff021916908315150217905550600061110c600a612d6e565b9050600060058561111d919061425c565b90505b60058561112d919061400a565b8111611b6c576000600585611142919061425c565b90505b600585611152919061400a565b8111611b58576112b8600d60008481526020019081526020016000206000838152602001908152602001600020600101805461118d90614379565b80601f01602080910402602001604051908101604052809291908181526020018280546111b990614379565b80156112065780601f106111db57610100808354040283529160200191611206565b820191906000526020600020905b8154815290600101906020018083116111e957829003601f168201915b5050505050600a6000815481106112205761121f6144f7565b5b90600052602060002001805461123590614379565b80601f016020809104026020016040519081016040528092919081815260200182805461126190614379565b80156112ae5780601f10611283576101008083540402835291602001916112ae565b820191906000526020600020905b81548152906001019060200180831161129157829003601f168201915b5050505050612db0565b156119945760098311156117025760006002876112d5919061425c565b90505b6002876112e5919061400a565b83116116fc5760006002876112fa919061425c565b90505b60028761130a919061400a565b81116116e857611470600d60008481526020019081526020016000206000838152602001908152602001600020600101805461134590614379565b80601f016020809104026020016040519081016040528092919081815260200182805461137190614379565b80156113be5780601f10611393576101008083540402835291602001916113be565b820191906000526020600020905b8154815290600101906020018083116113a157829003601f168201915b5050505050600a6001815481106113d8576113d76144f7565b5b9060005260206000200180546113ed90614379565b80601f016020809104026020016040519081016040528092919081815260200182805461141990614379565b80156114665780601f1061143b57610100808354040283529160200191611466565b820191906000526020600020905b81548152906001019060200180831161144957829003601f168201915b5050505050612db0565b1561147a576116d5565b611532888888600a600181548110611495576114946144f7565b5b9060005260206000200180546114aa90614379565b80601f01602080910402602001604051908101604052809291908181526020018280546114d690614379565b80156115235780601f106114f857610100808354040283529160200191611523565b820191906000526020600020905b81548152906001019060200180831161150657829003601f168201915b5050505050600080600161244b565b6000600260009054906101000a900473ffffffffffffffffffffffffffffffffffffffff1673ffffffffffffffffffffffffffffffffffffffff1663ea2b21808a8a6040518363ffffffff1660e01b8152600401611591929190613e16565b60206040518083038186803b1580156115a957600080fd5b505afa1580156115bd573d6000803e3d6000fd5b505050506040513d601f19601f820116820180604052508101906115e19190613428565b9050600260009054906101000a900473ffffffffffffffffffffffffffffffffffffffff1673ffffffffffffffffffffffffffffffffffffffff1663a361d341828b8b6040518463ffffffff1660e01b815260040161164293929190613e92565b600060405180830381600087803b15801561165c57600080fd5b505af1158015611670573d6000803e3d6000fd5b505050507f6238a8a327eaf987aaf695bba62cb20918d657323c3b4f7e7434a55c0ac92fe08989600a6001815481106116ac576116ab6144f7565b5b906000526020600020018a6040516116c79493929190613e3f565b60405180910390a1506116e8565b80806116e0906143dc565b9150506112fd565b5080806116f4906143dc565b9150506112d8565b5061198f565b600383101561198e5761186b600d60008481526020019081526020016000206000838152602001908152602001600020600101805461174090614379565b80601f016020809104026020016040519081016040528092919081815260200182805461176c90614379565b80156117b95780601f1061178e576101008083540402835291602001916117b9565b820191906000526020600020905b81548152906001019060200180831161179c57829003601f168201915b5050505050600a6003815481106117d3576117d26144f7565b5b9060005260206000200180546117e890614379565b80601f016020809104026020016040519081016040528092919081815260200182805461181490614379565b80156118615780601f1061183657610100808354040283529160200191611861565b820191906000526020600020905b81548152906001019060200180831161184457829003601f168201915b5050505050612db0565b156118755761198d565b61192d868686600a6003815481106118905761188f6144f7565b5b9060005260206000200180546118a590614379565b80601f01602080910402602001604051908101604052809291908181526020018280546118d190614379565b801561191e5780601f106118f35761010080835404028352916020019161191e565b820191906000526020600020905b81548152906001019060200180831161190157829003601f168201915b5050505050600180600161244b565b7f6238a8a327eaf987aaf695bba62cb20918d657323c3b4f7e7434a55c0ac92fe08686600a600381548110611965576119646144f7565b5b90600052602060002001876040516119809493929190613e3f565b60405180910390a1611b58565b5b5b611b45565b6005831115611b4457611a55868686600a6000815481106119b8576119b76144f7565b5b9060005260206000200180546119cd90614379565b80601f01602080910402602001604051908101604052809291908181526020018280546119f990614379565b8015611a465780601f10611a1b57610100808354040283529160200191611a46565b820191906000526020600020905b815481529060010190602001808311611a2957829003601f168201915b5050505050600080600161244b565b600260009054906101000a900473ffffffffffffffffffffffffffffffffffffffff1673ffffffffffffffffffffffffffffffffffffffff16636a611d6c87876040518363ffffffff1660e01b8152600401611ab2929190613e16565b600060405180830381600087803b158015611acc57600080fd5b505af1158015611ae0573d6000803e3d6000fd5b505050507f6238a8a327eaf987aaf695bba62cb20918d657323c3b4f7e7434a55c0ac92fe08686600a600081548110611b1c57611b1b6144f7565b5b9060005260206000200187604051611b379493929190613e3f565b60405180910390a1611b58565b5b8080611b50906143dc565b915050611145565b508080611b64906143dc565b915050611120565b5050505050565b604051806040016040528083815260200182815250600e60008573ffffffffffffffffffffffffffffffffffffffff1673ffffffffffffffffffffffffffffffffffffffff168152602001908152602001600020906002611bd5929190613018565b50505050565b60011515600f60008373ffffffffffffffffffffffffffffffffffffffff1673ffffffffffffffffffffffffffffffffffffffff16815260200190815260200160002060009054906101000a900460ff1615151415611c6f576040517f08c379a0000000000000000000000000000000000000000000000000000000008152600401611c6690613d1b565b60405180910390fd5b6001600f60008373ffffffffffffffffffffffffffffffffffffffff1673ffffffffffffffffffffffffffffffffffffffff16815260200190815260200160002060006101000a81548160ff0219169083151502179055506040518060400160405280600060ff168152602001600060ff16815250600e60008373ffffffffffffffffffffffffffffffffffffffff1673ffffffffffffffffffffffffffffffffffffffff168152602001908152602001600020906002611d31929190613065565b5060066000815480929190611d45906143dc565b91905055506005819080600181540180825580915050600190039060005260206000200160009091909190916101000a81548173ffffffffffffffffffffffffffffffffffffffff021916908373ffffffffffffffffffffffffffffffffffffffff16021790555050565b600080600e60008673ffffffffffffffffffffffffffffffffffffffff1673ffffffffffffffffffffffffffffffffffffffff168152602001908152602001600020600081548110611e0557611e046144f7565b5b906000526020600020015490506000600e60008773ffffffffffffffffffffffffffffffffffffffff1673ffffffffffffffffffffffffffffffffffffffff168152602001908152602001600020600181548110611e6657611e656144f7565b5b90600052602060002001549050611e7f82828787612e1a565b5050509392505050565b611e91612d66565b73ffffffffffffffffffffffffffffffffffffffff16611eaf6125c8565b73ffffffffffffffffffffffffffffffffffffffff1614611f05576040517f08c379a0000000000000000000000000000000000000000000000000000000008152600401611efc90613d7b565b60405180910390fd5b60005b8151811015612042576000151560016000848481518110611f2c57611f2b6144f7565b5b602002602001015173ffffffffffffffffffffffffffffffffffffffff1673ffffffffffffffffffffffffffffffffffffffff16815260200190815260200160002060009054906101000a900460ff16151514611fbe576040517f08c379a0000000000000000000000000000000000000000000000000000000008152600401611fb590613cdb565b60405180910390fd5b6001806000848481518110611fd657611fd56144f7565b5b602002602001015173ffffffffffffffffffffffffffffffffffffffff1673ffffffffffffffffffffffffffffffffffffffff16815260200190815260200160002060006101000a81548160ff021916908315150217905550808061203a906143dc565b915050611f08565b5050565b600360009054906101000a900473ffffffffffffffffffffffffffffffffffffffff1681565b612074612d66565b73ffffffffffffffffffffffffffffffffffffffff166120926125c8565b73ffffffffffffffffffffffffffffffffffffffff16146120e8576040517f08c379a00000000000000000000000000000000000000000000000000000000081526004016120df90613d7b565b60405180910390fd5b8060078190555050565b6120fa612d66565b73ffffffffffffffffffffffffffffffffffffffff166121186125c8565b73ffffffffffffffffffffffffffffffffffffffff161461216e576040517f08c379a000000000000000000000000000000000000000000000000000000000815260040161216590613d7b565b60405180910390fd5b60011515600160008373ffffffffffffffffffffffffffffffffffffffff1673ffffffffffffffffffffffffffffffffffffffff16815260200190815260200160002060009054906101000a900460ff16151514612201576040517f08c379a00000000000000000000000000000000000000000000000000000000081526004016121f890613d3b565b60405180910390fd5b6000600160008373ffffffffffffffffffffffffffffffffffffffff1673ffffffffffffffffffffffffffffffffffffffff16815260200190815260200160002060006101000a81548160ff02191690831515021790555050565b612264612d66565b73ffffffffffffffffffffffffffffffffffffffff166122826125c8565b73ffffffffffffffffffffffffffffffffffffffff16146122d8576040517f08c379a00000000000000000000000000000000000000000000000000000000081526004016122cf90613d7b565b60405180910390fd5b6122e26000612ea5565b565b600a81815481106122f457600080fd5b90600052602060002001600091509050805461230f90614379565b80601f016020809104026020016040519081016040528092919081815260200182805461233b90614379565b80156123885780601f1061235d57610100808354040283529160200191612388565b820191906000526020600020905b81548152906001019060200180831161236b57829003601f168201915b505050505081565b612398612d66565b73ffffffffffffffffffffffffffffffffffffffff166123b66125c8565b73ffffffffffffffffffffffffffffffffffffffff161461240c576040517f08c379a000000000000000000000000000000000000000000000000000000000815260040161240390613d7b565b60405180910390fd5b600a819080600181540180825580915050600190039060005260206000200160009091909190915090805190602001906124479291906130b7565b5050565b6040518060a0016040528086815260200185815260200184151581526020018315158152602001821515815250600d6000898152602001908152602001600020600088815260200190815260200160002060008201518160000190805190602001906124b89291906130b7565b5060208201518160010190805190602001906124d59291906130b7565b5060408201518160020160006101000a81548160ff02191690831515021790555060608201518160020160016101000a81548160ff02191690831515021790555060808201518160020160026101000a81548160ff02191690831515021790555090505050505050505050565b61254a612d66565b73ffffffffffffffffffffffffffffffffffffffff166125686125c8565b73ffffffffffffffffffffffffffffffffffffffff16146125be576040517f08c379a00000000000000000000000000000000000000000000000000000000081526004016125b590613d7b565b60405180910390fd5b8060098190555050565b60008060009054906101000a900473ffffffffffffffffffffffffffffffffffffffff16905090565b600d6020528160005260406000206020528060005260406000206000915091505080600001805461262190614379565b80601f016020809104026020016040519081016040528092919081815260200182805461264d90614379565b801561269a5780601f1061266f5761010080835404028352916020019161269a565b820191906000526020600020905b81548152906001019060200180831161267d57829003601f168201915b5050505050908060010180546126af90614379565b80601f01602080910402602001604051908101604052809291908181526020018280546126db90614379565b80156127285780601f106126fd57610100808354040283529160200191612728565b820191906000526020600020905b81548152906001019060200180831161270b57829003601f168201915b5050505050908060020160009054906101000a900460ff16908060020160019054906101000a900460ff16908060020160029054906101000a900460ff16905085565b60045481565b600060011515600160008473ffffffffffffffffffffffffffffffffffffffff1673ffffffffffffffffffffffffffffffffffffffff16815260200190815260200160002060009054906101000a900460ff161515146127d25760006127d5565b60015b9050919050565b6127e4612d66565b73ffffffffffffffffffffffffffffffffffffffff166128026125c8565b73ffffffffffffffffffffffffffffffffffffffff1614612858576040517f08c379a000000000000000000000000000000000000000000000000000000000815260040161284f90613d7b565b60405180910390fd5b80600b60006101000a81548160ff02191690831515021790555050565b600b60009054906101000a900460ff1681565b6060600060058054905067ffffffffffffffff8111156128ab576128aa614526565b5b6040519080825280602002602001820160405280156128d95781602001602082028036833780820191505090505b509050600080600090505b60016005805490506128f6919061425c565b811015612af25785600e600060058481548110612916576129156144f7565b5b9060005260206000200160009054906101000a900473ffffffffffffffffffffffffffffffffffffffff1673ffffffffffffffffffffffffffffffffffffffff1673ffffffffffffffffffffffffffffffffffffffff16815260200190815260200160002060008154811061298e5761298d6144f7565b5b9060005260206000200154148015612a3f575084600e6000600584815481106129ba576129b96144f7565b5b9060005260206000200160009054906101000a900473ffffffffffffffffffffffffffffffffffffffff1673ffffffffffffffffffffffffffffffffffffffff1673ffffffffffffffffffffffffffffffffffffffff168152602001908152602001600020600181548110612a3257612a316144f7565b5b9060005260206000200154145b15612adf5760058181548110612a5857612a576144f7565b5b9060005260206000200160009054906101000a900473ffffffffffffffffffffffffffffffffffffffff16838381518110612a9657612a956144f7565b5b602002602001019073ffffffffffffffffffffffffffffffffffffffff16908173ffffffffffffffffffffffffffffffffffffffff16815250508180612adb906143dc565b9250505b8080612aea906143dc565b9150506128e4565b50819250505092915050565b60058181548110612b0e57600080fd5b906000526020600020016000915054906101000a900473ffffffffffffffffffffffffffffffffffffffff1681565b600260009054906101000a900473ffffffffffffffffffffffffffffffffffffffff1681565b600080600e60008473ffffffffffffffffffffffffffffffffffffffff1673ffffffffffffffffffffffffffffffffffffffff168152602001908152602001600020600081548110612bb857612bb76144f7565b5b9060005260206000200154600e60008573ffffffffffffffffffffffffffffffffffffffff1673ffffffffffffffffffffffffffffffffffffffff168152602001908152602001600020600181548110612c1557612c146144f7565b5b906000526020600020015491509150915091565b6000600d6000848152602001908152602001600020600083815260200190815260200160002060020160019054906101000a900460ff16905092915050565b612c70612d66565b73ffffffffffffffffffffffffffffffffffffffff16612c8e6125c8565b73ffffffffffffffffffffffffffffffffffffffff1614612ce4576040517f08c379a0000000000000000000000000000000000000000000000000000000008152600401612cdb90613d7b565b60405180910390fd5b600073ffffffffffffffffffffffffffffffffffffffff168173ffffffffffffffffffffffffffffffffffffffff161415612d54576040517f08c379a0000000000000000000000000000000000000000000000000000000008152600401612d4b90613cfb565b60405180910390fd5b612d5d81612ea5565b50565b60075481565b600033905090565b60008142601440604051602001612d86929190613b13565b6040516020818303038152906040528051906020012060001c612da99190614439565b9050919050565b600081604051602001612dc39190613afc565b6040516020818303038152906040528051906020012083604051602001612dea9190613afc565b604051602081830303815290604052805190602001201415612e0f5760019050612e14565b600090505b92915050565b600080838611612e35578584612e30919061425c565b612e42565b8386612e41919061425c565b5b90506000838611612e5e578584612e59919061425c565b612e6b565b8386612e6a919061425c565b5b9050612e99600282612e7d91906140e4565b600284612e8a91906140e4565b612e94919061400a565b612f69565b92505050949350505050565b60008060009054906101000a900473ffffffffffffffffffffffffffffffffffffffff169050816000806101000a81548173ffffffffffffffffffffffffffffffffffffffff021916908373ffffffffffffffffffffffffffffffffffffffff1602179055508173ffffffffffffffffffffffffffffffffffffffff168173ffffffffffffffffffffffffffffffffffffffff167f8be0079c531659141344cd1fd0a4f28419497f9722a3daafe3b4186f6b6457e060405160405180910390a35050565b60006003821115612fd05781905060006001600284612f889190614060565b612f92919061400a565b90505b81811015612fca578091506002818285612faf9190614060565b612fb9919061400a565b612fc39190614060565b9050612f95565b50612fde565b60008214612fdd57600190505b5b919050565b6040518060a0016040528060608152602001606081526020016000151581526020016000151581526020016000151581525090565b828054828255906000526020600020908101928215613054579160200282015b82811115613053578251825591602001919060010190613038565b5b509050613061919061313d565b5090565b8280548282559060005260206000209081019282156130a6579160200282015b828111156130a5578251829060ff16905591602001919060010190613085565b5b5090506130b3919061313d565b5090565b8280546130c390614379565b90600052602060002090601f0160209004810192826130e5576000855561312c565b82601f106130fe57805160ff191683800117855561312c565b8280016001018555821561312c579182015b8281111561312b578251825591602001919060010190613110565b5b509050613139919061313d565b5090565b5b8082111561315657600081600090555060010161313e565b5090565b600061316d61316884613eee565b613ec9565b905080838252602082019050828560208602820111156131905761318f61455a565b5b60005b858110156131c057816131a6888261320c565b845260208401935060208301925050600181019050613193565b5050509392505050565b60006131dd6131d884613f1a565b613ec9565b9050828152602081018484840111156131f9576131f861455f565b5b613204848285614337565b509392505050565b60008135905061321b8161480d565b92915050565b600082601f83011261323657613235614555565b5b813561324684826020860161315a565b91505092915050565b60008135905061325e81614824565b92915050565b600082601f83011261327957613278614555565b5b81356132898482602086016131ca565b91505092915050565b6000813590506132a18161483b565b92915050565b6000815190506132b68161483b565b92915050565b6000602082840312156132d2576132d1614569565b5b60006132e08482850161320c565b91505092915050565b60008060006060848603121561330257613301614569565b5b60006133108682870161320c565b935050602061332186828701613292565b925050604061333286828701613292565b9150509250925092565b60006020828403121561335257613351614569565b5b600082013567ffffffffffffffff8111156133705761336f614564565b5b61337c84828501613221565b91505092915050565b60006020828403121561339b5761339a614569565b5b60006133a98482850161324f565b91505092915050565b6000602082840312156133c8576133c7614569565b5b600082013567ffffffffffffffff8111156133e6576133e5614564565b5b6133f284828501613264565b91505092915050565b60006020828403121561341157613410614569565b5b600061341f84828501613292565b91505092915050565b60006020828403121561343e5761343d614569565b5b600061344c848285016132a7565b91505092915050565b6000806040838503121561346c5761346b614569565b5b600061347a85828601613292565b925050602061348b85828601613292565b9150509250929050565b6000806000606084860312156134ae576134ad614569565b5b60006134bc86828701613292565b93505060206134cd86828701613292565b925050604084013567ffffffffffffffff8111156134ee576134ed614564565b5b6134fa86828701613264565b9150509250925092565b600080600080600080600060e0888a03121561352357613522614569565b5b60006135318a828b01613292565b97505060206135428a828b01613292565b965050604088013567ffffffffffffffff81111561356357613562614564565b5b61356f8a828b01613264565b955050606088013567ffffffffffffffff8111156135905761358f614564565b5b61359c8a828b01613264565b94505060806135ad8a828b0161324f565b93505060a06135be8a828b0161324f565b92505060c06135cf8a828b0161324f565b91505092959891949750929550565b600080600080608085870312156135f8576135f7614569565b5b600061360687828801613292565b945050602061361787828801613292565b935050604061362887828801613292565b925050606061363987828801613292565b91505092959194509250565b60006136518383613671565b60208301905092915050565b60006136698383613a59565b905092915050565b61367a81614290565b82525050565b61368981614290565b82525050565b600061369a82613f80565b6136a48185613fbb565b93506136af83613f4b565b8060005b838110156136e05781516136c78882613645565b97506136d283613fa1565b9250506001810190506136b3565b5085935050505092915050565b60006136f882613f8b565b6137028185613fcc565b93508360208202850161371485613f5b565b8060005b858110156137505784840389528151613731858261365d565b945061373c83613fae565b925060208a01995050600181019050613718565b50829750879550505050505092915050565b61376b816142a2565b82525050565b61377a816142a2565b82525050565b61379161378c826142ae565b614425565b82525050565b6137a0816142ef565b82525050565b6137af81614301565b82525050565b60006137c082613f96565b6137ca8185613fdd565b93506137da818560208601614346565b6137e38161456e565b840191505092915050565b60006137f982613f96565b6138038185613fee565b9350613813818560208601614346565b61381c8161456e565b840191505092915050565b600061383282613f96565b61383c8185613fff565b935061384c818560208601614346565b80840191505092915050565b6000815461386581614379565b61386f8186613fee565b9450600182166000811461388a576001811461389c576138cf565b60ff19831686526020860193506138cf565b6138a585613f6b565b60005b838110156138c7578154818901526001820191506020810190506138a8565b808801955050505b50505092915050565b60006138e5602183613fee565b91506138f08261458c565b604082019050919050565b6000613908601c83613fee565b9150613913826145db565b602082019050919050565b600061392b602483613fee565b915061393682614604565b604082019050919050565b600061394e602683613fee565b915061395982614653565b604082019050919050565b6000613971602183613fee565b915061397c826146a2565b604082019050919050565b6000613994602083613fee565b915061399f826146f1565b602082019050919050565b60006139b7601a83613fee565b91506139c28261471a565b602082019050919050565b60006139da602083613fee565b91506139e582614743565b602082019050919050565b60006139fd601a83613fee565b9150613a088261476c565b602082019050919050565b6000613a20602183613fee565b9150613a2b82614795565b604082019050919050565b6000613a43601f83613fee565b9150613a4e826147e4565b602082019050919050565b600060a0830160008301518482036000860152613a7682826137b5565b91505060208301518482036020860152613a9082826137b5565b9150506040830151613aa56040860182613762565b506060830151613ab86060860182613762565b506080830151613acb6080860182613762565b508091505092915050565b613adf816142d8565b82525050565b613af6613af1826142d8565b61442f565b82525050565b6000613b088284613827565b915081905092915050565b6000613b1f8285613ae5565b602082019150613b2f8284613780565b6020820191508190509392505050565b6000602082019050613b546000830184613680565b92915050565b6000604082019050613b6f6000830185613680565b613b7c6020830184613ad6565b9392505050565b60006020820190508181036000830152613b9d818461368f565b905092915050565b60006020820190508181036000830152613bbf81846136ed565b905092915050565b6000602082019050613bdc6000830184613771565b92915050565b6000602082019050613bf76000830184613797565b92915050565b6000602082019050613c1260008301846137a6565b92915050565b60006020820190508181036000830152613c3281846137ee565b905092915050565b600060a0820190508181036000830152613c5481886137ee565b90508181036020830152613c6881876137ee565b9050613c776040830186613771565b613c846060830185613771565b613c916080830184613771565b9695505050505050565b60006020820190508181036000830152613cb4816138d8565b9050919050565b60006020820190508181036000830152613cd4816138fb565b9050919050565b60006020820190508181036000830152613cf48161391e565b9050919050565b60006020820190508181036000830152613d1481613941565b9050919050565b60006020820190508181036000830152613d3481613964565b9050919050565b60006020820190508181036000830152613d5481613987565b9050919050565b60006020820190508181036000830152613d74816139aa565b9050919050565b60006020820190508181036000830152613d94816139cd565b9050919050565b60006020820190508181036000830152613db4816139f0565b9050919050565b60006020820190508181036000830152613dd481613a13565b9050919050565b60006020820190508181036000830152613df481613a36565b9050919050565b6000602082019050613e106000830184613ad6565b92915050565b6000604082019050613e2b6000830185613ad6565b613e386020830184613ad6565b9392505050565b6000608082019050613e546000830187613ad6565b613e616020830186613ad6565b8181036040830152613e738185613858565b90508181036060830152613e8781846137ee565b905095945050505050565b6000606082019050613ea76000830186613ad6565b613eb46020830185613ad6565b613ec16040830184613ad6565b949350505050565b6000613ed3613ee4565b9050613edf82826143ab565b919050565b6000604051905090565b600067ffffffffffffffff821115613f0957613f08614526565b5b602082029050602081019050919050565b600067ffffffffffffffff821115613f3557613f34614526565b5b613f3e8261456e565b9050602081019050919050565b6000819050602082019050919050565b6000819050602082019050919050565b60008190508160005260206000209050919050565b600081519050919050565b600081519050919050565b600081519050919050565b6000602082019050919050565b6000602082019050919050565b600082825260208201905092915050565b600082825260208201905092915050565b600082825260208201905092915050565b600082825260208201905092915050565b600081905092915050565b6000614015826142d8565b9150614020836142d8565b9250827fffffffffffffffffffffffffffffffffffffffffffffffffffffffffffffffff038211156140555761405461446a565b5b828201905092915050565b600061406b826142d8565b9150614076836142d8565b92508261408657614085614499565b5b828204905092915050565b6000808291508390505b60018511156140db578086048111156140b7576140b661446a565b5b60018516156140c65780820291505b80810290506140d48561457f565b945061409b565b94509492505050565b60006140ef826142d8565b91506140fa836142e2565b92506141277fffffffffffffffffffffffffffffffffffffffffffffffffffffffffffffffff848461412f565b905092915050565b60008261413f57600190506141fb565b8161414d57600090506141fb565b8160018114614163576002811461416d5761419c565b60019150506141fb565b60ff84111561417f5761417e61446a565b5b8360020a9150848211156141965761419561446a565b5b506141fb565b5060208310610133831016604e8410600b84101617156141d15782820a9050838111156141cc576141cb61446a565b5b6141fb565b6141de8484846001614091565b925090508184048111156141f5576141f461446a565b5b81810290505b9392505050565b600061420d826142d8565b9150614218836142d8565b9250817fffffffffffffffffffffffffffffffffffffffffffffffffffffffffffffffff04831182151516156142515761425061446a565b5b828202905092915050565b6000614267826142d8565b9150614272836142d8565b9250828210156142855761428461446a565b5b828203905092915050565b600061429b826142b8565b9050919050565b60008115159050919050565b6000819050919050565b600073ffffffffffffffffffffffffffffffffffffffff82169050919050565b6000819050919050565b600060ff82169050919050565b60006142fa82614313565b9050919050565b600061430c82614313565b9050919050565b600061431e82614325565b9050919050565b6000614330826142b8565b9050919050565b82818337600083830152505050565b60005b83811015614364578082015181840152602081019050614349565b83811115614373576000848401525b50505050565b6000600282049050600182168061439157607f821691505b602082108114156143a5576143a46144c8565b5b50919050565b6143b48261456e565b810181811067ffffffffffffffff821117156143d3576143d2614526565b5b80604052505050565b60006143e7826142d8565b91507fffffffffffffffffffffffffffffffffffffffffffffffffffffffffffffffff82141561441a5761441961446a565b5b600182019050919050565b6000819050919050565b6000819050919050565b6000614444826142d8565b915061444f836142d8565b92508261445f5761445e614499565b5b828206905092915050565b7f4e487b7100000000000000000000000000000000000000000000000000000000600052601160045260246000fd5b7f4e487b7100000000000000000000000000000000000000000000000000000000600052601260045260246000fd5b7f4e487b7100000000000000000000000000000000000000000000000000000000600052602260045260246000fd5b7f4e487b7100000000000000000000000000000000000000000000000000000000600052603260045260246000fd5b7f4e487b7100000000000000000000000000000000000000000000000000000000600052604160045260246000fd5b600080fd5b600080fd5b600080fd5b600080fd5b600080fd5b6000601f19601f8301169050919050565b60008160011c9050919050565b7f4d4150533a2063616e6e6f74206578706c6f726520696e20746869732061726560008201527f6100000000000000000000000000000000000000000000000000000000000000602082015250565b7f4d4150533a2063616e6e6f742074726176656c20746861742066617200000000600082015250565b7f445259444f434b3a204164647265737320697320616c7265616479206120656460008201527f69746f7200000000000000000000000000000000000000000000000000000000602082015250565b7f4f776e61626c653a206e6577206f776e657220697320746865207a65726f206160008201527f6464726573730000000000000000000000000000000000000000000000000000602082015250565b7f4d41503a20506c6179657220697320616c72656164792072656769737465726560008201527f6400000000000000000000000000000000000000000000000000000000000000602082015250565b7f445259444f434b3a2041646472657373206973206e6f74206120656469746f72600082015250565b7f4d41503a20546f6f206d756368206461746120696e206c6f6f70000000000000600082015250565b7f4f776e61626c653a2063616c6c6572206973206e6f7420746865206f776e6572600082015250565b7f4d4150533a204578706c6f72696e67206e6f7420616374697665000000000000600082015250565b7f4d4150533a204a756d70206472697665207374696c6c2072656368617267696e60008201527f6700000000000000000000000000000000000000000000000000000000000000602082015250565b7f4d4150533a206c6f636169746f6e20616c7265616479206578706c6f72656400600082015250565b61481681614290565b811461482157600080fd5b50565b61482d816142a2565b811461483857600080fd5b50565b614844816142d8565b811461484f57600080fd5b5056fea264697066735822122013e5224db7ea9dd0399634341847edf4c2fe031be9b5d60a30b5d9dd0f556ae964736f6c63430008070033",
  "immutableReferences": {},
  "source": "// SPDX-License-Identifier: MIT\r\n\r\npragma solidity ^0.8.7;\r\n\r\nimport \"./libs/Editor.sol\";\r\nimport \"./libs/Helper.sol\";\r\nimport \"./interfaces/ITreasury.sol\";\r\nimport \"./interfaces/IPlaceManager.sol\";\r\n\r\ncontract Map is Editor {\r\n\r\n    constructor (\r\n        ITreasury _treasury\r\n    ) {\r\n        Treasury = _treasury;\r\n        maxTravel = 3;\r\n        cooldownMod = 600;\r\n        placeTypes.push(\"Star\");\r\n        placeTypes.push(\"Jackpot\");\r\n        placeTypes.push(\"Shipyard\");\r\n    }\r\n\r\n    IPlaceManager public PlaceManager;\r\n    ITreasury public Treasury;\r\n    uint public travelCost = 10**16; // NOVA cost to travel 1 distance\r\n    address[] public playerList;\r\n    uint public playerCount;\r\n    uint public maxTravel; // max distance a player can travel at once\r\n    mapping (address => uint) travelCooldown; // limits how often players can travel\r\n    uint public cooldownMod; // travelCooldown = block.timestamp + (distance * cooldownMod(in seconds))\r\n    // Defaults: 0 = star, 1 = jackpot, 2 = shipyard\r\n    string[] public placeTypes; // list of placeTypes\r\n\r\n    bool public explorationOn; // \r\n    mapping(uint => mapping (uint => bool)) isExplored; // determines if coordinates were explored\r\n    // Coordinates return the place\r\n    mapping (uint => mapping(uint => Place)) public coordinatePlaces;\r\n    // Use inputs of address and 0 or 1 to return coords (0=x, 1=y)\r\n    mapping (address => uint[]) playerLocation; \r\n    // mapping so players can only set initial location once\r\n    mapping(address => bool) isPlayer;\r\n\r\n    struct Place {\r\n        string name;\r\n        string placeType;\r\n        bool isDmz;\r\n        bool isRefinery;\r\n        bool isActive;\r\n    }\r\n\r\n    event NewPlace (uint xcoord, uint ycoord, string placeType, string name);\r\n    event NoNewPlace (uint xcoord, uint ycoord, string message);\r\n\r\n    // struct PlaceType {\r\n    //     string handle;\r\n    //     address contractAddress;\r\n    //     bool isActive;\r\n    // }\r\n\r\n    // PlaceType[] placeTypes;\r\n\r\n    // function getPlaceType(string memory _handle) public view returns(PlaceType memory) {\r\n    //     for (uint i = 0; i < placeTypes.length; i++) {\r\n    //         if (Helper.isEqual(placeTypes[i].handle, _handle)) {\r\n    //             return placeTypes[i];\r\n    //         }\r\n    //     }\r\n    // }\r\n\r\n    // function addPlaceType(string memory _handle, address _contractAddress, bool _isActive) public {\r\n    //     placeTypes.push(PlaceType(_handle, _contractAddress, _isActive));\r\n        \r\n    // }\r\n    // Creates a place at specified coordinates with a place type\r\n    function setPlace(uint _x, uint _y, string  memory _name, string memory _placeType, bool _isDmz, bool _isRefinery, bool _isActive) public { \r\n        coordinatePlaces[_x][_y] = Place(_name, _placeType, _isDmz, _isRefinery, _isActive);\r\n    }\r\n    \r\n    /* get coordinatePlaces cannot handle a map box larger than 255 */\r\n    function getCoordinatePlaces(uint _lx, uint _ly, uint _rx, uint _ry) external view returns(Place[] memory) {\r\n        uint xDistance = (_rx - _lx) + 1;\r\n        uint yDistance = (_ry - _ly) + 1;\r\n        uint numCoordinates = xDistance * yDistance;\r\n        require( xDistance * yDistance < 256, \"MAP: Too much data in loop\");\r\n\r\n        Place[] memory foundCoordinatePlaces= new Place[]((numCoordinates));\r\n\r\n        uint counter = 0;\r\n        for(uint i=_lx; i<=_rx;i++) {\r\n            for(uint j=_ly; j<=_ry;j++) {\r\n                foundCoordinatePlaces[counter] = coordinatePlaces[i][j];\r\n                counter++;\r\n            }\r\n        }\r\n        return foundCoordinatePlaces;\r\n    }\r\n\r\n    function getPlace(uint _x, uint _y) external view returns (\r\n        string memory name,\r\n        string memory placeType,\r\n        bool isDmz,\r\n        bool isRefinery,\r\n        bool isActive\r\n    ) {\r\n        return (coordinatePlaces[_x][_y].name,\r\n        coordinatePlaces[_x][_y].placeType,\r\n        coordinatePlaces[_x][_y].isDmz,\r\n        coordinatePlaces[_x][_y].isRefinery,\r\n        coordinatePlaces[_x][_y].isActive);\r\n    }\r\n\r\n    function isRefinery(uint _x, uint _y) external view returns(bool) {\r\n        return coordinatePlaces[_x][_y].isRefinery;\r\n    }\r\n\r\n    // Sets initial player location, adds to player list, adds to player count\r\n    // needs to be linked to some setup funciton\r\n    function setInitialLocation(address _sender) external {\r\n        require(isPlayer[_sender] != true, \"MAP: Player is already registered\");\r\n        isPlayer[_sender] = true;\r\n        playerLocation[_sender] = [0, 0];\r\n        playerCount++;\r\n        playerList.push(_sender);\r\n    }\r\n    // Needs to be set to internal and controlled by travel function\r\n    function _setPlayerLocation (address _player, uint _x, uint _y) public {\r\n        playerLocation[_player] = [_x, _y];\r\n    }\r\n\r\n    // Returns both x and y coordinates\r\n    function getPlayerLocation (address _player) public view returns(uint x, uint y) {\r\n        return (playerLocation[_player][0], playerLocation[_player][1]);\r\n    }\r\n\r\n    // Will this function cause errors when a place has hundreds of players?\r\n    function getPlayersAtLocation (uint _x, uint _y) public view returns(address[] memory) {\r\n       address[] memory players = new address[](playerList.length);\r\n       uint counter;\r\n       for (uint i = 0; i < playerList.length - 1; i++) {\r\n           if (playerLocation[playerList[i]][0] == _x && playerLocation[playerList[i]][1] == _y) {\r\n               players[counter] = playerList[i];\r\n               counter++;\r\n           }\r\n       }\r\n       return players;\r\n    }\r\n\r\n    // Travel function, needs size modifier & restriciton on travel distance\r\n    function travel( uint _x, uint _y) external {\r\n        address _sender = msg.sender;\r\n        uint _distance = getDistanceFromPlayer(_sender, _x, _y);\r\n        require(block.timestamp >= travelCooldown[_sender], \"MAPS: Jump drive still recharging\");\r\n        require(_distance <= maxTravel, \"MAPS: cannot travel that far\");\r\n        travelCooldown[_sender] = block.timestamp + (_distance*cooldownMod);\r\n        uint _amount = _distance * travelCost *Treasury.getCostMod();\r\n        Treasury.pay(_sender, _amount);\r\n        _setPlayerLocation(_sender, _x, _y);\r\n    }\r\n\r\n    function getDistanceFromPlayer (address _player, uint _x, uint _y) public view returns(uint) {\r\n        uint oldX = playerLocation[_player][0];\r\n        uint oldY = playerLocation[_player][1];\r\n        Helper.getDistance(oldX, oldY, _x, _y);\r\n    }\r\n\r\n    // Setting to 0 disables travel\r\n    function setMaxTravel(uint _new) external onlyOwner {\r\n        maxTravel = _new;\r\n    }    \r\n\r\n    // Setting to 0 removes the cooldown period\r\n    function setCooldownMod(uint _new) external onlyOwner {\r\n        cooldownMod = _new;\r\n    }\r\n\r\n    // add renaming function, initial is type+coords (create concat helper), cooldown for renaming\r\n    // Exploration functions\r\n    // Players can explore uncharted coordinates and possibly find new places\r\n    // Current options include a star or jackpot\r\n    // Stars and shipyards cannot be within 5 coordinate points, jackpots 2\r\n    function explore(uint _x, uint _y, string memory _name) external {\r\n        require(explorationOn == true, \"MAPS: Exploring not active\");\r\n        require(isExplored[_x][_y] != true, \"MAPS: locaiton already explored\");\r\n        // Do not let exploration happen in newbie area\r\n        require(_x > 5, \"MAPS: cannot explore in this area\");\r\n        require(_y > 5, \"MAPS: cannot explore in this area\");\r\n        isExplored[_x][_y] = true;\r\n        // explore NOVA cost\r\n        uint _rand1 = Helper.createRandomNumber(10);\r\n        // need to fix to not emit \"nonewplace\" for all loop iterations\r\n        // loop to look for other stars\r\n         for(uint i=_x-5; i<=_x+5;i++) {\r\n             for(uint j=_y-5; j<=_y+5;j++) {\r\n                 // checks if any placetypes returned are a star type\r\n                 if (Helper.isEqual(coordinatePlaces[i][j].placeType, placeTypes[0])) { // change to while loop?\r\n                     \r\n                     // if there is a star\r\n                     // check to see if a jackpot planet can be made\r\n                     if (_rand1 > 9) { // 10% chance of creating jackpot planet\r\n                        for(uint k=_x-2; i<=_x+2;k++) {\r\n                            for(uint l=_y-2; l<=_y+2;l++) {\r\n                                if (Helper.isEqual(coordinatePlaces[k][l].placeType, placeTypes[1])) {\r\n                                    // do nothing\r\n                                } else {\r\n                                    setPlace(_x, _y, _name, placeTypes[1], false, false, true);\r\n                                    uint _starId = PlaceManager.getStarId(_x, _y);\r\n                                    PlaceManager.createJackpot(_starId, _x, _y);\r\n                                    emit NewPlace(_x, _y, placeTypes[1], _name);\r\n                                    break;\r\n                                }\r\n                            }\r\n                        }\r\n                     } \r\n                     // if a jackpot planet is not made, check if a shipyard can be made\r\n                     else if (_rand1 <3) { // 20% chance of creating shipyard planet\r\n                         if (Helper.isEqual(coordinatePlaces[i][j].placeType, placeTypes[3])) {\r\n                            // do nothing\r\n\r\n                         } else {\r\n                             setPlace(_x, _y, _name, placeTypes[3], true, true, true);\r\n                             // insert shipyard creation function\r\n                             emit NewPlace(_x, _y, placeTypes[3], _name);\r\n                             break;\r\n                         }\r\n                     }\r\n\r\n                // if there is not a star\r\n                 }  else if (_rand1 >5) {\r\n                         setPlace(_x, _y, _name, placeTypes[0], false, false, true);\r\n                         PlaceManager.createStar(_x, _y);\r\n                         emit NewPlace(_x, _y, placeTypes[0], _name);\r\n                         break;\r\n                 } else {\r\n                         // do nothing\r\n                 }\r\n                \r\n             }\r\n         }\r\n\r\n    }\r\n\r\n    function setExplorationOn (bool _isActive) external onlyOwner {\r\n        explorationOn = _isActive;\r\n    }\r\n\r\n    // currently no check for duplicates\r\n    function addPlaceType(string memory _name) external onlyOwner {\r\n        placeTypes.push(_name);\r\n    }\r\n\r\n    function setPlaceManager(address _new) external onlyOwner {\r\n        require(_new != address(0));\r\n        PlaceManager = IPlaceManager(_new);\r\n    }\r\n\r\n}\r\n",
  "sourcePath": "D:/Novaria/contracts/Map.sol",
  "compiler": {
    "name": "solc",
    "version": "0.8.7+commit.e28d00a7.Emscripten.clang"
  },
  "schemaVersion": "3.2.3",
  "updatedAt": "2022-01-12T16:18:54.447Z",
  "networkType": "ethereum",
  "devdoc": {
    "kind": "dev",
    "methods": {
      "owner()": {
        "details": "Returns the address of the current owner."
      },
      "renounceOwnership()": {
        "details": "Leaves the contract without owner. It will not be possible to call `onlyOwner` functions anymore. Can only be called by the current owner. NOTE: Renouncing ownership will leave the contract without an owner, thereby removing any functionality that is only available to the owner."
      },
      "transferOwnership(address)": {
        "details": "Transfers ownership of the contract to a new account (`newOwner`). Can only be called by the current owner."
      }
    },
    "version": 1
  },
  "userdoc": {
    "kind": "user",
    "methods": {},
    "version": 1
  }
}