{
  "contractName": "PlaceManager",
  "abi": [
    {
      "inputs": [
        {
          "internalType": "contract IMap",
          "name": "_map",
          "type": "address"
        },
        {
          "internalType": "contract ShibaBEP20",
          "name": "_nova",
          "type": "address"
        },
        {
          "internalType": "contract IShadowPool",
          "name": "_shadowPool",
          "type": "address"
        }
      ],
      "stateMutability": "nonpayable",
      "type": "constructor"
    },
    {
      "anonymous": false,
      "inputs": [
        {
          "indexed": false,
          "internalType": "address",
          "name": "_new",
          "type": "address"
        }
      ],
      "name": "NewFleet",
      "type": "event"
    },
    {
      "anonymous": false,
      "inputs": [
        {
          "indexed": false,
          "internalType": "uint256",
          "name": "_star",
          "type": "uint256"
        },
        {
          "indexed": false,
          "internalType": "uint256",
          "name": "_x",
          "type": "uint256"
        },
        {
          "indexed": false,
          "internalType": "uint256",
          "name": "_y",
          "type": "uint256"
        }
      ],
      "name": "NewJackpot",
      "type": "event"
    },
    {
      "anonymous": false,
      "inputs": [
        {
          "indexed": false,
          "internalType": "address",
          "name": "_new",
          "type": "address"
        }
      ],
      "name": "NewMap",
      "type": "event"
    },
    {
      "anonymous": false,
      "inputs": [
        {
          "indexed": false,
          "internalType": "address",
          "name": "_new",
          "type": "address"
        }
      ],
      "name": "NewNova",
      "type": "event"
    },
    {
      "anonymous": false,
      "inputs": [
        {
          "indexed": false,
          "internalType": "uint256",
          "name": "_new",
          "type": "uint256"
        }
      ],
      "name": "NewRewardsMod",
      "type": "event"
    },
    {
      "anonymous": false,
      "inputs": [
        {
          "indexed": false,
          "internalType": "address",
          "name": "_new",
          "type": "address"
        }
      ],
      "name": "NewShadowPool",
      "type": "event"
    },
    {
      "anonymous": false,
      "inputs": [
        {
          "indexed": false,
          "internalType": "uint256",
          "name": "_x",
          "type": "uint256"
        },
        {
          "indexed": false,
          "internalType": "uint256",
          "name": "_y",
          "type": "uint256"
        }
      ],
      "name": "NewStar",
      "type": "event"
    },
    {
      "anonymous": false,
      "inputs": [
        {
          "indexed": false,
          "internalType": "address",
          "name": "_player",
          "type": "address"
        },
        {
          "indexed": false,
          "internalType": "uint256",
          "name": "_amount",
          "type": "uint256"
        }
      ],
      "name": "NovaRefined",
      "type": "event"
    },
    {
      "anonymous": false,
      "inputs": [
        {
          "indexed": true,
          "internalType": "address",
          "name": "previousOwner",
          "type": "address"
        },
        {
          "indexed": true,
          "internalType": "address",
          "name": "newOwner",
          "type": "address"
        }
      ],
      "name": "OwnershipTransferred",
      "type": "event"
    },
    {
      "anonymous": false,
      "inputs": [
        {
          "indexed": false,
          "internalType": "address",
          "name": "_player",
          "type": "address"
        },
        {
          "indexed": false,
          "internalType": "uint256",
          "name": "_amount",
          "type": "uint256"
        }
      ],
      "name": "UNovaHarvested",
      "type": "event"
    },
    {
      "anonymous": false,
      "inputs": [
        {
          "indexed": false,
          "internalType": "address",
          "name": "_from",
          "type": "address"
        },
        {
          "indexed": false,
          "internalType": "address",
          "name": "_to",
          "type": "address"
        },
        {
          "indexed": false,
          "internalType": "uint256",
          "name": "_amount",
          "type": "uint256"
        }
      ],
      "name": "UNovaTransferred",
      "type": "event"
    },
    {
      "inputs": [],
      "name": "Fleet",
      "outputs": [
        {
          "internalType": "contract IFleet",
          "name": "",
          "type": "address"
        }
      ],
      "stateMutability": "view",
      "type": "function",
      "constant": true
    },
    {
      "inputs": [],
      "name": "Map",
      "outputs": [
        {
          "internalType": "contract IMap",
          "name": "",
          "type": "address"
        }
      ],
      "stateMutability": "view",
      "type": "function",
      "constant": true
    },
    {
      "inputs": [],
      "name": "Nova",
      "outputs": [
        {
          "internalType": "contract ShibaBEP20",
          "name": "",
          "type": "address"
        }
      ],
      "stateMutability": "view",
      "type": "function",
      "constant": true
    },
    {
      "inputs": [],
      "name": "ShadowPool",
      "outputs": [
        {
          "internalType": "contract IShadowPool",
          "name": "",
          "type": "address"
        }
      ],
      "stateMutability": "view",
      "type": "function",
      "constant": true
    },
    {
      "inputs": [
        {
          "internalType": "address",
          "name": "_editor",
          "type": "address"
        }
      ],
      "name": "deactivateEditor",
      "outputs": [],
      "stateMutability": "nonpayable",
      "type": "function"
    },
    {
      "inputs": [
        {
          "internalType": "address",
          "name": "",
          "type": "address"
        }
      ],
      "name": "editor",
      "outputs": [
        {
          "internalType": "bool",
          "name": "",
          "type": "bool"
        }
      ],
      "stateMutability": "view",
      "type": "function",
      "constant": true
    },
    {
      "inputs": [
        {
          "internalType": "address",
          "name": "_editor",
          "type": "address"
        }
      ],
      "name": "isEditor",
      "outputs": [
        {
          "internalType": "bool",
          "name": "",
          "type": "bool"
        }
      ],
      "stateMutability": "view",
      "type": "function",
      "constant": true
    },
    {
      "inputs": [
        {
          "internalType": "uint256",
          "name": "",
          "type": "uint256"
        }
      ],
      "name": "jackpotTotal",
      "outputs": [
        {
          "internalType": "uint256",
          "name": "",
          "type": "uint256"
        }
      ],
      "stateMutability": "view",
      "type": "function",
      "constant": true
    },
    {
      "inputs": [
        {
          "internalType": "uint256",
          "name": "",
          "type": "uint256"
        }
      ],
      "name": "jackpots",
      "outputs": [
        {
          "internalType": "uint256",
          "name": "coordX",
          "type": "uint256"
        },
        {
          "internalType": "uint256",
          "name": "coordY",
          "type": "uint256"
        },
        {
          "internalType": "uint256",
          "name": "starDist",
          "type": "uint256"
        },
        {
          "internalType": "uint256",
          "name": "availableNova",
          "type": "uint256"
        },
        {
          "internalType": "uint256",
          "name": "starId",
          "type": "uint256"
        }
      ],
      "stateMutability": "view",
      "type": "function",
      "constant": true
    },
    {
      "inputs": [],
      "name": "owner",
      "outputs": [
        {
          "internalType": "address",
          "name": "",
          "type": "address"
        }
      ],
      "stateMutability": "view",
      "type": "function",
      "constant": true
    },
    {
      "inputs": [],
      "name": "renounceOwnership",
      "outputs": [],
      "stateMutability": "nonpayable",
      "type": "function"
    },
    {
      "inputs": [],
      "name": "rewardsMod",
      "outputs": [
        {
          "internalType": "uint256",
          "name": "",
          "type": "uint256"
        }
      ],
      "stateMutability": "view",
      "type": "function",
      "constant": true
    },
    {
      "inputs": [
        {
          "internalType": "address[]",
          "name": "_editor",
          "type": "address[]"
        }
      ],
      "name": "setEditor",
      "outputs": [],
      "stateMutability": "nonpayable",
      "type": "function"
    },
    {
      "inputs": [
        {
          "internalType": "uint256",
          "name": "",
          "type": "uint256"
        }
      ],
      "name": "stars",
      "outputs": [
        {
          "internalType": "uint256",
          "name": "coordX",
          "type": "uint256"
        },
        {
          "internalType": "uint256",
          "name": "coordY",
          "type": "uint256"
        },
        {
          "internalType": "uint256",
          "name": "luminosity",
          "type": "uint256"
        },
        {
          "internalType": "uint256",
          "name": "novaBalance",
          "type": "uint256"
        },
        {
          "internalType": "uint256",
          "name": "unrefinedBalance",
          "type": "uint256"
        }
      ],
      "stateMutability": "view",
      "type": "function",
      "constant": true
    },
    {
      "inputs": [],
      "name": "totalLuminosity",
      "outputs": [
        {
          "internalType": "uint256",
          "name": "",
          "type": "uint256"
        }
      ],
      "stateMutability": "view",
      "type": "function",
      "constant": true
    },
    {
      "inputs": [
        {
          "internalType": "address",
          "name": "newOwner",
          "type": "address"
        }
      ],
      "name": "transferOwnership",
      "outputs": [],
      "stateMutability": "nonpayable",
      "type": "function"
    },
    {
      "inputs": [
        {
          "internalType": "uint256",
          "name": "_amount",
          "type": "uint256"
        }
      ],
      "name": "withdrawNOVA",
      "outputs": [],
      "stateMutability": "nonpayable",
      "type": "function"
    },
    {
      "inputs": [
        {
          "internalType": "uint256",
          "name": "_x",
          "type": "uint256"
        },
        {
          "internalType": "uint256",
          "name": "_y",
          "type": "uint256"
        }
      ],
      "name": "createStar",
      "outputs": [],
      "stateMutability": "nonpayable",
      "type": "function"
    },
    {
      "inputs": [
        {
          "internalType": "uint256",
          "name": "_starId",
          "type": "uint256"
        },
        {
          "internalType": "uint256",
          "name": "_x",
          "type": "uint256"
        },
        {
          "internalType": "uint256",
          "name": "_y",
          "type": "uint256"
        }
      ],
      "name": "createJackpot",
      "outputs": [],
      "stateMutability": "nonpayable",
      "type": "function"
    },
    {
      "inputs": [
        {
          "internalType": "uint256",
          "name": "_x",
          "type": "uint256"
        },
        {
          "internalType": "uint256",
          "name": "_y",
          "type": "uint256"
        }
      ],
      "name": "getStarId",
      "outputs": [
        {
          "internalType": "uint256",
          "name": "",
          "type": "uint256"
        }
      ],
      "stateMutability": "view",
      "type": "function",
      "constant": true
    },
    {
      "inputs": [],
      "name": "allocateNova",
      "outputs": [],
      "stateMutability": "nonpayable",
      "type": "function"
    },
    {
      "inputs": [],
      "name": "requestNova",
      "outputs": [],
      "stateMutability": "nonpayable",
      "type": "function"
    },
    {
      "inputs": [],
      "name": "setInitial",
      "outputs": [],
      "stateMutability": "nonpayable",
      "type": "function"
    },
    {
      "inputs": [
        {
          "internalType": "uint256",
          "name": "_x",
          "type": "uint256"
        },
        {
          "internalType": "uint256",
          "name": "_y",
          "type": "uint256"
        }
      ],
      "name": "getJackpotNova",
      "outputs": [
        {
          "internalType": "uint256",
          "name": "",
          "type": "uint256"
        }
      ],
      "stateMutability": "view",
      "type": "function",
      "constant": true
    },
    {
      "inputs": [
        {
          "internalType": "uint256",
          "name": "_x",
          "type": "uint256"
        },
        {
          "internalType": "uint256",
          "name": "_y",
          "type": "uint256"
        }
      ],
      "name": "harvest",
      "outputs": [],
      "stateMutability": "nonpayable",
      "type": "function"
    },
    {
      "inputs": [],
      "name": "refine",
      "outputs": [],
      "stateMutability": "nonpayable",
      "type": "function"
    },
    {
      "inputs": [
        {
          "internalType": "address",
          "name": "_sender",
          "type": "address"
        },
        {
          "internalType": "address",
          "name": "_receiver",
          "type": "address"
        },
        {
          "internalType": "uint256",
          "name": "_percent",
          "type": "uint256"
        }
      ],
      "name": "transferUNova",
      "outputs": [],
      "stateMutability": "nonpayable",
      "type": "function"
    },
    {
      "inputs": [
        {
          "internalType": "address",
          "name": "_player",
          "type": "address"
        }
      ],
      "name": "getUserUNova",
      "outputs": [
        {
          "internalType": "uint256",
          "name": "",
          "type": "uint256"
        }
      ],
      "stateMutability": "view",
      "type": "function",
      "constant": true
    },
    {
      "inputs": [
        {
          "internalType": "address",
          "name": "_new",
          "type": "address"
        }
      ],
      "name": "setMap",
      "outputs": [],
      "stateMutability": "nonpayable",
      "type": "function"
    },
    {
      "inputs": [
        {
          "internalType": "address",
          "name": "_new",
          "type": "address"
        }
      ],
      "name": "setShadowPool",
      "outputs": [],
      "stateMutability": "nonpayable",
      "type": "function"
    },
    {
      "inputs": [
        {
          "internalType": "address",
          "name": "_new",
          "type": "address"
        }
      ],
      "name": "setFleet",
      "outputs": [],
      "stateMutability": "nonpayable",
      "type": "function"
    },
    {
      "inputs": [
        {
          "internalType": "address",
          "name": "_new",
          "type": "address"
        }
      ],
      "name": "setNova",
      "outputs": [],
      "stateMutability": "nonpayable",
      "type": "function"
    },
    {
      "inputs": [
        {
          "internalType": "uint256",
          "name": "_new",
          "type": "uint256"
        }
      ],
      "name": "setRewardsMod",
      "outputs": [],
      "stateMutability": "nonpayable",
      "type": "function"
    },
    {
      "inputs": [
        {
          "internalType": "uint256",
          "name": "_new",
          "type": "uint256"
        }
      ],
      "name": "setRewardsTimer",
      "outputs": [],
      "stateMutability": "nonpayable",
      "type": "function"
    },
    {
      "inputs": [
        {
          "internalType": "uint256",
          "name": "_new",
          "type": "uint256"
        }
      ],
      "name": "setRewardsDelay",
      "outputs": [],
      "stateMutability": "nonpayable",
      "type": "function"
    },
    {
      "inputs": [
        {
          "internalType": "uint256",
          "name": "_id",
          "type": "uint256"
        },
        {
          "internalType": "bool",
          "name": "_isPaused",
          "type": "bool"
        }
      ],
      "name": "setPaused",
      "outputs": [],
      "stateMutability": "nonpayable",
      "type": "function"
    }
  ],
  "bytecode": "0x60806040523480156200001157600080fd5b5060405162004bb838038062004bb8833981810160405281019062000037919062000255565b620000576200004b6200014460201b60201c565b6200014c60201b60201c565b82600260006101000a81548173ffffffffffffffffffffffffffffffffffffffff021916908373ffffffffffffffffffffffffffffffffffffffff16021790555080600360006101000a81548173ffffffffffffffffffffffffffffffffffffffff021916908373ffffffffffffffffffffffffffffffffffffffff16021790555081600460006101000a81548173ffffffffffffffffffffffffffffffffffffffff021916908373ffffffffffffffffffffffffffffffffffffffff16021790555060016006819055506000600781905550600060088190555061384060098190555050505062000374565b600033905090565b60008060009054906101000a900473ffffffffffffffffffffffffffffffffffffffff169050816000806101000a81548173ffffffffffffffffffffffffffffffffffffffff021916908373ffffffffffffffffffffffffffffffffffffffff1602179055508173ffffffffffffffffffffffffffffffffffffffff168173ffffffffffffffffffffffffffffffffffffffff167f8be0079c531659141344cd1fd0a4f28419497f9722a3daafe3b4186f6b6457e060405160405180910390a35050565b600081519050620002218162000326565b92915050565b600081519050620002388162000340565b92915050565b6000815190506200024f816200035a565b92915050565b60008060006060848603121562000271576200027062000321565b5b6000620002818682870162000210565b935050602062000294868287016200023e565b9250506040620002a78682870162000227565b9150509250925092565b6000620002be8262000301565b9050919050565b6000620002d282620002b1565b9050919050565b6000620002e682620002b1565b9050919050565b6000620002fa82620002b1565b9050919050565b600073ffffffffffffffffffffffffffffffffffffffff82169050919050565b600080fd5b6200033181620002c5565b81146200033d57600080fd5b50565b6200034b81620002d9565b81146200035757600080fd5b50565b6200036581620002ed565b81146200037157600080fd5b50565b61483480620003846000396000f3fe608060405234801561001057600080fd5b506004361061021c5760003560e01c8063715018a611610125578063daff97b5116100ad578063ecacf11a1161007c578063ecacf11a14610603578063f2fde38b14610621578063f644350c1461063d578063f680c25c14610647578063fda01763146106635761021c565b8063daff97b51461057d578063e4a4b7b114610599578063ea2b2180146105b5578063ec557f40146105e55761021c565b8063a0748154116100f4578063a0748154146104c5578063a361d341146104f5578063ba86ea0d14610511578063bde8e5dc1461052d578063d5d72a38146105615761021c565b8063715018a61461047557806386a07a0b1461047f5780638da5cb5b1461049d5780638e18977f146104bb5761021c565b806346749378116101a85780635eedfeb7116101775780635eedfeb7146103e157806364e51a8d146103eb578063685c6342146104075780636a611d6c1461043b5780636b49e17b146104575761021c565b8063467493781461036f578063502241bf1461038b57806354aa7ccd146103a75780635ec37c5a146103c55761021c565b80631e3fc9da116101ef5780631e3fc9da146102cf578063233daaf7146102eb5780632d03dc601461031b57806333ad0e93146103375780634493b8f7146103535761021c565b80630f313bc61461022157806310a6cfdc1461025157806312e9ff2a146102815780631bb63d0c146102b1575b600080fd5b61023b600480360381019061023691906134ba565b61066d565b6040516102489190613d02565b60405180910390f35b61026b600480360381019061026691906133c4565b610685565b6040516102789190613d02565b60405180910390f35b61029b60048036038101906102969190613554565b610713565b6040516102a89190613d02565b60405180910390f35b6102b961076c565b6040516102c69190613aa5565b60405180910390f35b6102e960048036038101906102e491906133c4565b610792565b005b610305600480360381019061030091906133c4565b6108c3565b6040516103129190613a39565b60405180910390f35b610335600480360381019061033091906133f1565b6108e3565b005b610351600480360381019061034c91906134ba565b610d72565b005b61036d600480360381019061036891906133c4565b610e73565b005b610389600480360381019061038491906134ba565b610fa4565b005b6103a560048036038101906103a09190613444565b61102a565b005b6103af6111e7565b6040516103bc9190613d02565b60405180910390f35b6103df60048036038101906103da91906133c4565b6111ed565b005b6103e961131e565b005b610405600480360381019061040091906133c4565b611474565b005b610421600480360381019061041c91906134ba565b6115de565b604051610432959493929190613d7d565b60405180910390f35b61045560048036038101906104509190613554565b611624565b005b61045f611642565b60405161046c9190613d02565b60405180910390f35b61047d611648565b005b6104876116d0565b6040516104949190613a8a565b60405180910390f35b6104a56116f6565b6040516104b291906139be565b60405180910390f35b6104c361171f565b005b6104df60048036038101906104da91906133c4565b61182a565b6040516104ec9190613a39565b60405180910390f35b61050f600480360381019061050a91906135d4565b611895565b005b61052b600480360381019061052691906133c4565b61193d565b005b610547600480360381019061054291906134ba565b611a6e565b604051610558959493929190613d7d565b60405180910390f35b61057b600480360381019061057691906134ba565b611ab4565b005b61059760048036038101906105929190613514565b611b80565b005b6105b360048036038101906105ae9190613554565b611c2b565b005b6105cf60048036038101906105ca9190613554565b6121c0565b6040516105dc9190613d02565b60405180910390f35b6105ed6121ef565b6040516105fa9190613a6f565b60405180910390f35b61060b612215565b6040516106189190613a54565b60405180910390f35b61063b600480360381019061063691906133c4565b61223b565b005b610645612333565b005b610661600480360381019061065c91906134ba565b6126bd565b005b61066b612743565b005b60116020528060005260406000206000915090505481565b60008060005b600e8054905081101561070957601260008573ffffffffffffffffffffffffffffffffffffffff1673ffffffffffffffffffffffffffffffffffffffff168152602001908152602001600020600082815260200190815260200160002054826106f49190613e53565b9150808061070190614208565b91505061068b565b5080915050919050565b600080600d60008581526020019081526020016000206000848152602001908152602001600020549050600c8181548110610751576107506142f4565b5b90600052602060002090600502016003015491505092915050565b600460009054906101000a900473ffffffffffffffffffffffffffffffffffffffff1681565b61079a612b72565b73ffffffffffffffffffffffffffffffffffffffff166107b86116f6565b73ffffffffffffffffffffffffffffffffffffffff161461080e576040517f08c379a000000000000000000000000000000000000000000000000000000000815260040161080590613c22565b60405180910390fd5b8073ffffffffffffffffffffffffffffffffffffffff16600073ffffffffffffffffffffffffffffffffffffffff16141561084857600080fd5b80600460006101000a81548173ffffffffffffffffffffffffffffffffffffffff021916908373ffffffffffffffffffffffffffffffffffffffff1602179055507ff642dae0ba3fe6606e32e371638096b964bde9a15261fd3030dad0f5c2f84a24816040516108b891906139be565b60405180910390a150565b60016020528060005260406000206000915054906101000a900460ff1681565b60006064826108f186610685565b6108fb919061404b565b6109059190613ea9565b9050600080600090505b600e80549050811015610d2f57601260008773ffffffffffffffffffffffffffffffffffffffff1673ffffffffffffffffffffffffffffffffffffffff168152602001908152602001600020600082815260200190815260200160002054831115610b4b576000601260008873ffffffffffffffffffffffffffffffffffffffff1673ffffffffffffffffffffffffffffffffffffffff168152602001908152602001600020600083815260200190815260200160002054905080846109d591906140a5565b935080601260008973ffffffffffffffffffffffffffffffffffffffff1673ffffffffffffffffffffffffffffffffffffffff168152602001908152602001600020600084815260200190815260200160002054610a3391906140a5565b601260008973ffffffffffffffffffffffffffffffffffffffff1673ffffffffffffffffffffffffffffffffffffffff16815260200190815260200160002060008481526020019081526020016000208190555080601260008873ffffffffffffffffffffffffffffffffffffffff1673ffffffffffffffffffffffffffffffffffffffff168152602001908152602001600020600084815260200190815260200160002054610ae39190613e53565b601260008873ffffffffffffffffffffffffffffffffffffffff1673ffffffffffffffffffffffffffffffffffffffff1681526020019081526020016000206000848152602001908152602001600020819055508083610b439190613e53565b925050610d1c565b82601260008873ffffffffffffffffffffffffffffffffffffffff1673ffffffffffffffffffffffffffffffffffffffff16815260200190815260200160002060008381526020019081526020016000205410610d1b5760008390506000935080601260008973ffffffffffffffffffffffffffffffffffffffff1673ffffffffffffffffffffffffffffffffffffffff168152602001908152602001600020600084815260200190815260200160002054610c0791906140a5565b601260008973ffffffffffffffffffffffffffffffffffffffff1673ffffffffffffffffffffffffffffffffffffffff16815260200190815260200160002060008481526020019081526020016000208190555080601260008873ffffffffffffffffffffffffffffffffffffffff1673ffffffffffffffffffffffffffffffffffffffff168152602001908152602001600020600084815260200190815260200160002054610cb79190613e53565b601260008873ffffffffffffffffffffffffffffffffffffffff1673ffffffffffffffffffffffffffffffffffffffff1681526020019081526020016000206000848152602001908152602001600020819055508083610d179190613e53565b9250505b5b8080610d2790614208565b91505061090f565b507f95c0bd21c95d2ded70db2b811c9c73a2efa03fe0abe594fe626140d0ab27137c858583604051610d63939291906139d9565b60405180910390a15050505050565b610d7a612b72565b73ffffffffffffffffffffffffffffffffffffffff16610d986116f6565b73ffffffffffffffffffffffffffffffffffffffff1614610dee576040517f08c379a0000000000000000000000000000000000000000000000000000000008152600401610de590613c22565b60405180910390fd5b6064811115610e32576040517f08c379a0000000000000000000000000000000000000000000000000000000008152600401610e2990613ba2565b60405180910390fd5b806006819055507f40b89cc69ecf8e2dabdacad52aecc638f1633354b6ba010c6b2c97ebe6c4738081604051610e689190613d02565b60405180910390a150565b610e7b612b72565b73ffffffffffffffffffffffffffffffffffffffff16610e996116f6565b73ffffffffffffffffffffffffffffffffffffffff1614610eef576040517f08c379a0000000000000000000000000000000000000000000000000000000008152600401610ee690613c22565b60405180910390fd5b8073ffffffffffffffffffffffffffffffffffffffff16600073ffffffffffffffffffffffffffffffffffffffff161415610f2957600080fd5b80600260006101000a81548173ffffffffffffffffffffffffffffffffffffffff021916908373ffffffffffffffffffffffffffffffffffffffff1602179055507f90f5e5f7328411f26c894e8626f50253868151120d2b9151cfd0dc6af65f074881604051610f9991906139be565b60405180910390a150565b610fac612b72565b73ffffffffffffffffffffffffffffffffffffffff16610fca6116f6565b73ffffffffffffffffffffffffffffffffffffffff1614611020576040517f08c379a000000000000000000000000000000000000000000000000000000000815260040161101790613c22565b60405180910390fd5b8060088190555050565b611032612b72565b73ffffffffffffffffffffffffffffffffffffffff166110506116f6565b73ffffffffffffffffffffffffffffffffffffffff16146110a6576040517f08c379a000000000000000000000000000000000000000000000000000000000815260040161109d90613c22565b60405180910390fd5b60005b81518110156111e35760001515600160008484815181106110cd576110cc6142f4565b5b602002602001015173ffffffffffffffffffffffffffffffffffffffff1673ffffffffffffffffffffffffffffffffffffffff16815260200190815260200160002060009054906101000a900460ff1615151461115f576040517f08c379a000000000000000000000000000000000000000000000000000000000815260040161115690613b02565b60405180910390fd5b6001806000848481518110611177576111766142f4565b5b602002602001015173ffffffffffffffffffffffffffffffffffffffff1673ffffffffffffffffffffffffffffffffffffffff16815260200190815260200160002060006101000a81548160ff02191690831515021790555080806111db90614208565b9150506110a9565b5050565b60105481565b6111f5612b72565b73ffffffffffffffffffffffffffffffffffffffff166112136116f6565b73ffffffffffffffffffffffffffffffffffffffff1614611269576040517f08c379a000000000000000000000000000000000000000000000000000000000815260040161126090613c22565b60405180910390fd5b8073ffffffffffffffffffffffffffffffffffffffff16600073ffffffffffffffffffffffffffffffffffffffff1614156112a357600080fd5b80600560006101000a81548173ffffffffffffffffffffffffffffffffffffffff021916908373ffffffffffffffffffffffffffffffffffffffff1602179055507fec32bcf4d5ebb439a1b8f5f6a9b60ab77f6eb04b6774db09fbaf89f1faa7ab018160405161131391906139be565b60405180910390a150565b611326612b72565b73ffffffffffffffffffffffffffffffffffffffff166113446116f6565b73ffffffffffffffffffffffffffffffffffffffff161461139a576040517f08c379a000000000000000000000000000000000000000000000000000000000815260040161139190613c22565b60405180910390fd5b600854421061147257600360009054906101000a900473ffffffffffffffffffffffffffffffffffffffff1673ffffffffffffffffffffffffffffffffffffffff1663d41c0b2f306006546040518363ffffffff1660e01b8152600401611402929190613a10565b602060405180830381600087803b15801561141c57600080fd5b505af1158015611430573d6000803e3d6000fd5b505050506040513d601f19601f8201168201806040525081019061145491906134e7565b50600954426114639190613e53565b600881905550611471612333565b5b565b61147c612b72565b73ffffffffffffffffffffffffffffffffffffffff1661149a6116f6565b73ffffffffffffffffffffffffffffffffffffffff16146114f0576040517f08c379a00000000000000000000000000000000000000000000000000000000081526004016114e790613c22565b60405180910390fd5b60011515600160008373ffffffffffffffffffffffffffffffffffffffff1673ffffffffffffffffffffffffffffffffffffffff16815260200190815260200160002060009054906101000a900460ff16151514611583576040517f08c379a000000000000000000000000000000000000000000000000000000000815260040161157a90613be2565b60405180910390fd5b6000600160008373ffffffffffffffffffffffffffffffffffffffff1673ffffffffffffffffffffffffffffffffffffffff16815260200190815260200160002060006101000a81548160ff02191690831515021790555050565b600e81815481106115ee57600080fd5b90600052602060002090600502016000915090508060000154908060010154908060020154908060030154908060040154905085565b6000611630600a612b7a565b905061163d818484612bbc565b505050565b60065481565b611650612b72565b73ffffffffffffffffffffffffffffffffffffffff1661166e6116f6565b73ffffffffffffffffffffffffffffffffffffffff16146116c4576040517f08c379a00000000000000000000000000000000000000000000000000000000081526004016116bb90613c22565b60405180910390fd5b6116ce6000612ccf565b565b600360009054906101000a900473ffffffffffffffffffffffffffffffffffffffff1681565b60008060009054906101000a900473ffffffffffffffffffffffffffffffffffffffff16905090565b611727612b72565b73ffffffffffffffffffffffffffffffffffffffff166117456116f6565b73ffffffffffffffffffffffffffffffffffffffff161461179b576040517f08c379a000000000000000000000000000000000000000000000000000000000815260040161179290613c22565b60405180910390fd5b60011515600a60009054906101000a900460ff16151514156117f2576040517f08c379a00000000000000000000000000000000000000000000000000000000081526004016117e990613b42565b60405180910390fd5b6001600a60006101000a81548160ff02191690831515021790555061181a6000806000612bbc565b611828600080600080612d93565b565b600060011515600160008473ffffffffffffffffffffffffffffffffffffffff1673ffffffffffffffffffffffffffffffffffffffff16815260200190815260200160002060009054906101000a900460ff1615151461188b57600061188e565b60015b9050919050565b6000600e84815481106118ab576118aa6142f4565b5b90600052602060002090600502016000015490506000600e85815481106118d5576118d46142f4565b5b90600052602060002090600502016001015490506000611927600a846118fb919061404b565b600a84611908919061404b565b600a88611915919061404b565b600a88611922919061404b565b612ec5565b905061193581878787612d93565b505050505050565b611945612b72565b73ffffffffffffffffffffffffffffffffffffffff166119636116f6565b73ffffffffffffffffffffffffffffffffffffffff16146119b9576040517f08c379a00000000000000000000000000000000000000000000000000000000081526004016119b090613c22565b60405180910390fd5b8073ffffffffffffffffffffffffffffffffffffffff16600073ffffffffffffffffffffffffffffffffffffffff1614156119f357600080fd5b80600360006101000a81548173ffffffffffffffffffffffffffffffffffffffff021916908373ffffffffffffffffffffffffffffffffffffffff1602179055507f0c550658941781d39e39cb1246718e62398408305057ae25ed1b1b41ca6996de81604051611a6391906139be565b60405180910390a150565b600c8181548110611a7e57600080fd5b90600052602060002090600502016000915090508060000154908060010154908060020154908060030154908060040154905085565b611abc612b72565b73ffffffffffffffffffffffffffffffffffffffff16611ada6116f6565b73ffffffffffffffffffffffffffffffffffffffff1614611b30576040517f08c379a0000000000000000000000000000000000000000000000000000000008152600401611b2790613c22565b60405180910390fd5b611b7d3382600460009054906101000a900473ffffffffffffffffffffffffffffffffffffffff1673ffffffffffffffffffffffffffffffffffffffff16612f509092919063ffffffff16565b50565b611b88612b72565b73ffffffffffffffffffffffffffffffffffffffff16611ba66116f6565b73ffffffffffffffffffffffffffffffffffffffff1614611bfc576040517f08c379a0000000000000000000000000000000000000000000000000000000008152600401611bf390613c22565b60405180910390fd5b80600b600084815260200190815260200160002060006101000a81548160ff0219169083151502179055505050565b6000339050600080600260009054906101000a900473ffffffffffffffffffffffffffffffffffffffff1673ffffffffffffffffffffffffffffffffffffffff1663cb7869fd846040518263ffffffff1660e01b8152600401611c8e91906139be565b604080518083038186803b158015611ca557600080fd5b505afa158015611cb9573d6000803e3d6000fd5b505050506040513d601f19601f82011682018060405250810190611cdd9190613594565b5080925050600260009054906101000a900473ffffffffffffffffffffffffffffffffffffffff1673ffffffffffffffffffffffffffffffffffffffff1663cb7869fd846040518263ffffffff1660e01b8152600401611d3d91906139be565b604080518083038186803b158015611d5457600080fd5b505afa158015611d68573d6000803e3d6000fd5b505050506040513d601f19601f82011682018060405250810190611d8c9190613594565b9050809150508482148015611da057508381145b611ddf576040517f08c379a0000000000000000000000000000000000000000000000000000000008152600401611dd690613c02565b60405180910390fd5b6000600d60008781526020019081526020016000206000868152602001908152602001600020541415611e47576040517f08c379a0000000000000000000000000000000000000000000000000000000008152600401611e3e90613bc2565b60405180910390fd5b6000670de0b6b3a764000090506000600d6000888152602001908152602001600020600087815260200190815260200160002054905060011515600b600083815260200190815260200160002060009054906101000a900460ff1615151415611ee5576040517f08c379a0000000000000000000000000000000000000000000000000000000008152600401611edc90613c42565b60405180910390fd5b6000600c8281548110611efb57611efa6142f4565b5b90600052602060002090600502016004015490506000600c8381548110611f2557611f246142f4565b5b90600052602060002090600502016003015411611f77576040517f08c379a0000000000000000000000000000000000000000000000000000000008152600401611f6e90613c62565b60405180910390fd5b600083600c8481548110611f8e57611f8d6142f4565b5b90600052602060002090600502016003015410611fab5783611fd2565b600c8381548110611fbf57611fbe6142f4565b5b9060005260206000209060050201600301545b905080600c8481548110611fe957611fe86142f4565b5b90600052602060002090600502016003015461200591906140a5565b600c8481548110612019576120186142f4565b5b90600052602060002090600502016003018190555080600e8381548110612043576120426142f4565b5b90600052602060002090600502016004015461205f9190613e53565b600e8381548110612073576120726142f4565b5b906000526020600020906005020160040181905550600e828154811061209c5761209b6142f4565b5b906000526020600020906005020160030154600e83815481106120c2576120c16142f4565b5b9060005260206000209060050201600401541115612115576040517f08c379a000000000000000000000000000000000000000000000000000000000815260040161210c90613ce2565b60405180910390fd5b80601260008973ffffffffffffffffffffffffffffffffffffffff1673ffffffffffffffffffffffffffffffffffffffff168152602001908152602001600020600084815260200190815260200160002060008282546121759190613e53565b925050819055507f839000dd8392c1a0e9568a1273ab9e08f841fddba6001cea0d2360a042401f0287826040516121ad929190613a10565b60405180910390a1505050505050505050565b6000600f6000848152602001908152602001600020600083815260200190815260200160002054905092915050565b600260009054906101000a900473ffffffffffffffffffffffffffffffffffffffff1681565b600560009054906101000a900473ffffffffffffffffffffffffffffffffffffffff1681565b612243612b72565b73ffffffffffffffffffffffffffffffffffffffff166122616116f6565b73ffffffffffffffffffffffffffffffffffffffff16146122b7576040517f08c379a00000000000000000000000000000000000000000000000000000000081526004016122ae90613c22565b60405180910390fd5b600073ffffffffffffffffffffffffffffffffffffffff168173ffffffffffffffffffffffffffffffffffffffff161415612327576040517f08c379a000000000000000000000000000000000000000000000000000000000815260040161231e90613b22565b60405180910390fd5b61233081612ccf565b50565b6000600754600460009054906101000a900473ffffffffffffffffffffffffffffffffffffffff1673ffffffffffffffffffffffffffffffffffffffff166370a08231306040518263ffffffff1660e01b815260040161239391906139be565b60206040518083038186803b1580156123ab57600080fd5b505afa1580156123bf573d6000803e3d6000fd5b505050506040513d601f19601f820116820180604052508101906123e391906134e7565b6123ed91906140a5565b905060008111612432576040517f08c379a000000000000000000000000000000000000000000000000000000000815260040161242990613c82565b60405180910390fd5b60005b600e80549050811015612608576000601054600e838154811061245b5761245a6142f4565b5b90600052602060002090600502016002015484612478919061404b565b6124829190613ea9565b905080600e8381548110612499576124986142f4565b5b9060005260206000209060050201600301546124b59190613e53565b600e83815481106124c9576124c86142f4565b5b90600052602060002090600502016003018190555060005b600c805490508110156125f35782600c8281548110612503576125026142f4565b5b90600052602060002090600502016004015414156125e0576000600c8281548110612531576125306142f4565b5b9060005260206000209060050201600201548361254e919061404b565b9050600060116000868152602001908152602001600020549050600082116125775760006125b4565b80826125839190613ea9565b600c8481548110612597576125966142f4565b5b9060005260206000209060050201600301546125b39190613e53565b5b600c84815481106125c8576125c76142f4565b5b90600052602060002090600502016003018190555050505b80806125eb90614208565b9150506124e1565b5050808061260090614208565b915050612435565b50600460009054906101000a900473ffffffffffffffffffffffffffffffffffffffff1673ffffffffffffffffffffffffffffffffffffffff166370a08231306040518263ffffffff1660e01b815260040161266491906139be565b60206040518083038186803b15801561267c57600080fd5b505afa158015612690573d6000803e3d6000fd5b505050506040513d601f19601f820116820180604052508101906126b491906134e7565b60078190555050565b6126c5612b72565b73ffffffffffffffffffffffffffffffffffffffff166126e36116f6565b73ffffffffffffffffffffffffffffffffffffffff1614612739576040517f08c379a000000000000000000000000000000000000000000000000000000000815260040161273090613c22565b60405180910390fd5b8060098190555050565b6000339050600080600260009054906101000a900473ffffffffffffffffffffffffffffffffffffffff1673ffffffffffffffffffffffffffffffffffffffff1663cb7869fd846040518263ffffffff1660e01b81526004016127a691906139be565b604080518083038186803b1580156127bd57600080fd5b505afa1580156127d1573d6000803e3d6000fd5b505050506040513d601f19601f820116820180604052508101906127f59190613594565b809250819350505060011515600260009054906101000a900473ffffffffffffffffffffffffffffffffffffffff1673ffffffffffffffffffffffffffffffffffffffff1663e01ae68684846040518363ffffffff1660e01b815260040161285e929190613d1d565b60206040518083038186803b15801561287657600080fd5b505afa15801561288a573d6000803e3d6000fd5b505050506040513d601f19601f820116820180604052508101906128ae919061348d565b1515146128f0576040517f08c379a00000000000000000000000000000000000000000000000000000000081526004016128e790613b82565b60405180910390fd5b60006128fb84610685565b1161293b576040517f08c379a000000000000000000000000000000000000000000000000000000000815260040161293290613cc2565b60405180910390fd5b600080600090505b600e80549050811015612ad1576000601260008773ffffffffffffffffffffffffffffffffffffffff1673ffffffffffffffffffffffffffffffffffffffff16815260200190815260200160002060008381526020019081526020016000205490506000601260008873ffffffffffffffffffffffffffffffffffffffff1673ffffffffffffffffffffffffffffffffffffffff16815260200190815260200160002060008481526020019081526020016000208190555080600e8381548110612a1057612a0f6142f4565b5b906000526020600020906005020160030154612a2c91906140a5565b600e8381548110612a4057612a3f6142f4565b5b90600052602060002090600502016003018190555080600e8381548110612a6a57612a696142f4565b5b906000526020600020906005020160040154612a8691906140a5565b600e8381548110612a9a57612a996142f4565b5b9060005260206000209060050201600401819055508083612abb9190613e53565b9250508080612ac990614208565b915050612943565b50612b1f8482600460009054906101000a900473ffffffffffffffffffffffffffffffffffffffff1673ffffffffffffffffffffffffffffffffffffffff16612f509092919063ffffffff16565b80600754612b2d91906140a5565b6007819055507f499862d0d1b2e62e1ccc2f40087cd2e7f150879c76bd3b4a6c504518d60737738482604051612b64929190613a10565b60405180910390a150505050565b600033905090565b60008142601440604051602001612b92929190613992565b6040516020818303038152906040528051906020012060001c612bb59190614265565b9050919050565b6000600e805490509050600e6040518060a0016040528085815260200184815260200186815260200160008152602001600081525090806001815401808255809150506001900390600052602060002090600502016000909190919091506000820151816000015560208201518160010155604082015181600201556060820151816003015560808201518160040155505080600f60008581526020019081526020016000206000848152602001908152602001600020819055508360106000828254612c899190613e53565b925050819055507f600343f351dfa11896203fac3f01666e25d90c51b87c5af6fb2a7418300de1928383604051612cc1929190613d1d565b60405180910390a150505050565b60008060009054906101000a900473ffffffffffffffffffffffffffffffffffffffff169050816000806101000a81548173ffffffffffffffffffffffffffffffffffffffff021916908373ffffffffffffffffffffffffffffffffffffffff1602179055508173ffffffffffffffffffffffffffffffffffffffff168173ffffffffffffffffffffffffffffffffffffffff167f8be0079c531659141344cd1fd0a4f28419497f9722a3daafe3b4186f6b6457e060405160405180910390a35050565b6000600c805490509050600c6040518060a00160405280858152602001848152602001878152602001600081526020018681525090806001815401808255809150506001900390600052602060002090600502016000909190919091506000820151816000015560208201518160010155604082015181600201556060820151816003015560808201518160040155505080600d6000858152602001908152602001600020600084815260200190815260200160002081905550846011600086815260200190815260200160002054612e6c9190613e53565b60116000868152602001908152602001600020819055507f8083f0e738c5b215730e4d3424baaf5b503ad4d2aa9e819f01aba8cecc3a2c19848484604051612eb693929190613d46565b60405180910390a15050505050565b600080838611612ee0578584612edb91906140a5565b612eed565b8386612eec91906140a5565b5b90506000838611612f09578584612f0491906140a5565b612f16565b8386612f1591906140a5565b5b9050612f44600282612f289190613f2d565b600284612f359190613f2d565b612f3f9190613e53565b612fd6565b92505050949350505050565b612fd18363a9059cbb60e01b8484604051602401612f6f929190613a10565b604051602081830303815290604052907bffffffffffffffffffffffffffffffffffffffffffffffffffffffff19166020820180517bffffffffffffffffffffffffffffffffffffffffffffffffffffffff8381831617835250505050613050565b505050565b6000600382111561303d5781905060006001600284612ff59190613ea9565b612fff9190613e53565b90505b8181101561303757809150600281828561301c9190613ea9565b6130269190613e53565b6130309190613ea9565b9050613002565b5061304b565b6000821461304a57600190505b5b919050565b60006130b2826040518060400160405280602081526020017f5361666542455032303a206c6f772d6c6576656c2063616c6c206661696c65648152508573ffffffffffffffffffffffffffffffffffffffff166131179092919063ffffffff16565b905060008151111561311257808060200190518101906130d2919061348d565b613111576040517f08c379a000000000000000000000000000000000000000000000000000000000815260040161310890613ae2565b60405180910390fd5b5b505050565b6060613126848460008561312f565b90509392505050565b606082471015613174576040517f08c379a000000000000000000000000000000000000000000000000000000000815260040161316b90613b62565b60405180910390fd5b61317d85613243565b6131bc576040517f08c379a00000000000000000000000000000000000000000000000000000000081526004016131b390613ca2565b60405180910390fd5b6000808673ffffffffffffffffffffffffffffffffffffffff1685876040516131e5919061397b565b60006040518083038185875af1925050503d8060008114613222576040519150601f19603f3d011682016040523d82523d6000602084013e613227565b606091505b5091509150613237828286613256565b92505050949350505050565b600080823b905060008111915050919050565b60608315613266578290506132b6565b6000835111156132795782518084602001fd5b816040517f08c379a00000000000000000000000000000000000000000000000000000000081526004016132ad9190613ac0565b60405180910390fd5b9392505050565b60006132d06132cb84613df5565b613dd0565b905080838252602082019050828560208602820111156132f3576132f2614357565b5b60005b858110156133235781613309888261332d565b8452602084019350602083019250506001810190506132f6565b5050509392505050565b60008135905061333c816147b9565b92915050565b600082601f83011261335757613356614352565b5b81356133678482602086016132bd565b91505092915050565b60008135905061337f816147d0565b92915050565b600081519050613394816147d0565b92915050565b6000813590506133a9816147e7565b92915050565b6000815190506133be816147e7565b92915050565b6000602082840312156133da576133d9614361565b5b60006133e88482850161332d565b91505092915050565b60008060006060848603121561340a57613409614361565b5b60006134188682870161332d565b93505060206134298682870161332d565b925050604061343a8682870161339a565b9150509250925092565b60006020828403121561345a57613459614361565b5b600082013567ffffffffffffffff8111156134785761347761435c565b5b61348484828501613342565b91505092915050565b6000602082840312156134a3576134a2614361565b5b60006134b184828501613385565b91505092915050565b6000602082840312156134d0576134cf614361565b5b60006134de8482850161339a565b91505092915050565b6000602082840312156134fd576134fc614361565b5b600061350b848285016133af565b91505092915050565b6000806040838503121561352b5761352a614361565b5b60006135398582860161339a565b925050602061354a85828601613370565b9150509250929050565b6000806040838503121561356b5761356a614361565b5b60006135798582860161339a565b925050602061358a8582860161339a565b9150509250929050565b600080604083850312156135ab576135aa614361565b5b60006135b9858286016133af565b92505060206135ca858286016133af565b9150509250929050565b6000806000606084860312156135ed576135ec614361565b5b60006135fb8682870161339a565b935050602061360c8682870161339a565b925050604061361d8682870161339a565b9150509250925092565b613630816140d9565b82525050565b61363f816140eb565b82525050565b613656613651826140f7565b614251565b82525050565b600061366782613e21565b6136718185613e37565b93506136818185602086016141a4565b80840191505092915050565b61369681614138565b82525050565b6136a58161414a565b82525050565b6136b48161415c565b82525050565b6136c38161416e565b82525050565b60006136d482613e2c565b6136de8185613e42565b93506136ee8185602086016141a4565b6136f781614366565b840191505092915050565b600061370f602a83613e42565b915061371a82614384565b604082019050919050565b6000613732602483613e42565b915061373d826143d3565b604082019050919050565b6000613755602683613e42565b915061376082614422565b604082019050919050565b6000613778602883613e42565b915061378382614471565b604082019050919050565b600061379b602683613e42565b91506137a6826144c0565b604082019050919050565b60006137be602583613e42565b91506137c98261450f565b604082019050919050565b60006137e1601c83613e42565b91506137ec8261455e565b602082019050919050565b6000613804602c83613e42565b915061380f82614587565b604082019050919050565b6000613827602083613e42565b9150613832826145d6565b602082019050919050565b600061384a601f83613e42565b9150613855826145ff565b602082019050919050565b600061386d602083613e42565b915061387882614628565b602082019050919050565b6000613890601f83613e42565b915061389b82614651565b602082019050919050565b60006138b3601f83613e42565b91506138be8261467a565b602082019050919050565b60006138d6602183613e42565b91506138e1826146a3565b604082019050919050565b60006138f9601d83613e42565b9150613904826146f2565b602082019050919050565b600061391c602a83613e42565b91506139278261471b565b604082019050919050565b600061393f602c83613e42565b915061394a8261476a565b604082019050919050565b61395e81614121565b82525050565b61397561397082614121565b61425b565b82525050565b6000613987828461365c565b915081905092915050565b600061399e8285613964565b6020820191506139ae8284613645565b6020820191508190509392505050565b60006020820190506139d36000830184613627565b92915050565b60006060820190506139ee6000830186613627565b6139fb6020830185613627565b613a086040830184613955565b949350505050565b6000604082019050613a256000830185613627565b613a326020830184613955565b9392505050565b6000602082019050613a4e6000830184613636565b92915050565b6000602082019050613a69600083018461368d565b92915050565b6000602082019050613a84600083018461369c565b92915050565b6000602082019050613a9f60008301846136ab565b92915050565b6000602082019050613aba60008301846136ba565b92915050565b60006020820190508181036000830152613ada81846136c9565b905092915050565b60006020820190508181036000830152613afb81613702565b9050919050565b60006020820190508181036000830152613b1b81613725565b9050919050565b60006020820190508181036000830152613b3b81613748565b9050919050565b60006020820190508181036000830152613b5b8161376b565b9050919050565b60006020820190508181036000830152613b7b8161378e565b9050919050565b60006020820190508181036000830152613b9b816137b1565b9050919050565b60006020820190508181036000830152613bbb816137d4565b9050919050565b60006020820190508181036000830152613bdb816137f7565b9050919050565b60006020820190508181036000830152613bfb8161381a565b9050919050565b60006020820190508181036000830152613c1b8161383d565b9050919050565b60006020820190508181036000830152613c3b81613860565b9050919050565b60006020820190508181036000830152613c5b81613883565b9050919050565b60006020820190508181036000830152613c7b816138a6565b9050919050565b60006020820190508181036000830152613c9b816138c9565b9050919050565b60006020820190508181036000830152613cbb816138ec565b9050919050565b60006020820190508181036000830152613cdb8161390f565b9050919050565b60006020820190508181036000830152613cfb81613932565b9050919050565b6000602082019050613d176000830184613955565b92915050565b6000604082019050613d326000830185613955565b613d3f6020830184613955565b9392505050565b6000606082019050613d5b6000830186613955565b613d686020830185613955565b613d756040830184613955565b949350505050565b600060a082019050613d926000830188613955565b613d9f6020830187613955565b613dac6040830186613955565b613db96060830185613955565b613dc66080830184613955565b9695505050505050565b6000613dda613deb565b9050613de682826141d7565b919050565b6000604051905090565b600067ffffffffffffffff821115613e1057613e0f614323565b5b602082029050602081019050919050565b600081519050919050565b600081519050919050565b600081905092915050565b600082825260208201905092915050565b6000613e5e82614121565b9150613e6983614121565b9250827fffffffffffffffffffffffffffffffffffffffffffffffffffffffffffffffff03821115613e9e57613e9d614296565b5b828201905092915050565b6000613eb482614121565b9150613ebf83614121565b925082613ecf57613ece6142c5565b5b828204905092915050565b6000808291508390505b6001851115613f2457808604811115613f0057613eff614296565b5b6001851615613f0f5780820291505b8081029050613f1d85614377565b9450613ee4565b94509492505050565b6000613f3882614121565b9150613f438361412b565b9250613f707fffffffffffffffffffffffffffffffffffffffffffffffffffffffffffffffff8484613f78565b905092915050565b600082613f885760019050614044565b81613f965760009050614044565b8160018114613fac5760028114613fb657613fe5565b6001915050614044565b60ff841115613fc857613fc7614296565b5b8360020a915084821115613fdf57613fde614296565b5b50614044565b5060208310610133831016604e8410600b841016171561401a5782820a90508381111561401557614014614296565b5b614044565b6140278484846001613eda565b9250905081840481111561403e5761403d614296565b5b81810290505b9392505050565b600061405682614121565b915061406183614121565b9250817fffffffffffffffffffffffffffffffffffffffffffffffffffffffffffffffff048311821515161561409a57614099614296565b5b828202905092915050565b60006140b082614121565b91506140bb83614121565b9250828210156140ce576140cd614296565b5b828203905092915050565b60006140e482614101565b9050919050565b60008115159050919050565b6000819050919050565b600073ffffffffffffffffffffffffffffffffffffffff82169050919050565b6000819050919050565b600060ff82169050919050565b600061414382614180565b9050919050565b600061415582614180565b9050919050565b600061416782614180565b9050919050565b600061417982614180565b9050919050565b600061418b82614192565b9050919050565b600061419d82614101565b9050919050565b60005b838110156141c25780820151818401526020810190506141a7565b838111156141d1576000848401525b50505050565b6141e082614366565b810181811067ffffffffffffffff821117156141ff576141fe614323565b5b80604052505050565b600061421382614121565b91507fffffffffffffffffffffffffffffffffffffffffffffffffffffffffffffffff82141561424657614245614296565b5b600182019050919050565b6000819050919050565b6000819050919050565b600061427082614121565b915061427b83614121565b92508261428b5761428a6142c5565b5b828206905092915050565b7f4e487b7100000000000000000000000000000000000000000000000000000000600052601160045260246000fd5b7f4e487b7100000000000000000000000000000000000000000000000000000000600052601260045260246000fd5b7f4e487b7100000000000000000000000000000000000000000000000000000000600052603260045260246000fd5b7f4e487b7100000000000000000000000000000000000000000000000000000000600052604160045260246000fd5b600080fd5b600080fd5b600080fd5b600080fd5b6000601f19601f8301169050919050565b60008160011c9050919050565b7f5361666542455032303a204245503230206f7065726174696f6e20646964206e60008201527f6f74207375636365656400000000000000000000000000000000000000000000602082015250565b7f445259444f434b3a204164647265737320697320616c7265616479206120656460008201527f69746f7200000000000000000000000000000000000000000000000000000000602082015250565b7f4f776e61626c653a206e6577206f776e657220697320746865207a65726f206160008201527f6464726573730000000000000000000000000000000000000000000000000000602082015250565b7f496e697469616c207374617220616e64206a61636b706f7420616c726561647960008201527f2063726561746564000000000000000000000000000000000000000000000000602082015250565b7f416464726573733a20696e73756666696369656e742062616c616e636520666f60008201527f722063616c6c0000000000000000000000000000000000000000000000000000602082015250565b7f504c4143454d414e414745523a20466c656574206e6f7420617420612072656660008201527f696e657279000000000000000000000000000000000000000000000000000000602082015250565b7f504c4143454d414e414745523a206d757374206265203c3d2031303000000000600082015250565b7f504c4143454d414e414745523a204e6f206a61636b706f7420706c616e65742060008201527f6c6f636174656420686572650000000000000000000000000000000000000000602082015250565b7f445259444f434b3a2041646472657373206973206e6f74206120656469746f72600082015250565b7f504c4143454d414e414745523a20466c656574206973206e6f74206865726500600082015250565b7f4f776e61626c653a2063616c6c6572206973206e6f7420746865206f776e6572600082015250565b7f504c4143454d414e414745523a204a61636b706f742069732070617573656400600082015250565b7f504c4143454d414e414745523a204e6f204e4f564120617661696c61626c6500600082015250565b7f504c4143454d414e414745523a206e6f204e6f766120746f20616c6c6f63617460008201527f6500000000000000000000000000000000000000000000000000000000000000602082015250565b7f416464726573733a2063616c6c20746f206e6f6e2d636f6e7472616374000000600082015250565b7f504c4143454d414e414745523a20506c6179657220686173206e6f20756e726560008201527f66696e6564204e6f766100000000000000000000000000000000000000000000602082015250565b7f504c4143454d414e414745523a205374617220646f6573206e6f74206861766560008201527f20656e6f756768206e6f76610000000000000000000000000000000000000000602082015250565b6147c2816140d9565b81146147cd57600080fd5b50565b6147d9816140eb565b81146147e457600080fd5b50565b6147f081614121565b81146147fb57600080fd5b5056fea2646970667358221220b5e00e0f54fbbe49a71c120a74aa4ccafe832e4bdfd1021e58a87ff733d8d8fe64736f6c63430008070033",
  "immutableReferences": {},
  "source": "// SPDX-License-Identifier: MIT\r\n\r\npragma solidity ^0.8.7;\r\n\r\nimport \"./interfaces/IFleet.sol\";\r\nimport \"./interfaces/IShadowPool.sol\";\r\nimport \"./interfaces/IMap.sol\";\r\nimport \"./libs/ShibaBEP20.sol\";\r\nimport \"./libs/SafeBEP20.sol\";\r\nimport \"./libs/Editor.sol\";\r\nimport \"./libs/Helper.sol\";\r\n\r\n/*\r\n This contract creates stars and jackpots, which are locations that \r\n allow players to mine NOVA. Contract manages NOVA, harvesting, \r\n refining, and transferring unrefined NOVA.\r\n*/\r\n\r\n/* TO-DO\r\n- pause function\r\n*/\r\n\r\ncontract PlaceManager is Editor {\r\n    using SafeBEP20 for ShibaBEP20;\r\n    \r\n    constructor (\r\n        IMap _map,\r\n        ShibaBEP20 _nova,\r\n       // IFleet _fleet,\r\n        IShadowPool _shadowPool\r\n    ) {\r\n        Map = _map;\r\n        ShadowPool = _shadowPool;\r\n        Nova = _nova;\r\n       // Fleet = _fleet;\r\n        rewardsMod = 1;\r\n        previousBalance = 0;\r\n        rewardsTimer = 0;\r\n        rewardsDelay = 14400;\r\n        // setInitial();\r\n    }\r\n\r\n    IMap public Map;\r\n    IShadowPool public ShadowPool;\r\n    ShibaBEP20 public Nova; // NOVA Token\r\n    IFleet public Fleet; // Fleet Contract\r\n    uint public rewardsMod; // = x/100, the higher the number the more rewards sent to this contract\r\n    uint previousBalance; // contract balance before added Nova\r\n    uint rewardsTimer; // Rewards can only be pulled from shadow pool every 4 hours?\r\n    uint rewardsDelay;\r\n    bool setup; // ensures setInitial only happens once\r\n    mapping (uint => bool) isPaused; // can pause nova harvesting for jackpots\r\n\r\n    Jackpot[] public jackpots; // ordered list of jackpot planets\r\n    mapping (uint => mapping (uint => uint)) jackpotCoords; // assigns coords to jackpot ID\r\n    Star[] public stars; // ordered list of stars\r\n    mapping (uint => mapping (uint => uint)) starCoords; // assigns coords to star ID\r\n\r\n    uint public totalLuminosity; // sum of the luminosity of all stars, denominator of NOVA allocation\r\n    mapping (uint => uint) public jackpotTotal; // sum of jackpot starDist for a given star, denominator of NOVA allocaiotn\r\n    // User => star => unrefinedNova. Player's current UNova and where is comes from\r\n    mapping(address => mapping(uint => uint)) userUNova;\r\n  \r\n    struct Jackpot {\r\n        uint coordX;\r\n        uint coordY;\r\n        uint starDist; // distance from star determines numerator NOVA allocation between planets of the same star\r\n        uint availableNova;\r\n        uint starId;\r\n    }\r\n\r\n    // if a star doesn't have a rewards planet, the star will collect nova that can't be used\r\n    // during allocation, check if a star has a planet\r\n    // rename size to luminosity\r\n    struct Star {\r\n        uint coordX;\r\n        uint coordY;\r\n        uint luminosity; // luminosity determines numerator of NOVA allocation between stars\r\n        uint novaBalance;\r\n        uint unrefinedBalance;\r\n    }\r\n\r\n    event NewMap(address _new);\r\n    event NewShadowPool(address _new);\r\n    event NewFleet(address _new);\r\n    event NewNova(address _new);\r\n    event NewRewardsMod(uint _new);\r\n    event UNovaTransferred(address _from, address _to, uint _amount);\r\n    event NovaRefined(address _player, uint _amount);\r\n    event UNovaHarvested(address _player, uint _amount);\r\n    event NewJackpot(uint _star, uint _x, uint _y);\r\n    event NewStar(uint _x, uint _y);\r\n\r\n    // transfers NOVA from this contract to the owner, used for contract maintenance \r\n    function withdrawNOVA(uint _amount) external onlyOwner {\r\n        Nova.safeTransfer(msg.sender, _amount);\r\n    }\r\n\r\n    //eventually will be generated by exploring - connect to Map, Editor\r\n    function createStar (uint _x, uint _y) public  {\r\n        // add requirement for duplicates\r\n        // add requirements for placement parameters\r\n        uint _luminosity = Helper.createRandomNumber(10);\r\n        _createStar(_luminosity, _x, _y);\r\n    }\r\n\r\n    function _createStar (uint _luminosity, uint _x, uint _y) internal {\r\n        // add requirement for duplicates\r\n        // add requirements for placement parameters\r\n        uint _id = stars.length;\r\n        stars.push(Star(_x, _y, _luminosity, 0, 0));\r\n        starCoords[_x][_y] = _id;\r\n        totalLuminosity += _luminosity;\r\n        emit NewStar(_x, _y);\r\n    }\r\n    //eventually will be generated by exploring - connect to Map, Editor\r\n    function createJackpot(uint _starId, uint _x, uint _y) public  {\r\n        // add requirement for duplicates\r\n        // add requirements for placement parameters\r\n        uint starX = stars[_starId].coordX;\r\n        uint starY = stars[_starId].coordY;\r\n        uint _dist = Helper.getDistance(starX*10, starY*10, _x*10, _y*10);\r\n        _createJackpot(_dist, _starId, _x, _y);\r\n    }\r\n\r\n    function _createJackpot(uint _dist, uint _starId, uint _x, uint _y) internal {\r\n        // add requirement for duplicates\r\n        // add requirements for placement parameters\r\n        uint _id = jackpots.length;\r\n        jackpots.push(Jackpot(_x, _y, _dist, 0, _starId));\r\n        jackpotCoords[_x][_y] = _id;\r\n        jackpotTotal[_starId] = jackpotTotal[_starId] + _dist;\r\n        emit NewJackpot(_starId, _x, _y);\r\n    }\r\n\r\n    function getStarId(uint _x, uint _y) external view returns (uint) {\r\n        return starCoords[_x][_y];\r\n    }\r\n\r\n    // set this to internal at some point, triggered by requestNova\r\n    function allocateNova() public {\r\n        uint _amount = Nova.balanceOf(address(this)) - previousBalance;\r\n        require(_amount > 0, \"PLACEMANAGER: no Nova to allocate\");\r\n            for (uint i = 0; i < stars.length; i++) {\r\n                uint _allocation = (_amount * stars[i].luminosity / totalLuminosity);\r\n                stars[i].novaBalance = stars[i].novaBalance + _allocation;\r\n                for (uint j = 0; j < jackpots.length; j++) {\r\n                    if (jackpots[j].starId == i) {\r\n                        uint numerator = _allocation * jackpots[j].starDist;\r\n                        uint denominator = jackpotTotal[i];\r\n                        jackpots[j].availableNova = (numerator > 0 ?\r\n                            jackpots[j].availableNova + (numerator / denominator) : 0);\r\n                            \r\n                    }\r\n                } \r\n            }\r\n        previousBalance = Nova.balanceOf(address(this));\r\n    }\r\n\r\n    // Pulls nova from the shadow pool, eventually internal function\r\n    function requestNova() external onlyOwner{\r\n        if (block.timestamp >= rewardsTimer) {\r\n            ShadowPool.replenishPlace(address(this), rewardsMod);\r\n            rewardsTimer = block.timestamp + rewardsDelay;\r\n            allocateNova();\r\n        }\r\n    }\r\n\r\n    // function to set ID = 0 of sun and jackpot to coords 0,0 with 0 rewards. \r\n    // this is required for contract logic to work\r\n    function setInitial() public onlyOwner {\r\n        require(setup != true, \"Initial star and jackpot already created\");\r\n        setup = true;\r\n        _createStar(0, 0, 0);\r\n        _createJackpot(0, 0, 0, 0);\r\n    }\r\n\r\n    function getJackpotNova(uint _x, uint _y) external view returns (uint) {\r\n         uint _jackpotId = jackpotCoords[_x][_y];\r\n         return jackpots[_jackpotId].availableNova;\r\n    }\r\n\r\n    function harvest(uint _x, uint _y) external {\r\n        address _sender = msg.sender;\r\n        uint _playerX;\r\n        uint _playerY;\r\n        (_playerX,) = Map.getPlayerLocation(_sender);\r\n        (,_playerY) = Map.getPlayerLocation(_sender);\r\n        require(_playerX == _x && _playerY == _y, \"PLACEMANAGER: Fleet is not here\");\r\n        require(jackpotCoords[_x][_y] != 0, \"PLACEMANAGER: No jackpot planet located here\");\r\n        // uint maxHarvest = Fleet.getNovaCapacity[_player] - getUserUNova(_sender);\r\n        //link to fleets, will have to edit maxHarvest with above\r\n        uint maxHarvest = 10**18;\r\n        uint _jackpotId = jackpotCoords[_x][_y];\r\n        require(isPaused[_jackpotId] != true, \"PLACEMANAGER: Jackpot is paused\");\r\n        uint _starId = jackpots[_jackpotId].starId;\r\n        require(jackpots[_jackpotId].availableNova > 0, \"PLACEMANAGER: No NOVA available\");\r\n        uint _amount = (jackpots[_jackpotId].availableNova < maxHarvest \r\n                        ? jackpots[_jackpotId].availableNova : maxHarvest);\r\n        jackpots[_jackpotId].availableNova = jackpots[_jackpotId].availableNova - _amount;\r\n\r\n        stars[_starId].unrefinedBalance = stars[_starId].unrefinedBalance + _amount;\r\n        require(stars[_starId].unrefinedBalance <= stars[_starId].novaBalance,\r\n                        \"PLACEMANAGER: Star does not have enough nova\");\r\n\r\n        userUNova[_sender][_starId] += _amount;\r\n        emit UNovaHarvested(_sender, _amount);\r\n    }\r\n\r\n    function refine() external {\r\n        address sender = msg.sender;\r\n        uint fleetX;\r\n        uint fleetY;\r\n        (fleetX, fleetY) = Map.getPlayerLocation(sender);\r\n        // PROBLEM: does not work?\r\n        require(Map.isRefinery(fleetX, fleetY) == true, \"PLACEMANAGER: Fleet not at a refinery\");\r\n        require(getUserUNova(sender) > 0, \"PLACEMANAGER: Player has no unrefined Nova\");\r\n        uint totalUnAmount;\r\n        for (uint i=0; i < stars.length; i++) {\r\n            uint unAmount = userUNova[sender][i];\r\n            userUNova[sender][i] = 0;\r\n            stars[i].novaBalance = stars[i].novaBalance - unAmount;\r\n            stars[i].unrefinedBalance = stars[i].unrefinedBalance - unAmount;\r\n            totalUnAmount = totalUnAmount + unAmount;\r\n        }\r\n        Nova.safeTransfer(sender, totalUnAmount);\r\n        previousBalance = previousBalance - totalUnAmount;\r\n        emit NovaRefined(sender, totalUnAmount);\r\n    }\r\n\r\n    // remember to set to onlyEditor\r\n    // Allows players to take unrefined nova from other players\r\n    function transferUNova(address _sender, address _receiver, uint _percent) external {\r\n        //uint _amount = ((getUserUNova(_sender) * _percent / 100) <= (Fleet.getNovaCapacity[_player] - getUserUNova(_sender)) ? (getUserUNova(_sender) * _percent / 100) : (Fleet.getNovaCapacity[_player] - getUserUNova(_sender)));\r\n        // replace _amount with previous line when we have fleet data\r\n        uint _amount = (getUserUNova(_sender) * _percent / 100);\r\n        uint _transferred; \r\n        for (uint i=0; i < stars.length; i++) {\r\n            if (_amount > userUNova[_sender][i]) {\r\n                uint _transfer = userUNova[_sender][i];\r\n                _amount = _amount - _transfer;\r\n                userUNova[_sender][i] = userUNova[_sender][i] - _transfer;\r\n                userUNova[_receiver][i] = userUNova[_receiver][i] + _transfer;\r\n                _transferred = _transferred + _transfer;\r\n            } else if (userUNova[_sender][i] >= _amount) {\r\n                uint _transfer = _amount;\r\n                _amount = 0;\r\n                userUNova[_sender][i] = userUNova[_sender][i] - _transfer;\r\n                userUNova[_receiver][i] = userUNova[_receiver][i] + _transfer;\r\n                _transferred = _transferred + _transfer;\r\n                \r\n            } \r\n        }\r\n        emit UNovaTransferred(_sender, _receiver, _transferred);\r\n    }\r\n\r\n    function getUserUNova(address _player) public view returns(uint){\r\n        uint currentUNova;\r\n        for (uint i=0; i < stars.length; i++) {\r\n            currentUNova = currentUNova + userUNova[_player][i];\r\n        }\r\n        return currentUNova;\r\n    }\r\n\r\n    // Functions to setup contract interfaces\r\n    function setMap(address _new) external onlyOwner {\r\n        require(address(0) != _new);\r\n        Map = IMap(_new);\r\n        emit NewMap(_new);\r\n    }\r\n    function setShadowPool(address _new) external onlyOwner {\r\n        require(address(0) != _new);\r\n        ShadowPool = IShadowPool(_new);\r\n        emit NewShadowPool(_new);\r\n    }\r\n    function setFleet(address _new) external onlyOwner {\r\n        require(address(0) != _new);\r\n        Fleet = IFleet(_new); \r\n        emit NewFleet(_new);\r\n    }\r\n    function setNova(address _new) external onlyOwner {\r\n        require(address(0) != _new);\r\n        Nova = ShibaBEP20(_new);\r\n        emit NewNova(_new);\r\n    }\r\n    // Maintenance functions\r\n    function setRewardsMod(uint _new) external onlyOwner {\r\n        require(_new <= 100, \"PLACEMANAGER: must be <= 100\");\r\n        rewardsMod = _new; // can set to 0 to turn off Nova incoming to contract\r\n        emit NewRewardsMod(_new);\r\n    }\r\n    function setRewardsTimer(uint _new) external onlyOwner {\r\n        rewardsTimer = _new;\r\n    }\r\n    function setRewardsDelay(uint _new) external onlyOwner {\r\n        rewardsDelay = _new;\r\n    }\r\n    // Pause unrefined nova mining at a jackpot planet\r\n    function setPaused(uint _id,bool _isPaused) external onlyOwner{\r\n        isPaused[_id] = _isPaused;\r\n    }\r\n}",
  "sourcePath": "D:/Novaria/contracts/PlaceManager.sol",
  "compiler": {
    "name": "solc",
    "version": "0.8.7+commit.e28d00a7.Emscripten.clang"
  },
  "schemaVersion": "3.2.3",
  "updatedAt": "2022-01-12T16:18:54.406Z",
  "networkType": "ethereum",
  "devdoc": {
    "kind": "dev",
    "methods": {
      "owner()": {
        "details": "Returns the address of the current owner."
      },
      "renounceOwnership()": {
        "details": "Leaves the contract without owner. It will not be possible to call `onlyOwner` functions anymore. Can only be called by the current owner. NOTE: Renouncing ownership will leave the contract without an owner, thereby removing any functionality that is only available to the owner."
      },
      "transferOwnership(address)": {
        "details": "Transfers ownership of the contract to a new account (`newOwner`). Can only be called by the current owner."
      }
    },
    "version": 1
  },
  "userdoc": {
    "kind": "user",
    "methods": {},
    "version": 1
  }
}