{
  "contractName": "ShadowPool",
  "abi": [
    {
      "inputs": [
        {
          "internalType": "contract IRewardsPool",
          "name": "_rewards",
          "type": "address"
        },
        {
          "internalType": "contract ShibaBEP20",
          "name": "_nova",
          "type": "address"
        },
        {
          "internalType": "uint256",
          "name": "_pid",
          "type": "uint256"
        },
        {
          "internalType": "address",
          "name": "_token",
          "type": "address"
        }
      ],
      "stateMutability": "nonpayable",
      "type": "constructor"
    },
    {
      "anonymous": false,
      "inputs": [
        {
          "indexed": true,
          "internalType": "address",
          "name": "previousOwner",
          "type": "address"
        },
        {
          "indexed": true,
          "internalType": "address",
          "name": "newOwner",
          "type": "address"
        }
      ],
      "name": "OwnershipTransferred",
      "type": "event"
    },
    {
      "inputs": [],
      "name": "Nova",
      "outputs": [
        {
          "internalType": "contract ShibaBEP20",
          "name": "",
          "type": "address"
        }
      ],
      "stateMutability": "view",
      "type": "function",
      "constant": true
    },
    {
      "inputs": [],
      "name": "Rewards",
      "outputs": [
        {
          "internalType": "contract IRewardsPool",
          "name": "",
          "type": "address"
        }
      ],
      "stateMutability": "view",
      "type": "function",
      "constant": true
    },
    {
      "inputs": [
        {
          "internalType": "address",
          "name": "_editor",
          "type": "address"
        }
      ],
      "name": "deactivateEditor",
      "outputs": [],
      "stateMutability": "nonpayable",
      "type": "function"
    },
    {
      "inputs": [
        {
          "internalType": "address",
          "name": "",
          "type": "address"
        }
      ],
      "name": "editor",
      "outputs": [
        {
          "internalType": "bool",
          "name": "",
          "type": "bool"
        }
      ],
      "stateMutability": "view",
      "type": "function",
      "constant": true
    },
    {
      "inputs": [
        {
          "internalType": "address",
          "name": "_editor",
          "type": "address"
        }
      ],
      "name": "isEditor",
      "outputs": [
        {
          "internalType": "bool",
          "name": "",
          "type": "bool"
        }
      ],
      "stateMutability": "view",
      "type": "function",
      "constant": true
    },
    {
      "inputs": [
        {
          "internalType": "address",
          "name": "",
          "type": "address"
        }
      ],
      "name": "jackpot",
      "outputs": [
        {
          "internalType": "bool",
          "name": "",
          "type": "bool"
        }
      ],
      "stateMutability": "view",
      "type": "function",
      "constant": true
    },
    {
      "inputs": [],
      "name": "owner",
      "outputs": [
        {
          "internalType": "address",
          "name": "",
          "type": "address"
        }
      ],
      "stateMutability": "view",
      "type": "function",
      "constant": true
    },
    {
      "inputs": [],
      "name": "pid",
      "outputs": [
        {
          "internalType": "uint256",
          "name": "",
          "type": "uint256"
        }
      ],
      "stateMutability": "view",
      "type": "function",
      "constant": true
    },
    {
      "inputs": [],
      "name": "renounceOwnership",
      "outputs": [],
      "stateMutability": "nonpayable",
      "type": "function"
    },
    {
      "inputs": [
        {
          "internalType": "address[]",
          "name": "_editor",
          "type": "address[]"
        }
      ],
      "name": "setEditor",
      "outputs": [],
      "stateMutability": "nonpayable",
      "type": "function"
    },
    {
      "inputs": [],
      "name": "token",
      "outputs": [
        {
          "internalType": "address",
          "name": "",
          "type": "address"
        }
      ],
      "stateMutability": "view",
      "type": "function",
      "constant": true
    },
    {
      "inputs": [
        {
          "internalType": "address",
          "name": "newOwner",
          "type": "address"
        }
      ],
      "name": "transferOwnership",
      "outputs": [],
      "stateMutability": "nonpayable",
      "type": "function"
    },
    {
      "inputs": [],
      "name": "initialDeposit",
      "outputs": [],
      "stateMutability": "nonpayable",
      "type": "function"
    },
    {
      "inputs": [],
      "name": "getPendingRewards",
      "outputs": [
        {
          "internalType": "uint256",
          "name": "",
          "type": "uint256"
        }
      ],
      "stateMutability": "view",
      "type": "function",
      "constant": true
    },
    {
      "inputs": [
        {
          "internalType": "address",
          "name": "_jackpot",
          "type": "address"
        },
        {
          "internalType": "uint256",
          "name": "_value",
          "type": "uint256"
        }
      ],
      "name": "replenishPlace",
      "outputs": [
        {
          "internalType": "uint256",
          "name": "",
          "type": "uint256"
        }
      ],
      "stateMutability": "nonpayable",
      "type": "function"
    },
    {
      "inputs": [
        {
          "internalType": "uint256",
          "name": "_amount",
          "type": "uint256"
        }
      ],
      "name": "withdrawToken",
      "outputs": [],
      "stateMutability": "nonpayable",
      "type": "function"
    },
    {
      "inputs": [
        {
          "internalType": "uint256",
          "name": "_amount",
          "type": "uint256"
        }
      ],
      "name": "withdrawNOVA",
      "outputs": [],
      "stateMutability": "nonpayable",
      "type": "function"
    }
  ],
  "bytecode": "0x60806040523480156200001157600080fd5b50604051620023bf380380620023bf833981810160405281019062000037919062000253565b620000576200004b6200012b60201b60201c565b6200013360201b60201c565b83600260006101000a81548173ffffffffffffffffffffffffffffffffffffffff021916908373ffffffffffffffffffffffffffffffffffffffff16021790555082600360006101000a81548173ffffffffffffffffffffffffffffffffffffffff021916908373ffffffffffffffffffffffffffffffffffffffff1602179055508160048190555080600560006101000a81548173ffffffffffffffffffffffffffffffffffffffff021916908373ffffffffffffffffffffffffffffffffffffffff1602179055505050505062000398565b600033905090565b60008060009054906101000a900473ffffffffffffffffffffffffffffffffffffffff169050816000806101000a81548173ffffffffffffffffffffffffffffffffffffffff021916908373ffffffffffffffffffffffffffffffffffffffff1602179055508173ffffffffffffffffffffffffffffffffffffffff168173ffffffffffffffffffffffffffffffffffffffff167f8be0079c531659141344cd1fd0a4f28419497f9722a3daafe3b4186f6b6457e060405160405180910390a35050565b600081519050620002088162000330565b92915050565b6000815190506200021f816200034a565b92915050565b600081519050620002368162000364565b92915050565b6000815190506200024d816200037e565b92915050565b6000806000806080858703121562000270576200026f6200032b565b5b600062000280878288016200020e565b9450506020620002938782880162000225565b9350506040620002a6878288016200023c565b9250506060620002b987828801620001f7565b91505092959194509250565b6000620002d28262000301565b9050919050565b6000620002e682620002c5565b9050919050565b6000620002fa82620002c5565b9050919050565b600073ffffffffffffffffffffffffffffffffffffffff82169050919050565b6000819050919050565b600080fd5b6200033b81620002c5565b81146200034757600080fd5b50565b6200035581620002d9565b81146200036157600080fd5b50565b6200036f81620002ed565b81146200037b57600080fd5b50565b620003898162000321565b81146200039557600080fd5b50565b61201780620003a86000396000f3fe608060405234801561001057600080fd5b506004361061010b5760003560e01c8063a0748154116100a2578063d9621f9e11610071578063d9621f9e146102a4578063e037f889146102c2578063f1068454146102cc578063f2fde38b146102ea578063fc0c546a146103065761010b565b8063a07481541461020a578063c28089541461023a578063d41c0b2f14610258578063d5d72a38146102885761010b565b806350baa622116100de57806350baa622146101aa57806364e51a8d146101c6578063715018a6146101e25780638da5cb5b146101ec5761010b565b80631bb63d0c14610110578063233daaf71461012e5780632771ac8e1461015e578063502241bf1461018e575b600080fd5b610118610324565b6040516101259190611885565b60405180910390f35b610148600480360381019061014391906114a4565b61034a565b604051610155919061184f565b60405180910390f35b610178600480360381019061017391906114a4565b61036a565b604051610185919061184f565b60405180910390f35b6101a860048036038101906101a39190611511565b61038a565b005b6101c460048036038101906101bf9190611587565b610547565b005b6101e060048036038101906101db91906114a4565b610676565b005b6101ea6107e0565b005b6101f4610868565b60405161020191906117d4565b60405180910390f35b610224600480360381019061021f91906114a4565b610891565b604051610231919061184f565b60405180910390f35b6102426108fc565b60405161024f919061186a565b60405180910390f35b610272600480360381019061026d91906114d1565b610922565b60405161027f91906119c2565b60405180910390f35b6102a2600480360381019061029d9190611587565b610b8e565b005b6102ac610c5a565b6040516102b991906119c2565b60405180910390f35b6102ca610d10565b005b6102d4610ecf565b6040516102e191906119c2565b60405180910390f35b61030460048036038101906102ff91906114a4565b610ed5565b005b61030e610fcd565b60405161031b91906117d4565b60405180910390f35b600360009054906101000a900473ffffffffffffffffffffffffffffffffffffffff1681565b60016020528060005260406000206000915054906101000a900460ff1681565b60066020528060005260406000206000915054906101000a900460ff1681565b610392610ff3565b73ffffffffffffffffffffffffffffffffffffffff166103b0610868565b73ffffffffffffffffffffffffffffffffffffffff1614610406576040517f08c379a00000000000000000000000000000000000000000000000000000000081526004016103fd90611982565b60405180910390fd5b60005b815181101561054357600015156001600084848151811061042d5761042c611d13565b5b602002602001015173ffffffffffffffffffffffffffffffffffffffff1673ffffffffffffffffffffffffffffffffffffffff16815260200190815260200160002060009054906101000a900460ff161515146104bf576040517f08c379a00000000000000000000000000000000000000000000000000000000081526004016104b6906118e2565b60405180910390fd5b60018060008484815181106104d7576104d6611d13565b5b602002602001015173ffffffffffffffffffffffffffffffffffffffff1673ffffffffffffffffffffffffffffffffffffffff16815260200190815260200160002060006101000a81548160ff021916908315150217905550808061053b90611c6c565b915050610409565b5050565b61054f610ff3565b73ffffffffffffffffffffffffffffffffffffffff1661056d610868565b73ffffffffffffffffffffffffffffffffffffffff16146105c3576040517f08c379a00000000000000000000000000000000000000000000000000000000081526004016105ba90611982565b60405180910390fd5b600560009054906101000a900473ffffffffffffffffffffffffffffffffffffffff1673ffffffffffffffffffffffffffffffffffffffff1663a9059cbb33836040518363ffffffff1660e01b8152600401610620929190611826565b602060405180830381600087803b15801561063a57600080fd5b505af115801561064e573d6000803e3d6000fd5b505050506040513d601f19601f82011682018060405250810190610672919061155a565b5050565b61067e610ff3565b73ffffffffffffffffffffffffffffffffffffffff1661069c610868565b73ffffffffffffffffffffffffffffffffffffffff16146106f2576040517f08c379a00000000000000000000000000000000000000000000000000000000081526004016106e990611982565b60405180910390fd5b60011515600160008373ffffffffffffffffffffffffffffffffffffffff1673ffffffffffffffffffffffffffffffffffffffff16815260200190815260200160002060009054906101000a900460ff16151514610785576040517f08c379a000000000000000000000000000000000000000000000000000000000815260040161077c90611962565b60405180910390fd5b6000600160008373ffffffffffffffffffffffffffffffffffffffff1673ffffffffffffffffffffffffffffffffffffffff16815260200190815260200160002060006101000a81548160ff02191690831515021790555050565b6107e8610ff3565b73ffffffffffffffffffffffffffffffffffffffff16610806610868565b73ffffffffffffffffffffffffffffffffffffffff161461085c576040517f08c379a000000000000000000000000000000000000000000000000000000000815260040161085390611982565b60405180910390fd5b6108666000610ffb565b565b60008060009054906101000a900473ffffffffffffffffffffffffffffffffffffffff16905090565b600060011515600160008473ffffffffffffffffffffffffffffffffffffffff1673ffffffffffffffffffffffffffffffffffffffff16815260200190815260200160002060009054906101000a900460ff161515146108f25760006108f5565b60015b9050919050565b600260009054906101000a900473ffffffffffffffffffffffffffffffffffffffff1681565b600061092d33610891565b61093657600080fd5b600260009054906101000a900473ffffffffffffffffffffffffffffffffffffffff1673ffffffffffffffffffffffffffffffffffffffff1663e2bbb15860045460006040518363ffffffff1660e01b8152600401610996929190611a06565b600060405180830381600087803b1580156109b057600080fd5b505af11580156109c4573d6000803e3d6000fd5b505050506064821115610a0c576040517f08c379a0000000000000000000000000000000000000000000000000000000008152600401610a0390611942565b60405180910390fd5b6000606483600560009054906101000a900473ffffffffffffffffffffffffffffffffffffffff1673ffffffffffffffffffffffffffffffffffffffff166370a08231306040518263ffffffff1660e01b8152600401610a6c91906117d4565b60206040518083038186803b158015610a8457600080fd5b505afa158015610a98573d6000803e3d6000fd5b505050506040513d601f19601f82011682018060405250810190610abc91906115b4565b610ac69190611b0c565b610ad09190611adb565b9050600360009054906101000a900473ffffffffffffffffffffffffffffffffffffffff1673ffffffffffffffffffffffffffffffffffffffff166323b872dd3086846040518463ffffffff1660e01b8152600401610b31939291906117ef565b602060405180830381600087803b158015610b4b57600080fd5b505af1158015610b5f573d6000803e3d6000fd5b505050506040513d601f19601f82011682018060405250810190610b83919061155a565b508091505092915050565b610b96610ff3565b73ffffffffffffffffffffffffffffffffffffffff16610bb4610868565b73ffffffffffffffffffffffffffffffffffffffff1614610c0a576040517f08c379a0000000000000000000000000000000000000000000000000000000008152600401610c0190611982565b60405180910390fd5b610c573382600360009054906101000a900473ffffffffffffffffffffffffffffffffffffffff1673ffffffffffffffffffffffffffffffffffffffff166110bf9092919063ffffffff16565b50565b6000600260009054906101000a900473ffffffffffffffffffffffffffffffffffffffff1673ffffffffffffffffffffffffffffffffffffffff1663c673fa37600454306040518363ffffffff1660e01b8152600401610cbb9291906119dd565b60206040518083038186803b158015610cd357600080fd5b505afa158015610ce7573d6000803e3d6000fd5b505050506040513d601f19601f82011682018060405250810190610d0b91906115b4565b905090565b610d18610ff3565b73ffffffffffffffffffffffffffffffffffffffff16610d36610868565b73ffffffffffffffffffffffffffffffffffffffff1614610d8c576040517f08c379a0000000000000000000000000000000000000000000000000000000008152600401610d8390611982565b60405180910390fd5b6000600560009054906101000a900473ffffffffffffffffffffffffffffffffffffffff1673ffffffffffffffffffffffffffffffffffffffff166370a08231306040518263ffffffff1660e01b8152600401610de991906117d4565b60206040518083038186803b158015610e0157600080fd5b505afa158015610e15573d6000803e3d6000fd5b505050506040513d601f19601f82011682018060405250810190610e3991906115b4565b9050600260009054906101000a900473ffffffffffffffffffffffffffffffffffffffff1673ffffffffffffffffffffffffffffffffffffffff1663e2bbb158600454836040518363ffffffff1660e01b8152600401610e9a929190611a2f565b600060405180830381600087803b158015610eb457600080fd5b505af1158015610ec8573d6000803e3d6000fd5b5050505050565b60045481565b610edd610ff3565b73ffffffffffffffffffffffffffffffffffffffff16610efb610868565b73ffffffffffffffffffffffffffffffffffffffff1614610f51576040517f08c379a0000000000000000000000000000000000000000000000000000000008152600401610f4890611982565b60405180910390fd5b600073ffffffffffffffffffffffffffffffffffffffff168173ffffffffffffffffffffffffffffffffffffffff161415610fc1576040517f08c379a0000000000000000000000000000000000000000000000000000000008152600401610fb890611902565b60405180910390fd5b610fca81610ffb565b50565b600560009054906101000a900473ffffffffffffffffffffffffffffffffffffffff1681565b600033905090565b60008060009054906101000a900473ffffffffffffffffffffffffffffffffffffffff169050816000806101000a81548173ffffffffffffffffffffffffffffffffffffffff021916908373ffffffffffffffffffffffffffffffffffffffff1602179055508173ffffffffffffffffffffffffffffffffffffffff168173ffffffffffffffffffffffffffffffffffffffff167f8be0079c531659141344cd1fd0a4f28419497f9722a3daafe3b4186f6b6457e060405160405180910390a35050565b6111408363a9059cbb60e01b84846040516024016110de929190611826565b604051602081830303815290604052907bffffffffffffffffffffffffffffffffffffffffffffffffffffffff19166020820180517bffffffffffffffffffffffffffffffffffffffffffffffffffffffff8381831617835250505050611145565b505050565b60006111a7826040518060400160405280602081526020017f5361666542455032303a206c6f772d6c6576656c2063616c6c206661696c65648152508573ffffffffffffffffffffffffffffffffffffffff1661120c9092919063ffffffff16565b905060008151111561120757808060200190518101906111c7919061155a565b611206576040517f08c379a00000000000000000000000000000000000000000000000000000000081526004016111fd906118c2565b60405180910390fd5b5b505050565b606061121b8484600085611224565b90509392505050565b606082471015611269576040517f08c379a000000000000000000000000000000000000000000000000000000000815260040161126090611922565b60405180910390fd5b61127285611338565b6112b1576040517f08c379a00000000000000000000000000000000000000000000000000000000081526004016112a8906119a2565b60405180910390fd5b6000808673ffffffffffffffffffffffffffffffffffffffff1685876040516112da91906117bd565b60006040518083038185875af1925050503d8060008114611317576040519150601f19603f3d011682016040523d82523d6000602084013e61131c565b606091505b509150915061132c82828661134b565b92505050949350505050565b600080823b905060008111915050919050565b6060831561135b578290506113ab565b60008351111561136e5782518084602001fd5b816040517f08c379a00000000000000000000000000000000000000000000000000000000081526004016113a291906118a0565b60405180910390fd5b9392505050565b60006113c56113c084611a7d565b611a58565b905080838252602082019050828560208602820111156113e8576113e7611d76565b5b60005b8581101561141857816113fe8882611422565b8452602084019350602083019250506001810190506113eb565b5050509392505050565b60008135905061143181611f9c565b92915050565b600082601f83011261144c5761144b611d71565b5b813561145c8482602086016113b2565b91505092915050565b60008151905061147481611fb3565b92915050565b60008135905061148981611fca565b92915050565b60008151905061149e81611fca565b92915050565b6000602082840312156114ba576114b9611d80565b5b60006114c884828501611422565b91505092915050565b600080604083850312156114e8576114e7611d80565b5b60006114f685828601611422565b92505060206115078582860161147a565b9150509250929050565b60006020828403121561152757611526611d80565b5b600082013567ffffffffffffffff81111561154557611544611d7b565b5b61155184828501611437565b91505092915050565b6000602082840312156115705761156f611d80565b5b600061157e84828501611465565b91505092915050565b60006020828403121561159d5761159c611d80565b5b60006115ab8482850161147a565b91505092915050565b6000602082840312156115ca576115c9611d80565b5b60006115d88482850161148f565b91505092915050565b6115ea81611b66565b82525050565b6115f981611b78565b82525050565b600061160a82611aa9565b6116148185611abf565b9350611624818560208601611c08565b80840191505092915050565b61163981611bae565b82525050565b61164881611bc0565b82525050565b61165781611bd2565b82525050565b600061166882611ab4565b6116728185611aca565b9350611682818560208601611c08565b61168b81611d85565b840191505092915050565b60006116a3602a83611aca565b91506116ae82611d96565b604082019050919050565b60006116c6602483611aca565b91506116d182611de5565b604082019050919050565b60006116e9602683611aca565b91506116f482611e34565b604082019050919050565b600061170c602683611aca565b915061171782611e83565b604082019050919050565b600061172f603c83611aca565b915061173a82611ed2565b604082019050919050565b6000611752602083611aca565b915061175d82611f21565b602082019050919050565b6000611775602083611aca565b915061178082611f4a565b602082019050919050565b6000611798601d83611aca565b91506117a382611f73565b602082019050919050565b6117b781611ba4565b82525050565b60006117c982846115ff565b915081905092915050565b60006020820190506117e960008301846115e1565b92915050565b600060608201905061180460008301866115e1565b61181160208301856115e1565b61181e60408301846117ae565b949350505050565b600060408201905061183b60008301856115e1565b61184860208301846117ae565b9392505050565b600060208201905061186460008301846115f0565b92915050565b600060208201905061187f6000830184611630565b92915050565b600060208201905061189a600083018461163f565b92915050565b600060208201905081810360008301526118ba818461165d565b905092915050565b600060208201905081810360008301526118db81611696565b9050919050565b600060208201905081810360008301526118fb816116b9565b9050919050565b6000602082019050818103600083015261191b816116dc565b9050919050565b6000602082019050818103600083015261193b816116ff565b9050919050565b6000602082019050818103600083015261195b81611722565b9050919050565b6000602082019050818103600083015261197b81611745565b9050919050565b6000602082019050818103600083015261199b81611768565b9050919050565b600060208201905081810360008301526119bb8161178b565b9050919050565b60006020820190506119d760008301846117ae565b92915050565b60006040820190506119f260008301856117ae565b6119ff60208301846115e1565b9392505050565b6000604082019050611a1b60008301856117ae565b611a28602083018461164e565b9392505050565b6000604082019050611a4460008301856117ae565b611a5160208301846117ae565b9392505050565b6000611a62611a73565b9050611a6e8282611c3b565b919050565b6000604051905090565b600067ffffffffffffffff821115611a9857611a97611d42565b5b602082029050602081019050919050565b600081519050919050565b600081519050919050565b600081905092915050565b600082825260208201905092915050565b6000611ae682611ba4565b9150611af183611ba4565b925082611b0157611b00611ce4565b5b828204905092915050565b6000611b1782611ba4565b9150611b2283611ba4565b9250817fffffffffffffffffffffffffffffffffffffffffffffffffffffffffffffffff0483118215151615611b5b57611b5a611cb5565b5b828202905092915050565b6000611b7182611b84565b9050919050565b60008115159050919050565b600073ffffffffffffffffffffffffffffffffffffffff82169050919050565b6000819050919050565b6000611bb982611be4565b9050919050565b6000611bcb82611be4565b9050919050565b6000611bdd82611ba4565b9050919050565b6000611bef82611bf6565b9050919050565b6000611c0182611b84565b9050919050565b60005b83811015611c26578082015181840152602081019050611c0b565b83811115611c35576000848401525b50505050565b611c4482611d85565b810181811067ffffffffffffffff82111715611c6357611c62611d42565b5b80604052505050565b6000611c7782611ba4565b91507fffffffffffffffffffffffffffffffffffffffffffffffffffffffffffffffff821415611caa57611ca9611cb5565b5b600182019050919050565b7f4e487b7100000000000000000000000000000000000000000000000000000000600052601160045260246000fd5b7f4e487b7100000000000000000000000000000000000000000000000000000000600052601260045260246000fd5b7f4e487b7100000000000000000000000000000000000000000000000000000000600052603260045260246000fd5b7f4e487b7100000000000000000000000000000000000000000000000000000000600052604160045260246000fd5b600080fd5b600080fd5b600080fd5b600080fd5b6000601f19601f8301169050919050565b7f5361666542455032303a204245503230206f7065726174696f6e20646964206e60008201527f6f74207375636365656400000000000000000000000000000000000000000000602082015250565b7f445259444f434b3a204164647265737320697320616c7265616479206120656460008201527f69746f7200000000000000000000000000000000000000000000000000000000602082015250565b7f4f776e61626c653a206e6577206f776e657220697320746865207a65726f206160008201527f6464726573730000000000000000000000000000000000000000000000000000602082015250565b7f416464726573733a20696e73756666696369656e742062616c616e636520666f60008201527f722063616c6c0000000000000000000000000000000000000000000000000000602082015250565b7f534841444f57504f4f4c3a2076616c7565206d757374206265206c657373207460008201527f68616e2031303025206f662074686520706f6f6c2062616c616e636500000000602082015250565b7f445259444f434b3a2041646472657373206973206e6f74206120656469746f72600082015250565b7f4f776e61626c653a2063616c6c6572206973206e6f7420746865206f776e6572600082015250565b7f416464726573733a2063616c6c20746f206e6f6e2d636f6e7472616374000000600082015250565b611fa581611b66565b8114611fb057600080fd5b50565b611fbc81611b78565b8114611fc757600080fd5b50565b611fd381611ba4565b8114611fde57600080fd5b5056fea2646970667358221220df67f70d209a296d41cc9dab4a0e362cced9ce08cf1a15e8b519baaeda2bcc1364736f6c63430008070033",
  "immutableReferences": {},
  "source": "// SPDX-License-Identifier: MIT\r\n\r\npragma solidity ^0.8.7;\r\n\r\nimport \"@openzeppelin/contracts/token/ERC20/IERC20.sol\";\r\nimport \"./libs/ShibaBEP20.sol\";\r\nimport \"./libs/Editor.sol\";\r\nimport \"./libs/SafeBEP20.sol\";\r\n\r\n// The shadow pool is a contract that manages a single-token\r\n// staking pool. The goal of this is to divert funds from the \r\n// farming contract by being the only owner of the token in the \r\n// staking pool. Then this contract can disburse the emissions.\r\n\r\ninterface IRewardsPool {\r\n    function deposit(uint256 _pid, uint256 _amount) external;\r\n    function pendingNova(uint256 _pid, address _user) external view returns (uint256);\r\n}\r\n\r\ncontract ShadowPool is Editor {\r\n    using SafeBEP20 for ShibaBEP20;\r\n\r\n    IRewardsPool public Rewards;\r\n    ShibaBEP20 public Nova;\r\n\r\n    uint public pid;\r\n    address public token;\r\n\r\n    mapping(address => bool) public jackpot;\r\n\r\n    constructor (\r\n        IRewardsPool _rewards,\r\n        ShibaBEP20 _nova,\r\n        uint _pid,\r\n        address _token\r\n    ) {\r\n        Rewards = _rewards;\r\n        Nova = _nova;\r\n        pid = _pid;\r\n        token = _token;\r\n    }\r\n\r\n    // after deploying and sending the shadow token to this contract, \r\n    // use this function to setup the pool deposit\r\n    function initialDeposit() external onlyOwner {\r\n        uint _amount = IERC20(token).balanceOf(address(this));\r\n        Rewards.deposit(pid, _amount);\r\n    }\r\n\r\n    // gets the current pending nova from the farm contract awaiting harvest\r\n    function getPendingRewards() public view returns(uint){\r\n        return Rewards.pendingNova(pid, address(this));\r\n    }\r\n    function replenishPlace(address _jackpot, uint _value) external onlyEditor returns(uint){\r\n        Rewards.deposit(pid, 0);\r\n        require(_value <= 100, \"SHADOWPOOL: value must be less than 100% of the pool balance\");\r\n        uint _amount = IERC20(token).balanceOf(address(this)) * _value / 100;\r\n        Nova.transferFrom(address(this), _jackpot, _amount);\r\n        return _amount;\r\n    }\r\n\r\n    // transfers the shadow token to the owner, used for maintenance\r\n    function withdrawToken(uint _amount) external onlyOwner {\r\n        IERC20(token).transfer(msg.sender, _amount);\r\n    }\r\n\r\n    // transfers NOVA from this contract to the owner, used for contract maintenance \r\n    function withdrawNOVA(uint _amount) external onlyOwner {\r\n        Nova.safeTransfer(msg.sender, _amount);\r\n    }\r\n}",
  "sourcePath": "D:/Novaria/contracts/ShadowPool.sol",
  "compiler": {
    "name": "solc",
    "version": "0.8.7+commit.e28d00a7.Emscripten.clang"
  },
  "schemaVersion": "3.2.3",
  "updatedAt": "2022-01-12T16:18:54.437Z",
  "networkType": "ethereum",
  "devdoc": {
    "kind": "dev",
    "methods": {
      "owner()": {
        "details": "Returns the address of the current owner."
      },
      "renounceOwnership()": {
        "details": "Leaves the contract without owner. It will not be possible to call `onlyOwner` functions anymore. Can only be called by the current owner. NOTE: Renouncing ownership will leave the contract without an owner, thereby removing any functionality that is only available to the owner."
      },
      "transferOwnership(address)": {
        "details": "Transfers ownership of the contract to a new account (`newOwner`). Can only be called by the current owner."
      }
    },
    "version": 1
  },
  "userdoc": {
    "kind": "user",
    "methods": {},
    "version": 1
  }
}