{
  "contractName": "Treasury",
  "abi": [
    {
      "inputs": [
        {
          "internalType": "contract ShibaBEP20",
          "name": "_Nova",
          "type": "address"
        },
        {
          "internalType": "address",
          "name": "_feeManager",
          "type": "address"
        }
      ],
      "stateMutability": "nonpayable",
      "type": "constructor"
    },
    {
      "anonymous": false,
      "inputs": [
        {
          "indexed": false,
          "internalType": "address",
          "name": "newFeeManager",
          "type": "address"
        }
      ],
      "name": "NewFeeManager",
      "type": "event"
    },
    {
      "anonymous": false,
      "inputs": [
        {
          "indexed": false,
          "internalType": "uint256",
          "name": "newRate",
          "type": "uint256"
        }
      ],
      "name": "NewMoneyPotRate",
      "type": "event"
    },
    {
      "anonymous": false,
      "inputs": [
        {
          "indexed": false,
          "internalType": "address",
          "name": "newNova",
          "type": "address"
        }
      ],
      "name": "NewNovaAddress",
      "type": "event"
    },
    {
      "anonymous": false,
      "inputs": [
        {
          "indexed": true,
          "internalType": "address",
          "name": "previousOwner",
          "type": "address"
        },
        {
          "indexed": true,
          "internalType": "address",
          "name": "newOwner",
          "type": "address"
        }
      ],
      "name": "OwnershipTransferred",
      "type": "event"
    },
    {
      "inputs": [],
      "name": "Nova",
      "outputs": [
        {
          "internalType": "contract ShibaBEP20",
          "name": "",
          "type": "address"
        }
      ],
      "stateMutability": "view",
      "type": "function",
      "constant": true
    },
    {
      "inputs": [
        {
          "internalType": "address",
          "name": "_editor",
          "type": "address"
        }
      ],
      "name": "deactivateEditor",
      "outputs": [],
      "stateMutability": "nonpayable",
      "type": "function"
    },
    {
      "inputs": [
        {
          "internalType": "address",
          "name": "",
          "type": "address"
        }
      ],
      "name": "editor",
      "outputs": [
        {
          "internalType": "bool",
          "name": "",
          "type": "bool"
        }
      ],
      "stateMutability": "view",
      "type": "function",
      "constant": true
    },
    {
      "inputs": [],
      "name": "feeManager",
      "outputs": [
        {
          "internalType": "address",
          "name": "",
          "type": "address"
        }
      ],
      "stateMutability": "view",
      "type": "function",
      "constant": true
    },
    {
      "inputs": [
        {
          "internalType": "address",
          "name": "_editor",
          "type": "address"
        }
      ],
      "name": "isEditor",
      "outputs": [
        {
          "internalType": "bool",
          "name": "",
          "type": "bool"
        }
      ],
      "stateMutability": "view",
      "type": "function",
      "constant": true
    },
    {
      "inputs": [],
      "name": "moneyPotRate",
      "outputs": [
        {
          "internalType": "uint256",
          "name": "",
          "type": "uint256"
        }
      ],
      "stateMutability": "view",
      "type": "function",
      "constant": true
    },
    {
      "inputs": [],
      "name": "owner",
      "outputs": [
        {
          "internalType": "address",
          "name": "",
          "type": "address"
        }
      ],
      "stateMutability": "view",
      "type": "function",
      "constant": true
    },
    {
      "inputs": [],
      "name": "renounceOwnership",
      "outputs": [],
      "stateMutability": "nonpayable",
      "type": "function"
    },
    {
      "inputs": [
        {
          "internalType": "address[]",
          "name": "_editor",
          "type": "address[]"
        }
      ],
      "name": "setEditor",
      "outputs": [],
      "stateMutability": "nonpayable",
      "type": "function"
    },
    {
      "inputs": [],
      "name": "totalDeposit",
      "outputs": [
        {
          "internalType": "uint256",
          "name": "",
          "type": "uint256"
        }
      ],
      "stateMutability": "view",
      "type": "function",
      "constant": true
    },
    {
      "inputs": [],
      "name": "totalFee",
      "outputs": [
        {
          "internalType": "uint256",
          "name": "",
          "type": "uint256"
        }
      ],
      "stateMutability": "view",
      "type": "function",
      "constant": true
    },
    {
      "inputs": [],
      "name": "totalPot",
      "outputs": [
        {
          "internalType": "uint256",
          "name": "",
          "type": "uint256"
        }
      ],
      "stateMutability": "view",
      "type": "function",
      "constant": true
    },
    {
      "inputs": [],
      "name": "totalWithdrawn",
      "outputs": [
        {
          "internalType": "uint256",
          "name": "",
          "type": "uint256"
        }
      ],
      "stateMutability": "view",
      "type": "function",
      "constant": true
    },
    {
      "inputs": [
        {
          "internalType": "address",
          "name": "newOwner",
          "type": "address"
        }
      ],
      "name": "transferOwnership",
      "outputs": [],
      "stateMutability": "nonpayable",
      "type": "function"
    },
    {
      "inputs": [
        {
          "internalType": "uint256",
          "name": "_rate",
          "type": "uint256"
        }
      ],
      "name": "setMoneyPotRate",
      "outputs": [],
      "stateMutability": "nonpayable",
      "type": "function"
    },
    {
      "inputs": [
        {
          "internalType": "address",
          "name": "_newAddress",
          "type": "address"
        }
      ],
      "name": "setFeeManager",
      "outputs": [],
      "stateMutability": "nonpayable",
      "type": "function"
    },
    {
      "inputs": [
        {
          "internalType": "address",
          "name": "_newAddress",
          "type": "address"
        }
      ],
      "name": "setNovaAddress",
      "outputs": [],
      "stateMutability": "nonpayable",
      "type": "function"
    },
    {
      "inputs": [
        {
          "internalType": "address",
          "name": "_from",
          "type": "address"
        },
        {
          "internalType": "uint256",
          "name": "_amount",
          "type": "uint256"
        }
      ],
      "name": "pay",
      "outputs": [],
      "stateMutability": "nonpayable",
      "type": "function"
    },
    {
      "inputs": [
        {
          "internalType": "address",
          "name": "_from",
          "type": "address"
        },
        {
          "internalType": "uint256",
          "name": "_amount",
          "type": "uint256"
        }
      ],
      "name": "deposit",
      "outputs": [],
      "stateMutability": "nonpayable",
      "type": "function"
    },
    {
      "inputs": [
        {
          "internalType": "address",
          "name": "_recipient",
          "type": "address"
        },
        {
          "internalType": "uint256",
          "name": "_amount",
          "type": "uint256"
        }
      ],
      "name": "withdraw",
      "outputs": [],
      "stateMutability": "nonpayable",
      "type": "function"
    }
  ],
  "bytecode": "0x6080604052600a60025560506003553480156200001b57600080fd5b5060405162001f9738038062001f978339818101604052810190620000419190620001e5565b6200006162000055620000eb60201b60201c565b620000f360201b60201c565b81600560006101000a81548173ffffffffffffffffffffffffffffffffffffffff021916908373ffffffffffffffffffffffffffffffffffffffff16021790555080600460006101000a81548173ffffffffffffffffffffffffffffffffffffffff021916908373ffffffffffffffffffffffffffffffffffffffff1602179055505050620002ad565b600033905090565b60008060009054906101000a900473ffffffffffffffffffffffffffffffffffffffff169050816000806101000a81548173ffffffffffffffffffffffffffffffffffffffff021916908373ffffffffffffffffffffffffffffffffffffffff1602179055508173ffffffffffffffffffffffffffffffffffffffff168173ffffffffffffffffffffffffffffffffffffffff167f8be0079c531659141344cd1fd0a4f28419497f9722a3daafe3b4186f6b6457e060405160405180910390a35050565b600081519050620001c88162000279565b92915050565b600081519050620001df8162000293565b92915050565b60008060408385031215620001ff57620001fe62000274565b5b60006200020f85828601620001ce565b92505060206200022285828601620001b7565b9150509250929050565b6000620002398262000254565b9050919050565b60006200024d826200022c565b9050919050565b600073ffffffffffffffffffffffffffffffffffffffff82169050919050565b600080fd5b62000284816200022c565b81146200029057600080fd5b50565b6200029e8162000240565b8114620002aa57600080fd5b50565b611cda80620002bd6000396000f3fe608060405234801561001057600080fd5b506004361061012c5760003560e01c8063715018a6116100ad578063c407687611610071578063c4076876146102f7578063d0fb020314610313578063f2fde38b14610331578063f3fef3a31461034d578063f6153ccd146103695761012c565b8063715018a6146102675780637abc16ac146102715780638da5cb5b1461028d578063a0748154146102ab578063bc10c88f146102db5761012c565b806347e7ef24116100f457806347e7ef24146101d75780634b319713146101f3578063502241bf1461021157806364e51a8d1461022d5780636b0d23d2146102495761012c565b80631bb63d0c146101315780631df4ccfc1461014f578063233daaf71461016d57806324b570a91461019d578063472d35b9146101bb575b600080fd5b610139610387565b604051610146919061162c565b60405180910390f35b6101576103ad565b6040516101649190611749565b60405180910390f35b610187600480360381019061018291906112d4565b6103b3565b6040516101949190611611565b60405180910390f35b6101a56103d3565b6040516101b29190611749565b60405180910390f35b6101d560048036038101906101d091906112d4565b6103d9565b005b6101f160048036038101906101ec9190611301565b6104d0565b005b6101fb610537565b6040516102089190611749565b60405180910390f35b61022b60048036038101906102269190611341565b61053d565b005b610247600480360381019061024291906112d4565b6106fa565b005b610251610864565b60405161025e9190611749565b60405180910390f35b61026f61086a565b005b61028b600480360381019061028691906113b7565b6108f2565b005b6102956109af565b6040516102a29190611596565b60405180910390f35b6102c560048036038101906102c091906112d4565b6109d8565b6040516102d29190611611565b60405180910390f35b6102f560048036038101906102f091906112d4565b610a43565b005b610311600480360381019061030c9190611301565b610b3a565b005b61031b610c14565b6040516103289190611596565b60405180910390f35b61034b600480360381019061034691906112d4565b610c3a565b005b61036760048036038101906103629190611301565b610d32565b005b610371610da9565b60405161037e9190611749565b60405180910390f35b600560009054906101000a900473ffffffffffffffffffffffffffffffffffffffff1681565b60095481565b60016020528060005260406000206000915054906101000a900460ff1681565b60085481565b6103e1610daf565b73ffffffffffffffffffffffffffffffffffffffff166103ff6109af565b73ffffffffffffffffffffffffffffffffffffffff1614610455576040517f08c379a000000000000000000000000000000000000000000000000000000000815260040161044c90611709565b60405180910390fd5b80600460006101000a81548173ffffffffffffffffffffffffffffffffffffffff021916908373ffffffffffffffffffffffffffffffffffffffff1602179055507f772ddcfc9a0f3b1401c0f60000a81999005d9d593b71bb67707c5f326eb7c94d816040516104c59190611596565b60405180910390a150565b61051f823083600560009054906101000a900473ffffffffffffffffffffffffffffffffffffffff1673ffffffffffffffffffffffffffffffffffffffff16610db7909392919063ffffffff16565b8060075461052d91906117e7565b6007819055505050565b60065481565b610545610daf565b73ffffffffffffffffffffffffffffffffffffffff166105636109af565b73ffffffffffffffffffffffffffffffffffffffff16146105b9576040517f08c379a00000000000000000000000000000000000000000000000000000000081526004016105b090611709565b60405180910390fd5b60005b81518110156106f65760001515600160008484815181106105e0576105df611a25565b5b602002602001015173ffffffffffffffffffffffffffffffffffffffff1673ffffffffffffffffffffffffffffffffffffffff16815260200190815260200160002060009054906101000a900460ff16151514610672576040517f08c379a000000000000000000000000000000000000000000000000000000000815260040161066990611689565b60405180910390fd5b600180600084848151811061068a57610689611a25565b5b602002602001015173ffffffffffffffffffffffffffffffffffffffff1673ffffffffffffffffffffffffffffffffffffffff16815260200190815260200160002060006101000a81548160ff02191690831515021790555080806106ee906119ad565b9150506105bc565b5050565b610702610daf565b73ffffffffffffffffffffffffffffffffffffffff166107206109af565b73ffffffffffffffffffffffffffffffffffffffff1614610776576040517f08c379a000000000000000000000000000000000000000000000000000000000815260040161076d90611709565b60405180910390fd5b60011515600160008373ffffffffffffffffffffffffffffffffffffffff1673ffffffffffffffffffffffffffffffffffffffff16815260200190815260200160002060009054906101000a900460ff16151514610809576040517f08c379a0000000000000000000000000000000000000000000000000000000008152600401610800906116e9565b60405180910390fd5b6000600160008373ffffffffffffffffffffffffffffffffffffffff1673ffffffffffffffffffffffffffffffffffffffff16815260200190815260200160002060006101000a81548160ff02191690831515021790555050565b60035481565b610872610daf565b73ffffffffffffffffffffffffffffffffffffffff166108906109af565b73ffffffffffffffffffffffffffffffffffffffff16146108e6576040517f08c379a00000000000000000000000000000000000000000000000000000000081526004016108dd90611709565b60405180910390fd5b6108f06000610e40565b565b6108fa610daf565b73ffffffffffffffffffffffffffffffffffffffff166109186109af565b73ffffffffffffffffffffffffffffffffffffffff161461096e576040517f08c379a000000000000000000000000000000000000000000000000000000000815260040161096590611709565b60405180910390fd5b806003819055507fc95cdbbcbc0c7468884b54a7fa1fe984eb9fe2bea421d530c057afaffef206fa816040516109a49190611749565b60405180910390a150565b60008060009054906101000a900473ffffffffffffffffffffffffffffffffffffffff16905090565b600060011515600160008473ffffffffffffffffffffffffffffffffffffffff1673ffffffffffffffffffffffffffffffffffffffff16815260200190815260200160002060009054906101000a900460ff16151514610a39576000610a3c565b60015b9050919050565b610a4b610daf565b73ffffffffffffffffffffffffffffffffffffffff16610a696109af565b73ffffffffffffffffffffffffffffffffffffffff1614610abf576040517f08c379a0000000000000000000000000000000000000000000000000000000008152600401610ab690611709565b60405180910390fd5b80600560006101000a81548173ffffffffffffffffffffffffffffffffffffffff021916908373ffffffffffffffffffffffffffffffffffffffff1602179055507f143479124eff1092d7fc036c4babb9828a763b8f7893b464521b8d05b084ac9b81604051610b2f9190611596565b60405180910390a150565b610b5d826003546064610b4d9190611897565b83610b58919061183d565b6104d0565b610bdb82600460009054906101000a900473ffffffffffffffffffffffffffffffffffffffff1660035484610b92919061183d565b600560009054906101000a900473ffffffffffffffffffffffffffffffffffffffff1673ffffffffffffffffffffffffffffffffffffffff16610db7909392919063ffffffff16565b60035481610be9919061183d565b600854610bf691906117e7565b60088190555080600954610c0a91906117e7565b6009819055505050565b600460009054906101000a900473ffffffffffffffffffffffffffffffffffffffff1681565b610c42610daf565b73ffffffffffffffffffffffffffffffffffffffff16610c606109af565b73ffffffffffffffffffffffffffffffffffffffff1614610cb6576040517f08c379a0000000000000000000000000000000000000000000000000000000008152600401610cad90611709565b60405180910390fd5b600073ffffffffffffffffffffffffffffffffffffffff168173ffffffffffffffffffffffffffffffffffffffff161415610d26576040517f08c379a0000000000000000000000000000000000000000000000000000000008152600401610d1d906116a9565b60405180910390fd5b610d2f81610e40565b50565b610d3b336109d8565b610d4457600080fd5b610d918282600560009054906101000a900473ffffffffffffffffffffffffffffffffffffffff1673ffffffffffffffffffffffffffffffffffffffff16610f049092919063ffffffff16565b80600654610d9f91906117e7565b6006819055505050565b60075481565b600033905090565b610e3a846323b872dd60e01b858585604051602401610dd8939291906115b1565b604051602081830303815290604052907bffffffffffffffffffffffffffffffffffffffffffffffffffffffff19166020820180517bffffffffffffffffffffffffffffffffffffffffffffffffffffffff8381831617835250505050610f8a565b50505050565b60008060009054906101000a900473ffffffffffffffffffffffffffffffffffffffff169050816000806101000a81548173ffffffffffffffffffffffffffffffffffffffff021916908373ffffffffffffffffffffffffffffffffffffffff1602179055508173ffffffffffffffffffffffffffffffffffffffff168173ffffffffffffffffffffffffffffffffffffffff167f8be0079c531659141344cd1fd0a4f28419497f9722a3daafe3b4186f6b6457e060405160405180910390a35050565b610f858363a9059cbb60e01b8484604051602401610f239291906115e8565b604051602081830303815290604052907bffffffffffffffffffffffffffffffffffffffffffffffffffffffff19166020820180517bffffffffffffffffffffffffffffffffffffffffffffffffffffffff8381831617835250505050610f8a565b505050565b6000610fec826040518060400160405280602081526020017f5361666542455032303a206c6f772d6c6576656c2063616c6c206661696c65648152508573ffffffffffffffffffffffffffffffffffffffff166110519092919063ffffffff16565b905060008151111561104c578080602001905181019061100c919061138a565b61104b576040517f08c379a000000000000000000000000000000000000000000000000000000000815260040161104290611669565b60405180910390fd5b5b505050565b60606110608484600085611069565b90509392505050565b6060824710156110ae576040517f08c379a00000000000000000000000000000000000000000000000000000000081526004016110a5906116c9565b60405180910390fd5b6110b78561117d565b6110f6576040517f08c379a00000000000000000000000000000000000000000000000000000000081526004016110ed90611729565b60405180910390fd5b6000808673ffffffffffffffffffffffffffffffffffffffff16858760405161111f919061157f565b60006040518083038185875af1925050503d806000811461115c576040519150601f19603f3d011682016040523d82523d6000602084013e611161565b606091505b5091509150611171828286611190565b92505050949350505050565b600080823b905060008111915050919050565b606083156111a0578290506111f0565b6000835111156111b35782518084602001fd5b816040517f08c379a00000000000000000000000000000000000000000000000000000000081526004016111e79190611647565b60405180910390fd5b9392505050565b600061120a61120584611789565b611764565b9050808382526020820190508285602086028201111561122d5761122c611a88565b5b60005b8581101561125d57816112438882611267565b845260208401935060208301925050600181019050611230565b5050509392505050565b60008135905061127681611c5f565b92915050565b600082601f83011261129157611290611a83565b5b81356112a18482602086016111f7565b91505092915050565b6000815190506112b981611c76565b92915050565b6000813590506112ce81611c8d565b92915050565b6000602082840312156112ea576112e9611a92565b5b60006112f884828501611267565b91505092915050565b6000806040838503121561131857611317611a92565b5b600061132685828601611267565b9250506020611337858286016112bf565b9150509250929050565b60006020828403121561135757611356611a92565b5b600082013567ffffffffffffffff81111561137557611374611a8d565b5b6113818482850161127c565b91505092915050565b6000602082840312156113a05761139f611a92565b5b60006113ae848285016112aa565b91505092915050565b6000602082840312156113cd576113cc611a92565b5b60006113db848285016112bf565b91505092915050565b6113ed816118cb565b82525050565b6113fc816118dd565b82525050565b600061140d826117b5565b61141781856117cb565b9350611427818560208601611949565b80840191505092915050565b61143c81611913565b82525050565b600061144d826117c0565b61145781856117d6565b9350611467818560208601611949565b61147081611a97565b840191505092915050565b6000611488602a836117d6565b915061149382611aa8565b604082019050919050565b60006114ab6024836117d6565b91506114b682611af7565b604082019050919050565b60006114ce6026836117d6565b91506114d982611b46565b604082019050919050565b60006114f16026836117d6565b91506114fc82611b95565b604082019050919050565b60006115146020836117d6565b915061151f82611be4565b602082019050919050565b60006115376020836117d6565b915061154282611c0d565b602082019050919050565b600061155a601d836117d6565b915061156582611c36565b602082019050919050565b61157981611909565b82525050565b600061158b8284611402565b915081905092915050565b60006020820190506115ab60008301846113e4565b92915050565b60006060820190506115c660008301866113e4565b6115d360208301856113e4565b6115e06040830184611570565b949350505050565b60006040820190506115fd60008301856113e4565b61160a6020830184611570565b9392505050565b600060208201905061162660008301846113f3565b92915050565b60006020820190506116416000830184611433565b92915050565b600060208201905081810360008301526116618184611442565b905092915050565b600060208201905081810360008301526116828161147b565b9050919050565b600060208201905081810360008301526116a28161149e565b9050919050565b600060208201905081810360008301526116c2816114c1565b9050919050565b600060208201905081810360008301526116e2816114e4565b9050919050565b6000602082019050818103600083015261170281611507565b9050919050565b600060208201905081810360008301526117228161152a565b9050919050565b600060208201905081810360008301526117428161154d565b9050919050565b600060208201905061175e6000830184611570565b92915050565b600061176e61177f565b905061177a828261197c565b919050565b6000604051905090565b600067ffffffffffffffff8211156117a4576117a3611a54565b5b602082029050602081019050919050565b600081519050919050565b600081519050919050565b600081905092915050565b600082825260208201905092915050565b60006117f282611909565b91506117fd83611909565b9250827fffffffffffffffffffffffffffffffffffffffffffffffffffffffffffffffff03821115611832576118316119f6565b5b828201905092915050565b600061184882611909565b915061185383611909565b9250817fffffffffffffffffffffffffffffffffffffffffffffffffffffffffffffffff048311821515161561188c5761188b6119f6565b5b828202905092915050565b60006118a282611909565b91506118ad83611909565b9250828210156118c0576118bf6119f6565b5b828203905092915050565b60006118d6826118e9565b9050919050565b60008115159050919050565b600073ffffffffffffffffffffffffffffffffffffffff82169050919050565b6000819050919050565b600061191e82611925565b9050919050565b600061193082611937565b9050919050565b6000611942826118e9565b9050919050565b60005b8381101561196757808201518184015260208101905061194c565b83811115611976576000848401525b50505050565b61198582611a97565b810181811067ffffffffffffffff821117156119a4576119a3611a54565b5b80604052505050565b60006119b882611909565b91507fffffffffffffffffffffffffffffffffffffffffffffffffffffffffffffffff8214156119eb576119ea6119f6565b5b600182019050919050565b7f4e487b7100000000000000000000000000000000000000000000000000000000600052601160045260246000fd5b7f4e487b7100000000000000000000000000000000000000000000000000000000600052603260045260246000fd5b7f4e487b7100000000000000000000000000000000000000000000000000000000600052604160045260246000fd5b600080fd5b600080fd5b600080fd5b600080fd5b6000601f19601f8301169050919050565b7f5361666542455032303a204245503230206f7065726174696f6e20646964206e60008201527f6f74207375636365656400000000000000000000000000000000000000000000602082015250565b7f445259444f434b3a204164647265737320697320616c7265616479206120656460008201527f69746f7200000000000000000000000000000000000000000000000000000000602082015250565b7f4f776e61626c653a206e6577206f776e657220697320746865207a65726f206160008201527f6464726573730000000000000000000000000000000000000000000000000000602082015250565b7f416464726573733a20696e73756666696369656e742062616c616e636520666f60008201527f722063616c6c0000000000000000000000000000000000000000000000000000602082015250565b7f445259444f434b3a2041646472657373206973206e6f74206120656469746f72600082015250565b7f4f776e61626c653a2063616c6c6572206973206e6f7420746865206f776e6572600082015250565b7f416464726573733a2063616c6c20746f206e6f6e2d636f6e7472616374000000600082015250565b611c68816118cb565b8114611c7357600080fd5b50565b611c7f816118dd565b8114611c8a57600080fd5b50565b611c9681611909565b8114611ca157600080fd5b5056fea264697066735822122016d32a041c05d7028a7644a616452af3bff5ad0b4ccb413561f0a500f576489264736f6c63430008070033",
  "immutableReferences": {},
  "source": "// SPDX-License-Identifier: MIT\r\n\r\npragma solidity ^0.8.7;\r\n\r\nimport \"./libs/ShibaBEP20.sol\";\r\nimport \"./libs/SafeBEP20.sol\";\r\nimport \"./libs/Editor.sol\";\r\n\r\ncontract Treasury is Editor {\r\n    using SafeBEP20 for ShibaBEP20;\r\n\r\n    constructor(\r\n        ShibaBEP20 _Nova,\r\n        address _feeManager\r\n    ) {\r\n        Nova = _Nova;\r\n        feeManager = _feeManager;\r\n    }\r\n\r\n    uint costModifier = 10;\r\n    uint public moneyPotRate = 80; // initially 80% of funds go directly to money pot\r\n    address public feeManager; // address that handles the money pot\r\n    ShibaBEP20 public Nova; // nova token address\r\n    uint public totalWithdrawn; // total amount of fees withdrawn\r\n    uint public totalDeposit; // total amount of fees collected in Treasury\r\n    uint public totalPot; // total amount of fees sent to the feeManager (money pot)\r\n    uint public totalFee; // total fees paid in the game\r\n\r\n    event NewMoneyPotRate(uint newRate);\r\n    event NewFeeManager(address newFeeManager);\r\n    event NewNovaAddress(address newNova);\r\n\r\n    \r\n\r\n    // sets how much of the fees go to the fee manager (money pot)\r\n    function setMoneyPotRate(uint _rate) external onlyOwner {\r\n        moneyPotRate = _rate;\r\n        emit NewMoneyPotRate(_rate);\r\n    }\r\n\r\n    function setFeeManager(address _newAddress) external onlyOwner {\r\n        feeManager = _newAddress;\r\n        emit NewFeeManager(_newAddress);\r\n    }\r\n\r\n    function setNovaAddress(address _newAddress) external onlyOwner {\r\n        Nova = ShibaBEP20(_newAddress);\r\n        emit NewNovaAddress(_newAddress);\r\n    } \r\n\r\n    function pay(address _from, uint _amount) external {\r\n        deposit(_from, _amount *(100-moneyPotRate));\r\n        Nova.safeTransferFrom(_from, feeManager, _amount * moneyPotRate);\r\n        totalPot = totalPot + ( _amount * moneyPotRate);\r\n        totalFee = totalFee + _amount;\r\n    }\r\n\r\n    function deposit(address _from, uint _amount) public {\r\n        Nova.safeTransferFrom(_from, address(this), _amount);\r\n        totalDeposit = totalDeposit + _amount;\r\n    }\r\n\r\n    // function to withdraw fees from Treasury\r\n    function withdraw (address _recipient, uint _amount) public onlyEditor {\r\n        Nova.safeTransfer(_recipient, _amount);\r\n        totalWithdrawn = totalWithdrawn + _amount;\r\n    }\r\n}",
  "sourcePath": "D:/Novaria/contracts/Treasury.sol",
  "compiler": {
    "name": "solc",
    "version": "0.8.7+commit.e28d00a7.Emscripten.clang"
  },
  "schemaVersion": "3.2.3",
  "updatedAt": "2022-01-12T16:18:54.468Z",
  "networkType": "ethereum",
  "devdoc": {
    "kind": "dev",
    "methods": {
      "owner()": {
        "details": "Returns the address of the current owner."
      },
      "renounceOwnership()": {
        "details": "Leaves the contract without owner. It will not be possible to call `onlyOwner` functions anymore. Can only be called by the current owner. NOTE: Renouncing ownership will leave the contract without an owner, thereby removing any functionality that is only available to the owner."
      },
      "transferOwnership(address)": {
        "details": "Transfers ownership of the contract to a new account (`newOwner`). Can only be called by the current owner."
      }
    },
    "version": 1
  },
  "userdoc": {
    "kind": "user",
    "methods": {},
    "version": 1
  }
}